:1000000000000120750300005D0300005F03000095
:1000100061030000630300006503000000000000AE
:100020000000000000000000000000006703000066
:1000300069030000000000006B0300006D03000076
:100040006F0300006F030000B11500006F03000094
:100050006F0300006F030000E12000004122000058
:100060006F0300006F0300006F0300006F030000C8
:100070006F0300006F0300006F0300006F030000B8
:100080006F0300006F0300006F0300006F030000A8
:100090006F0300006F0300006F0300006F03000098
:1000A0006F0300006F0300006F0300006F03000088
:1000B0006F0300006F03000000000000000000005C
:1000C0006F0300006F0300006F0300006F03000068
:1000D0006F0300006F0300006F03000000000000CA
:1000E0000000000000000000000000000000000010
:1000F0000000000000000000000000000000000000
:1001000000000000000000000000000000000000EF
:1001100000000000000000000000000000000000DF
:1001200000000000000000000000000000000000CF
:1001300000000000000000000000000000000000BF
:1001400000000000000000000000000000000000AF
:10015000000000000000000000000000000000009F
:10016000000000000000000000000000000000008F
:10017000000000000000000000000000000000007F
:10018000000000000000000000000000000000006F
:10019000000000000000000000000000000000005F
:1001A000000000000000000000000000000000004F
:1001B000000000000000000000000000000000003F
:1001C000000000000000000000000000000000002F
:1001D000000000000000000000000000000000001F
:1001E000000000000000000000000000000000000F
:1001F00000000000000000000000000000000000FF
:10020000354936480A1A02D0072291438D463449AF
:1002100034480A1A06D00722914381F30988022242
:1002200082F3148830483149314A00F044F83148AB
:100230003149324A00F03FF831483249324A00F041
:100240003AF832483249334A00F035F832483349F7
:10025000334A00F030F833483349344A00F02BF881
:1002600033483449344A00F026F8344834490022EF
:1002700000F02CF833483449002200F027F83348C6
:100280003349091A082902DB002202604160314A21
:1002900090471F481F49884205D00268043003B4C4
:1002A000904703BCF7E700208646EC46002000217B
:1002B000294A9047FEE7884207D0521A05D00378B2
:1002C00001300B700131013AF9D17047884202D0F8
:1002D00002700130FAE770470000012000E00020C2
:1002E0000000012000000120D43A0000000000209E
:1002F0003C000020D0030000D00300005C3600006A
:10030000D43A00000000002000000020B0360000B9
:10031000B0360000B0360000B0360000B036000045
:10032000B0360000B0360000B0360000D43A00000D
:10033000103B00003C0000203C0000203C0000205E
:1003400010090020100900201009002010090020C9
:10035000102900209D0300001D280000FEE7FEE795
:10036000FEE7FEE7FEE7FEE7FEE7FEE7FEE7FEE765
:1003700000F002B8FFF7FCBF0F484FF007018843B9
:1003800085460E4880470E48016841F470010160BF
:10039000BFF34F8FBFF36F8FFFF732BF09480A4992
:1003A0000A4A884207D0521A05D0037801300B70F0
:1003B0000131013AF9D1704700000120FD28000009
:1003C00088ED00E0B03600000000002000000020B2
:1003D000037813F0040216D003F00303012B03D0BB
:1003E000022B09D0012070470A6800880232C0F34E
:1003F000831002440A60F5E70B684288023303EB7E
:1004000092130B60EEE71046704700002DE9F04FA5
:10041000044685B0851C00200E46904600F068FD1D
:100420003F4A50683060936803F580731B1A924608
:1004300002F21C4602F5836902F21447AB4218D35C
:100440000023B8F1000F65D0052262F3070364F3BF
:100450008913DAF80420D1B2033115444AF8213067
:100460000020CAF8045000F045FD012005B0BDE8A9
:10047000F08F0121304600F05FFD484600F072FD2C
:10048000384600F06FFDDAF808000090C0B2033083
:100490000AEB80006946FFF79BFF009B30BBDAB296
:1004A0000AEB8202D16801919A1C0133DBB20AEB9C
:1004B00083030092D3F80CB001F00303012B21D089
:1004C000022B15D08346384600F04FFD10B1009B3B
:1004D000CAF808305946304600F02EFDDAF80830E8
:1004E000DAF8042003F580739B1AA7E7D8B2CEE7A9
:1004F000BDF806309B0903334FEA1B4B02EB930315
:100500000093E0E7BDF80430C3F383134FEA1B4BBD
:100510001344F5E7062262F3070364F39F5398E759
:100520000C01002030B50A4C71B10A4A0A49121B6D
:10053000D20800239A4201D1002030BD31F8235067
:10054000854202D00133F5E7034654F83300F4E75F
:100550005C3600008C36000000000020094B013999
:1005600003EBC000032909D8DFE801F00A02040602
:100570000420704700797047407970470020704729
:10058000022070475C360000034BD3E90130C31AE8
:1005900058425841704700BF0C0100202DE9FF412F
:1005A000FFF7F2FF0546002840F0E280714CC4F8E6
:1005B0001804BFF34F8FA0680090C0B2033004EB63
:1005C00080006946FFF704FF009B18B1D4F8182497
:1005D000002A53D0DAB2991C013304EB8202DBB259
:1005E00004EB8303D268DB68029302F00303022B5F
:1005F000019200914FD1BDF806305F484FEA931841
:100600004746502F28BF502767F38F1307F1080183
:10061000ADF8063000F0FDFE0546002800F093809E
:1006200000F026FF01A900230822284600F033FF2E
:100630000099CE43F6B20136B600C9B20331B742D3
:1006400004EB810124D908233246BF1B284600F061
:1006500022FFFFB2494906F108033A46284600F056
:100660001AFF009B08F1030803EB98030093D4F8EA
:100670001834002B43D1D4F8106453E062689A42D6
:1006800004D8A260284604B0BDE8F081D8B295E74E
:1006900008233A46E2E7012B55D1BDF8043036482D
:1006A000C3F38311062928BF062161F389130231A0
:1006B0008900ADF8043000F0ACFE0546002842D0B9
:1006C00000F0D6FE0023082201A9284600F0E3FE30
:1006D0000026BDF80420C2F38312B300964203F152
:1006E0000803C4D200994A1CC9B20331009204EB3A
:1006F00081010422284600F0CEFE0136E9E72846B3
:1007000000F0BAFEFFF740FF80F00100C5B2B9E784
:10071000F3685B7923B1336829461B6830469847F4
:10072000F3681E68002EF3D1284600F0A5FE30467F
:1007300000F0DEFBD4F818340BB9009BA360002056
:1007400000F0D8FBDEE7D4F8104454B90C4B0D4848
:100750000D49C01AC008000440F0020000F068F81B
:10076000D0E7236820469B689847E3681C68ECE75D
:10077000002587E70C0100209C36000018010020AE
:100780005C36000084360000B03600002DE9F347E7
:1007900080460F46924601A9012218469946FFF766
:1007A00035FE214D70B3019C0026A11C4E4506EB81
:1007B000010230D100211D4800F09EFB80F31000A3
:1007C000631CDBB205EB8303000440EA1840D860E9
:1007D000E3B2033315F8232068F3C50205F823209C
:1007E00035F8232066F3891225F8232055F82320B5
:1007F00067F39F2245F8232002F0F80242F001023D
:1008000005F823202B781BB1FFF7C8FE0028FBD189
:1008100002B0BDE8F087D2B205EB82025AF826306A
:10082000D3600136C2E700BF0C010020280500207C
:1008300000231A46FFF7AABF084A38B50123D2F8A9
:10084000104413701D4604B938BDE3685D71236818
:1008500020465B689847E3681C68F4E70C010020B9
:10086000037A052B10B50C460FD0437A23B1084A02
:100870000849204600F0BCFB0749204600F0B8FBC1
:100880002046BDE8104000F0A8BB002AF8D0F3E7EE
:10089000FB3600000037000055380000C38873B5F0
:1008A00004460D4633B1144A00921449144A2846AE
:1008B00000F09EFB217A05291CD0637A4BB1A088F9
:1008C000FFF74CFE0F4B104953F82020284600F04C
:1008D0008FFB227A0D4BA08853F822600021FFF78E
:1008E00021FE0B4903463246284602B0BDE870405F
:1008F00000F07EBB02B070BDFB3600000B3700007D
:1009000003370000C8360000003700003037000011
:10091000233700002DE9F04385B01F460C9D0023CE
:1009200006460C46904695F80C902B73294638469F
:10093000FFF7B4FFB8F1060F09D8DFE808F004129A
:10094000181F283340003146284600F051FB002292
:1009500029463846FFF784FF85F80C9005B0BDE8BE
:10096000F08322683146284600F042FBEFE7D4E9E5
:1009700000233146284600F03BFBE8E7A3680093DC
:100980003146D4E90023284600F032FBDFE7E36874
:100990000193A36800933146D4E90023284600F070
:1009A00027FBD4E723690293E3680193A3680093CC
:1009B0003146D4E90023284600F01AFBC7E76369F3
:1009C000039323690293E3680193A368009331467C
:1009D000D4E90023284600F00BFBB8E708292DE9ED
:1009E000F84F80460E4617461C463AD8002593F825
:1009F0000C901D7319461046FFF750FFDFF884A0D6
:100A0000DFF884B0AE422ED918F8052059462046AA
:100A100000F0EEFA0135082DF4D11849DFF86CB07A
:100A2000204600F0E5FA4FF0000A564520D918F8A4
:100A30000A507E2D03D8284602F0A4F900B92E25CD
:100A40002A465946204600F0D3FA0AF1010ABAF1C3
:100A5000080FEAD1012221463846FFF701FF84F84A
:100A60000C90BDE8F88F5146204600F0C1FAD1E75E
:100A70000349204600F0BCFAE7E700BFF636000065
:100A8000F4360000F2360000EC360000F8360000C4
:100A90007047000007B5044B0093044A402300F060
:100AA00030F803B05DF804FBB10A00002D0500200A
:100AB0002DE9F84389461446B2B10F4B0F4E03257A
:100AC000002743F00108224609EB0701002002F04D
:100AD00097F80744241A48B933782BB14FF47A4079
:100AE000C047013D02D13570BDE8F8830123337062
:100AF000002CE8D1F8E700BF903700002C0500205B
:100B00007047F0B595B01C46164608460D4600F0F5
:100B1000AFFC1A9B0D93CDE90864002423460822FC
:100B200005A928460A948DF82C400C9400F0BDFCD1
:100B3000079B0293069B03939DF814308DF8114098
:100B400003F00302012A1DD1BDF81440059EC3F332
:100B5000C203C4F383148DF81030A20008230EA939
:100B6000284600F0A2FCC6F3952608AB0093224667
:100B700002AB0EA93046FFF7CDFE284600F07CFC04
:100B800015B0F0BD022AF8D1BDF81640C3F3C20378
:100B9000A4098DF810300827082C264628BF0826FF
:100BA0003B4632460EA9284600F07FFCA41B08AB4A
:100BB00002AA31460EA83744FFF710FF002CEBD1F4
:100BC000DBE71FB50021039001AA44F20100CDE943
:100BD000011100F003F805B05DF804FB10B572B622
:100BE000FFF72AFEFFF7DAFC0028FBD1104B114C6F
:100BF0001149E41AE408240444F00100FFF718FE48
:100C00000E4B1B68DB0700D500BE0D4944F0020007
:100C1000FFF70EFEBFF34F8F0A490B4BCA6802F471
:100C2000E0621343CB60BFF34F8F00BFFDE700BF0F
:100C30005C36000084360000B4370000F0ED00E0C0
:100C4000C037000000ED00E00400FA0549B152B1E0
:100C5000531E1A4007D1826001608380C260104633
:100C600070470E2070470920704710B58468C2682D
:100C70008388121B934208D3C26813400268D15480
:100C8000C3680133C360002010BD0420FCE7826804
:100C9000C3689A420AD08268838813400268D35C92
:100CA0000B70836801338360002070470520704714
:100CB0000648074A03780749D35C012213B1043080
:100CC00001F0C8B80C3000F08FBE00BF0800002053
:100CD000A8050020980500200648074A0378074920
:100CE000D35C012213B1043001F05EB80C3000F087
:100CF00023BE00BF08000020A805002099050020A1
:100D000037B50578012D05D0002D32D0022D25D024
:100D100003B030BD037A13B9FFF7CAFFF8E74368A1
:100D20001A4C19782046FFF7A0FF80B18DF80050CB
:100D30000190174B68461B689847A168E368A28832
:100D40005B1A9A42E8D2134B01221A70E0E7A268BC
:100D5000E3689A42F1D08DF80000EAE7C3688DF8A5
:100D600000500193FFF7A4FF094B68461B689847A2
:100D7000CEE709490948FFF78AFF10B9FFF7ACFF32
:100D8000C6E703238DF80030EEE700BF74050020AE
:100D900070050020840500209905002088050020AA
:100DA000F0B51F46234B89B006461A600C46002951
:100DB0003DD08A8820480968FFF748FF002834D1D1
:100DC000A289A1681D48FFF741FF00282DD11C4DC5
:100DD0000FCD6C460FC495E80F0084E80F007369CF
:100DE0000693337C174A18488DF81C70003318BFDF
:100DF00001238DF81430737C002B14BF0E230023C5
:100E00008DF81530F3680293B36803933368019348
:100E100069467368009300F08DFB30B90B4B187076
:100E20003368013301D0FFF743FF09B0F0BD07205D
:100E3000FBE700BF70050020740500208805002036
:100E4000D0370000010D00000800002084050020BC
:100E500070B5084C014608482678FFF718FF05468C
:100E600036B100232370FFF723FF08B1FFF7A9FE77
:100E7000284670BD840500207405002010B5014689
:100E80000E48FFF7F2FE0446A8B90D480D4A037854
:100E9000D35C63B1043000F0D1FF60B90A49074860
:100EA000FFF7F5FE38B9BDE81040FFF715BF0C306D
:100EB00000F08EFDF1E7204610BD00BF8805002040
:100EC00008000020A80500209905002072B6024AFB
:100ED00013680133136070479C050020034A1368B0
:100EE000013B136003B962B6704700BF9C05002048
:100EF000FFF7ECBFFFF7F2BF50E8002F0B4640E8CA
:100F0000003C9CF0000FF7D11046704750E8003FBE
:100F100043EA010240E8002C9CF0000FF6D1104695
:100F2000704750E8002F02EA010340E8003C9CF0C3
:100F3000000FF6D11046704750E8003F03EB010266
:100F400040E8002C9CF0000FF6D11046704750E8A6
:100F5000003FA3EB010240E8002C9CF0000FF6D10B
:100F6000104670470121FFF7D1BF0021FFF7D9BF1D
:100F700038B504460020FFF7BBFF2268636811689C
:100F8000994213D9481E106011F8015CE368218A68
:100F900001FB0535A36811791B1ADBB2994200D217
:100FA00013710020FFF7A6FF284638BD0025F8E79B
:100FB00038B5054600200C46FFF79AFF2A681368EB
:100FC000591C1160E968641A298AB4FBF1F41C7099
:100FD0000020BDE83840FFF78DBF826810B5044699
:100FE0002AB143690168006998470023A36010BDD6
:100FF0000EB403B5039921B104AB01AA019300F02B
:1010000075F802B05DF804EB03B070470A2938B5F3
:1010100004460D4602D10D21FFF7F8FFA3682268B0
:10102000591CA160D554D4E901329A4204D3204618
:10103000BDE83840FFF7D1BF38BD00002DE9F84FBB
:101040009946DDE90A431746824688460A46012644
:10105000BA420FD24E4538BF4E4613F0010B01D1B4
:1010600064B900240125B9F1010F1AD909F1FF393A
:101070007D43F8E7B2FBF7F20136E9E79B070ED5AF
:10108000B9F1000F0CBF30252025A642EAD2013C61
:1010900029465046FFF7BAFF002CF6D1E1E720259C
:1010A000F3E7B8FBF5F39F42E2D9DFF83C90B8FBD9
:1010B000F5F3504619F8031005FB1388FFF7A6FF58
:1010C000B5FBF7F3BD4207D2BBF1000F02D00CB164
:1010D000A64203D3BDE8F88F1D46E8E7202150461D
:1010E000013CFFF793FFF2E7F03700002DE9F74FDF
:1010F000054617468846002900F0318118F8011B83
:1011000049B92B7B002B00F02A81284603B0BDE8AB
:10111000F04FFFF762BF252940F0C080002698F805
:1011200000302D2B424608F1010823D0302B24D06B
:101130002B2B25D000242A2B02F1010123D13B685F
:101140001A1D1B683A601C440A4613782E2B26D1C0
:1011500001324FF0000A104610F8011BA1F1300CCB
:10116000BCF1090F1DD80A2303FB0A13A3F1300AAF
:101170000246F0E746F00106D1E746F00206CEE768
:1011800046F00406CBE711F8013CA3F13000092832
:10119000DBD80A2202FB0434303C0A46CBE74FF08E
:1011A000000A12F8011B01F0FB0068289046F8D0F5
:1011B00069290ED04AD8582964D006D825296DD07F
:1011C00098F80030002B99D19BE7632962D06429FD
:1011D000F6D13A68D2F80090111D89EAE9723960B7
:1011E000A2EBE9724FF0010B092A5BDCD34538BF53
:1011F000D3462CB1B9F1000F01DB710700D5013CDA
:10120000B20702D5BAF1000F04D0F30702D4002CC4
:101210004ED10024B9F1000F52DAC9F100092D2195
:101220002846FFF7F3FE06F00302022A05D1BAF1C1
:10123000000F02D1002C47D10024CDE900465346CF
:101240000A2249462846FFF7F9FEB9E773294CD030
:1012500014D87029B4D13B681A1D3A603021284651
:101260001C68FFF7D3FE78212846FFF7CFFE002247
:101270000823CDE9003221461022E3E775292BD05F
:1012800078299DD139680A1D3A60CDE90046534658
:10129000102228E03B681A1D19783A602846FFF7AB
:1012A000B5FE8DE70A230BF1010BB2FBF3F29BE7CE
:1012B000A345AFD220212846013CFFF7A7FEA6E7B1
:1012C0007007B0D52B21ABE7A345B6D23021284615
:1012D000013CFFF79BFEADE73968CDE900460A1DEA
:1012E0003A6053460A220968ACE73B681A1D3A6027
:1012F000F107D3F8009020D4B9F1000F25D048466B
:1013000001F0D3FD0646B44200D9C4B909F1FF3952
:1013100020E028460136FFF779FE19F8061000296B
:10132000F7D1A642BFF44CAF002C3FF449AF2021C7
:101330002846013CFFF76AFEF3E70026EDE720218F
:101340002846013CFFF762FEDDE74E46DBE7284614
:10135000FFF75CFE19F8011F0029F8D130E703B050
:10136000BDE8F08F2DE9F047B0F806904479D2F847
:1013700000A09DF8208009FB04F4043C06460AEB1B
:101380000300A0420F4688BFA4EB030A191DC2F850
:1013900000A0B1FBF9F509FB15114DB9A9EB01044A
:1013A000544528BF5446BAF1000F04D1BDE8F08778
:1013B0003668013DF1E704317B1970182246B8F117
:1013C000000F0ED001461846AAEB040A01F011FDE9
:1013D000D145254436684C464FF0000128BF54469D
:1013E000E1E71946F0E7F8B546790146721E054671
:1013F000002393422D6803D30024A64202D8F8BDEF
:101400000133F6E70F682846FFF7D2FD013439466D
:10141000F3E72DE9F843068ACD1C0746FFF7A8FD40
:10142000043E35440446B5FBF6F5F0B14FF4807345
:10143000EDB28380C680013D076081464FF0000811
:10144000A84512D23846FFF793FD064648B16379A6
:101450000133637108F10108C9F800000760814693
:10146000EEE72046FFF7BFFF34462046BDE8F8838D
:1014700001210430FFF760BD10B50121044604309E
:10148000FFF765FD10F0FF0F04D12046BDE81040C6
:10149000FFF7A9BF10BD1FB503920022009203AA57
:1014A000FFF760FF05B05DF804FB1FB50392012252
:1014B000009203AAFFF756FF05B05DF804FB10B5D4
:1014C0000446C0B2FFF7DAFC204610BD1FB5037812
:1014D0008DF800304368019383688DF80830C36845
:1014E0000393054A054B684653F8213052F8211002
:1014F000984705B05DF804FBA0050020A405002076
:101500001FB503788DF800304368019383688DF828
:101510000830C3680393054A054B684653F82130E9
:1015200052F82110984705B05DF804FBA005002093
:10153000A4050020F0B5194B067891F81DE043F89A
:101540002620174B94460A6943F82620154B03F8CA
:1015500006E00C4607460FCC89B06D460FC594E8EF
:101560000F0085E80F000496BEF1000F0AD0BCF111
:10157000000F0D4A694608BF0022381D00F052FBDB
:1015800009B0F0BDBCF1000F084A694608BF00224F
:1015900007F10C0000F01CF9F2E700BFA4050020E1
:1015A000A0050020A8050020CD14000001150000B2
:1015B000014B1B68184700BFAC05002038B50B4B2A
:1015C00098420D4601D0002038BD0020FFF790FC66
:1015D000074B1C7914B901221D601A710020FFF716
:1015E00089FC002CEFD01120EEE700BF0020004066
:1015F000AC0500200023435082B043580193019B67
:1016000002B070470A4610B54FF48E71FFF7F2FF33
:10161000136A9168C95C136A01331362C0F81C1520
:1016200010BD024608B54FF492710068FFF7E2FF63
:101630004FF484711068FFF7DDFF136801221A6010
:1016400008BD8B690A4610B54FF4847123B9FFF7C2
:10165000D1FFD0F8183510BDFFF7CCFF536AD16821
:10166000D0F81805C854536A01335362F3E70000F9
:101670001FB501238DF80030044BCDE90110D3E9EB
:1016800000126846904705B05DF804FBB4050020E1
:1016900030B54D4AD2F8043313F4007F85B01546B7
:1016A0004FD0D2F82431002B4BD04FF4927110461A
:1016B000FFF7A0FF4FF40173C2F80833434B93F8D0
:1016C000291009B9012151603F4902228DF80020FB
:1016D000D1F88024C1F8802403929A690292DA68D2
:1016E00001920022C3E906226846D3E9001290471E
:1016F0003548D0F81C315BB134494A690B6A9A42CB
:101700000A464BD991F82830002B47D1FFF77AFFD2
:101710002D4AD2F8443193B14FF4A2711046FFF72D
:1017200069FF2A4B93F8291009B1012111609A69C8
:101730002AB100229A61586AD968FFF799FF05B06B
:1017400030BDD5F804335B07D2D5D5F80831002B6E
:10175000CED01E4C1C482146FFF773FF636AA26976
:101760009A422346C4D1E269E1684AB12369E36041
:101770000023606AA261E3616362FFF779FFB7E764
:1017800094F829200AB901226A600F4A4FF40170C7
:10179000C2F8080300229A61586AEEE74FF48E718E
:1017A0000948FFF727FF5369002BB1D05169029117
:1017B000002391688DF80030019153616846D2E9A9
:1017C00000139847A4E700BF00200040B4050020A4
:1017D0002DE9F843534F047991462C2202FB047201
:1017E000064692F82A200D46002A40F095804E4980
:1017F0000068FFF7E3FE8046002840F090802968EB
:101800003368481C0BD04FF0A04001228A40C0F83A
:10181000082501F5E0724FF0030C40F822C068681B
:10182000421C1FBF00F5E0724FF0A04C4FF0000EBD
:101830004CF822E0AA6995F814C0C3F824256A7D03
:10184000BCF1010F4CEA0202C3F86C25C3F8140581
:10185000C3F80C151DD1AA68511C1FBF02F5E07119
:101860004FF0A0404FF0000C40F821C0E968481C40
:101870000BD04FF0A04C01208840CCF8080501F5B2
:10188000E0704FF0030E4CF820E0C3F80815C3F8E1
:1018900010252C236343FA18C2F804902A69FA50E1
:1018A000B9F1000F20D04FF48E7130682A7FFFF716
:1018B000A1FE4FF4A2713068FFF79CFE33681B490C
:1018C000C3F804131B0B59B252010029D2B21EDB1C
:1018D0001748451885F800230122490903F01F0322
:1018E00002FA03F340F8213033680422C3F80025DC
:1018F0002C2303FB04730022C3E9062283F829206A
:101900005A61012283F82A204046BDE8F88303F09B
:101910000F030849CA54E7E74FF00808F4E74FF00F
:101920001108F1E7B40500209116000080000200C4
:1019300000E100E014ED00E02DE9F047234F0679C7
:101940004FF02C0909FB067480466569002D38D1DB
:101950006261A16025624FF48E71006884F828509E
:10196000FFF748FED8F80000012383602146FFF707
:1019700049FE6368A14633BBD8F80050D4F814A0E0
:10198000236A9A4512D8D8F80030D3F81C21002ACF
:10199000FBD00122DA6000202C2303FB0676002313
:1019A0007361BDE8F08794F8283043B9D5F81C314D
:1019B000002BF8D049462846FFF724FEE0E70F2029
:1019C000EAE71120EDE72846EBE700BFB405002069
:1019D0000379044A2C2101FB03235869003018BF06
:1019E00001207047B40500202DE9F843384E0579F1
:1019F0002C2303FB056307465C6824B103684FF49E
:101A00000170C3F808032C2303FB0563986950B1E8
:101A1000D86900283ED024B13B684FF40172C3F866
:101A20000423112034E09A61D9605862D8612C23D4
:101A300003FB056393F829301BB910B93846FFF74B
:101A4000F0FD4FF02C0909FB05683868D8F8043020
:101A5000002B34D14FF4A271FFF7CCFDC14638689A
:101A6000D0F82431D0F80821D0F84441B2B90CB9EB
:101A7000002BF4D02C2202FB05650022AA611BBBBF
:101A800024BB95F829103B680122B1B11A600020EF
:101A9000BDE8F8831961DA610120C8E7002BE9D1BC
:101AA000002CE7D14946FFF7CCFDD8F82430D8F810
:101AB00018209A42D3D82346DCE75A60E7E74FF470
:101AC0000173C0F80433E2E70320E1E70F20DFE70A
:101AD000B40500200023435082B043580193019B7A
:101AE00002B070471FB501238DF80030044BCDE9DB
:101AF0000110D3E900126846904705B05DF804FB79
:101B0000E00500207FB5454AD2F82461002E63D05D
:101B100010464FF49271FFF7DDFF02238DF800307D
:101B2000D2F88034C2F880340393D2F83C35029363
:101B30003B4BDA6801920022C3E906226846D3E9EA
:101B400000129047354AD2F844317BB14FF4A2716C
:101B50001046FFF7BFFF324B996939B10021C3E945
:101B60000611D968D2F83C05FFF7BCFF2B4AD2F822
:101B70002031B3B14FF490711046FFF7ABFF012352
:101B8000D360274B596961B1D2F84C1502910022FC
:101B900099688DF8002001915A616846D3E90012D6
:101BA00090471E4AD2F85831A3B14FF4AC71104699
:101BB000FFF790FF1A4B596961B1D2F84C150291A9
:101BC000002299688DF8002001915A616846D3E996
:101BD0000012904704B070BDD2F81031002BB1D084
:101BE0004FF488711046FFF775FF0D4BD2F83C0596
:101BF00099698842A6D1DC69D96864B1D2F80052EB
:101C000025F02005C2F800521A699C61DA60DE6195
:101C1000FFF768FF96E79C61FAE700BF00200040ED
:101C2000E00500202DE9F8435A4F06799146242219
:101C300002FB0672044692F820200D46002A40F06E
:101C4000A28055490068FFF7B9FC8046002840F0A3
:101C50009D8029682368481C0BD04FF0A0400122CA
:101C60008A40C0F8082501F5E0724FF0030C40F8F7
:101C700022C06868421C1FBF00F5E0724FF0A04C04
:101C80004FF0000E4CF822E0AA6995F814C0C3F892
:101C900024256A7DBCF1010F4CEA0202C3F86C25D1
:101CA000C3F80C15C3F814051DD1AA68511C1FBF39
:101CB00002F5E0714FF0A0404FF0000C40F821C059
:101CC000E968481C0BD04FF0A04C01208840CCF8AC
:101CD000080501F5E0704FF0030E4CF820E0C3F862
:101CE0000815C3F8102524237343FA18C2F804908A
:101CF0002A69FA50B9F1000F2FD04FF4887120688B
:101D00002A7FFFF7E7FE4FF490712068FFF7E2FEAD
:101D10004FF492712068FFF7DDFE4FF4A271206846
:101D2000FFF7D8FE4FF4AC712068FFF7D3FE2368AD
:101D30001A49C3F804131B0B59B252010029D2B23D
:101D40001CDB1748451885F800230122490903F0D8
:101D50001F0302FA03F340F8213023680822C3F876
:101D60000025242303FB06730022C3E906225A61DF
:101D7000012283F820204046BDE8F88303F00F03DA
:101D80000849CA54E9E74FF00808F4E74FF0110892
:101D9000F1E700BFE0050020051B00001003420032
:101DA00000E100E014ED00E001F06043B3F1005FFA
:101DB0002DE9F041074638D11F4B0679242505FB54
:101DC000063598466C69002C31D16A61A9600068BB
:101DD0004FF49071FFF77EFE4FF4AC713868FFF757
:101DE00079FE3B686A69A968C3F84415C3F84825B9
:101DF00001229A606A68E2B9D3F82011D3F8582119
:101E000019B9002AF8D00F2008E0002AFBD10122DE
:101E1000DA60D3F85821002AFBD00020242303FBEA
:101E2000068600237361BDE8F0811020FBE71120D6
:101E3000F9E72046F7E700BFE00500200379044AF0
:101E4000242101FB03235869003018BF012070478B
:101E5000E0050020F8B501F06043B3F1005F0446EF
:101E60000F465FD10379304D242101FB03514868AF
:101E700020B121684FF40476C1F80863242101FBE6
:101E800003539E6956B1D96900293AD020B123681D
:101E90004FF40472C3F80423112031E09A61DF602B
:101EA000DE614FF488712068FFF714FE4FF4A271D1
:101EB0002068FFF70FFE2368C3F83475C3F8382590
:101EC0001EBB01221A602179242202FB01525268B2
:101ED00012BBD3F81001D3F84421D3F824411043A6
:101EE00002D1002CF5D00246242303FB0155002328
:101EF0009C4214BF032018469A42AB6118BF0F20C2
:101F0000F8BD1F61DA610126CBE7D3F8002242F069
:101F10002002C3F80022D6E74FF40472C3F804236A
:101F20000020EDE71020EBE7E005002000F1804005
:101F300000F5C040002382B0036003680193019B59
:101F400002B07047800000F1A040D0F8003723F4C1
:101F50004033C0F80037D0F8003743EA0141C0F8F9
:101F600000177047054B4FF0FF32072843F8202039
:101F700084BF1B1883F84820704700BF0406002068
:101F800010B51A4C94F858306BBB4FF0FF3222FA60
:101F900003F1C90748BFE11803F1010348BF81F805
:101FA0003020202BF3D10021C8B2FFF7DBFF013135
:101FB0000C29F9D1042200210D4800F043FF0D4BFC
:101FC000E02283F8062340221A604FF4BE70FFF728
:101FD000ADFF094B4FF00042C3F80423012384F8FE
:101FE0005830002010BD0820FCE700BF0406002088
:101FF0005806002000E100E00060004030B52E4BA4
:102000001A1892F93040013453D18C78002C4CD0FE
:102010001C46002254F8045B013541D11C1884F899
:102020003020002443F82240920002F1804202F561
:10203000C0420B78D2F810554C7825F498151B0443
:10204000240525F4F85504F4801403F44033C2F851
:10205000105523430402D2F8105504F4F8542343D6
:102060002B43C2F810354A780123012A4FF0A042D1
:1020700003FA00F30CBFC2F80835C2F80C3500F5BE
:10208000E073032142F82310C2080C49012300F039
:10209000070003FA00F08B5C18438854002003E02B
:1020A0000132082AB6D1042030BDFE2382F8303038
:1020B000D9E70820F8E700BF0406002058060020F2
:1020C000012303FA00F04FF0A043C3F8080570475E
:1020D000012303FA00F04FF0A043C3F80C0570474A
:1020E0002DE9F34700244C4D01944FF480720121F7
:1020F00002F1804303F5C04390B21B68012B06D167
:10210000D5F804330B4202D0FFF710FF0C43043222
:10211000B2F5907F4FEA4101EAD1404B1B68012B99
:102120000CD14FF4BE70FFF701FF4FF0A04344F015
:102130000044D3F820250192C3F8202514F0FF0FA6
:102140001AD0374F00250126344210D0AB0003F1DE
:10215000804303F5C043D3F81005D3F8101557F8A2
:10216000253023B1C1F30141C0F304209847013564
:10217000082D4FEA4606E7D1002C46DA284F4FF0EB
:10218000A046DFF8A0804FF0000A4FF0010918F9CF
:10219000011B4B1C2DD0CAB222F0C00402AB03EBD2
:1021A000D40313F8041C02F0070309FA03F31942DD
:1021B0001FD004F5E073204656F82350C5F30145BF
:1021C000022D0CBF03210221FFF7BCFE09FA04F324
:1021D000C6F820353B1993F9303057F8233043B116
:1021E0009109032903D0022D12D1012901D12046E2
:1021F00098470AF1010ABAF1040FC8D1D6F8203580
:102200000193C6F82035002BBBD102B0BDE8F087A2
:10221000032DEED10229E9E7006000407C61004017
:10222000040600205406002000F1804000F5E04044
:10223000002382B0036003680193019B02B07047E2
:10224000F0B5534B534C1B6885B0002B3DD04FF479
:10225000827094F82E20FFF7E7FF2AB394F82F300E
:1022600013BB4D4B1B68002B33D04FF48070FFF72E
:10227000DBFF94F82D20638B91B28B424ED95B1A11
:1022800021899BB26383CB1A616801EB4301434B05
:10229000C3F82C16C3F830264FF48270FFF7C4FF42
:1022A0003F4B01221A6014E0636802932389ADF862
:1022B0000C30E36800218DF8041023BB23742368DD
:1022C00001A89847002384F82F3094F82E30002B73
:1022D000C7D1344B1B685BB14FF48870FFF7A4FF84
:1022E0000023237402238DF8043001A82368984743
:1022F0002D4B1B6813B34FF48A70FFF795FF002333
:10230000237405B0F0BD208B608363602081E160A1
:10231000002AD4D1214B01221A60D0E7BCD1E36856
:10232000012184F82F103BB1002161831B49C1F8C2
:102330002C36C1F83026AFE76383ADE766694FF00E
:1023400000470125002EDCD0B6FA86F227FA02F308
:102350004632920026EA030602F1804303F5E04389
:102360001B68002BEED01046FFF75EFFA2F58C72C3
:10237000D30882F00402C2F380028DF808308DF891
:1023800004508DF80920236801A89847DAE700BFB8
:1023900004710040600600200071004000700040A1
:1023A000047000401071004014710040204A38B59C
:1023B00092F82C300546002B37D111601D4900786A
:1023C000C1F8F0056878C1F8F4050124137482F8A7
:1023D0002D30536182F82F30E87882F82E006FF0AC
:1023E000004382F82C404FF48270C1F80833FFF7A5
:1023F0001BFF4FF48070FFF717FF4FF48A70FFF751
:1024000013FFAB780C485B01DBB280F80733802305
:1024100003600223C1F8043392F82E300BB1C1F8E7
:102420000443C1F80045002038BD0820FCE700BF88
:10243000600600200070004000E100E02A4B1A7C9A
:1024400070B502F0FF05002A4BD10A79012A9CBF22
:10245000264CC4F8005500F10C0503EB4504247923
:1024600024B993F82D40013483F82D4003EB450344
:10247000CC790D7A8E781C715D714B7836021B0118
:1024800006F4E06603F0300333430E7806F00306EB
:102490003343CE78360306F480563343160406F4ED
:1024A000E02633434E798979360506F4801609060D
:1024B000334301F080710B430C4901EB001600011E
:1024C00000F1804000F5E040012AC6F81835C0F858
:1024D0001455C0F8104502D80123C1F8003500207A
:1024E00000E0112070BD00BF6006002000700040B9
:1024F000344A70B5147C04F0FF03002C5FD1324CD9
:10250000012503261574C4F80863C4F82C16C4F812
:10251000305692F82D10A9420CD91C46190101F130
:10252000804101F5E0410133082BC1F81445C1F8A1
:102530001045F3D100F10C03000102EB430300F15D
:10254000804000F5E04019795B79C0F81435C0F897
:1025500010151D4901230B604B6042F2107301F509
:102560008271086808B9013BFBD14FF48070FFF716
:102570005BFE4FF48270FFF757FE92F82D30012B6F
:1025800011D9104800210B0103F1804303F5E0430A
:102590000131047F457FC3F814550829C3F810455D
:1025A00000F10200EFD192F82E10074B29B1032160
:1025B0000020C3F80413107470BD0221F8E7112045
:1025C000FAE700BF6006002000700040704700007E
:1025D0000378022B02D14068FEF7F3BA012BFAD040
:1025E000032B02BF014B00221A7070479208002093
:1025F00007B5FFF7C5FC08B1FEF7E3FA0123ADF814
:10260000043001A9002318208DF80630FFF7F6FCEE
:1026100008B1FEF7D6FA01A90D20FFF7EFFC08B1CB
:10262000FEF7CFFA01A90E20FFF7E8FC08B1FEF78C
:10263000C8FA01A90F20FFF7E1FC08B1FEF7C1FAC3
:1026400001A91020FFF7DAFC08B1FEF7BAFA01A9D8
:102650001120FFF7D3FC08B1FEF7B3FA01A912204D
:10266000FFF7CCFC08B1FEF7ACFA01A91320FFF785
:10267000C5FC08B1FEF7A5FA1320FFF721FD01A95B
:102680001420FFF7BBFC08B1FEF79BFA1420FFF7FC
:1026900017FD01A91620FFF7B1FC08B1FEF791FA6A
:1026A0001620FFF70DFD03B05DF804FB1FB50D4AC2
:1026B00010685168127A01AB03C30B491A700B48BA
:1026C00000238DF80830FFF771FE08B1FEF779FAA4
:1026D00001A90020FFF7B2FE08B1FEF772FA05B0BB
:1026E0005DF804FB1C380000CD25000043380000D5
:1026F000010770B5054616D1134C2368022B9CBF09
:10270000124AD2561046FFF7DBFC23680133022B36
:10271000C8BF002323602368022B9CBF0B4AD656F8
:102720003046FFF7D5FC002445FA04F3DB0704F13B
:102730000F0005D5FFF7C4FC0134042CF4D170BDA3
:10274000FFF7C6FCF8E700BF1C000020403800007F
:1027500010B5044610B10D20FFF7B2FC0E20FFF7B4
:10276000AFFC0E20FFF7B4FC24B10D20BDE81040F3
:10277000FFF7AEBC10BD000038B50A4C01230021A4
:1027800005462370FEF79BFE237803F0FF01002B24
:10279000FAD10123280A2370FEF791FE2378002B3B
:1027A000FCD138BD9208002040F2FE339842A8BF09
:1027B000184680B2FFF7E0BF2DE9F0414FF6FF70F9
:1027C000154DFFF7D9FF0024A0462F462046FFF7FE
:1027D0008FFF0120FFF7BCFF0020FFF7B9FF102695
:1027E00039460020FFF784FE08B1FEF7EAF9B5F993
:1027F00000300020002BB8BFA5F80080FFF7A8FF2D
:10280000B7F90000FFF7D0FF013EE9D10134302CC9
:10281000DCD1BDE8F08100BF9007002070B5204DED
:102820008AB0FFF7E5FEFFF741FF1820FFF750FCE5
:102830000FCD04AC0FC495E803001A4B1A4A00935D
:102840004FF4807384E80300CDE902230193174A13
:102850000023694604A8FEF7A3FA08B1FEF7B1F910
:10286000134C144D144E6846FEF7F2FA50B19DF821
:102870000030522B0CD1114800F08AFA002323704B
:102880008DF800502378002BEDD1FFF795FFEAE794
:10289000532BF5D1304600F07BFA0123EFE700BF60
:1028A000283800009006002092070020D125000063
:1028B000200000205738000058380000473800003A
:1028C000044B1868421C04BF034B1878831F5842FE
:1028D0005841704730010010E00F00F0064B1868B7
:1028E000083B1B78062B05D1C0F30310C31E5842CA
:1028F0005841704700207047E80F00F008B5FFF717
:10290000DFFF28B1804B814A1B68C3F304231360A7
:10291000FFF7E4FF10B17E4B7E4A1A60FFF7D0FF4D
:1029200028B17D4B7D4A1B68C3F342331360FFF728
:10293000D5FF20B17A4AD36823F08073D360FFF7C4
:10294000BFFF40B14FF080430022C3F80C21C3F811
:102950001021C3F83825FFF7C1FF10B1714B0322D6
:102960001A60FFF7BBFF40B16F4B05221A600122CE
:102970009A6700229A603F225A606C4B1A68511C79
:102980000BBF6B4B6B4B1A781B6802BF08331B687D
:10299000C3F30313062A49D1033B012B46D94FF059
:1029A0008052654BD2F80414C3F82015D2F80814ED
:1029B000C3F82415D2F80C14C3F82815D2F8101453
:1029C000C3F82C15D2F81414C3F83015D2F8181423
:1029D000C3F83415D2F81C14C3F84015D2F82014EB
:1029E000C3F84415D2F82414C3F84815D2F82814B3
:1029F000C3F84C15D2F82C14C3F85015D2F8301483
:102A0000C3F85415D2F83414C3F86015D2F838144A
:102A1000C3F86415D2F83C14C3F86815D2F8401412
:102A2000C3F86C15D2F84424C3F87025FFF748FFAB
:102A300028B1424B424A1B6803F04F031360FFF773
:102A40003FFF48B14FF08043D3F80024D20744BF82
:102A50006FF00102C3F80024344B1B68062B09D128
:102A6000344B1B68033B022B81BF364A136843F487
:102A700080631360344AD2F8883043F47003C2F89C
:102A80008830BFF34F8FBFF36F8F4FF01023D3F811
:102A90000022002A03DBD3F80432002B2FDA2B4B61
:102AA0000122C3F80425D3F80024002AFBD04FF0FC
:102AB00010221521C2F80012D3F80024002AFBD0FE
:102AC0004FF010231522C3F80422204B1A46D3F8E6
:102AD00000140029FBD00021C3F80415D2F80034FB
:102AE000002BFBD0BFF34F8F1749194BCA6802F474
:102AF000E0621343CB60BFF34F8F00BFFDE7154B80
:102B0000154A1A6008BD00BF24030010403501407B
:102B100074C007400DF0ADBA440200103C050040FF
:102B2000F0ED00E0A005004010560040300100101C
:102B3000E00F00F03401001000C000405802001007
:102B4000E40E00403C17004000ED00E000E00140D2
:102B50000400FA05240000200090D0030369C16836
:102B60008B429DBF8268D21802F1FF3203F1FF331E
:102B700094BF501A581A70472DE9F041D0E90274F9
:102B800005463E1B4068964220448846144404D9BA
:102B900000F02FF9EC60BDE8F0813246E41B00F054
:102BA00028F9224608EB06016868F1E72DE9F843A9
:102BB000C5680646894617464FF000083469B36871
:102BC0007068A54228BFE418013C621B5C1BBC4234
:102BD00028BF3C46944228BF144649462844224612
:102BE00000F007F9B3682544AB4208BF00253F1B3E
:102BF000A044A144F560E1D14046BDE8F88300005F
:102C0000F8B5184C182300FB033503FB004025449E
:102C1000C46A012C0F46164611D024B1022C1BD0D9
:102C200000242046F8BD2846FFF798FFB042F8D3AD
:102C3000324639462846FFF79FFF3446F1E72846DB
:102C4000FFF78CFF8642344628BF044622463946A9
:102C50002846FFF791FFE4E72846BDE8F840FFF774
:102C6000A5BF00BF940800207F2805D8034B185C3F
:102C7000034B5B5C18407047002070476C380000C5
:102C8000EC380000A0F16103192B98BF2038704781
:102C9000A0F14103192B98BF203070477F2805D839
:102CA000034B185C034B5B5C184070470020704777
:102CB0006C380000EC380000A0F16103192B98BFBC
:102CC00020387047A0F14103192B98BF203070477E
:102CD0007F299ABF017001206FF02E0070475AB112
:102CE0000A787F2A0AD800B1026000211960596071
:102CF000501A18BF01207047002070476FF02E0057
:102D0000704738B504460846A26842B12368616836
:102D10005D1C8D4208BF00208B4208D2D054E3686E
:102D20002BB121686268914201D2214698472368FD
:102D30000133236038BD70B54C1E09D41646C5B2A8
:102D400029463046FFF7DDFF013CB4F1FF3FF7D1E4
:102D500070BD10F0100F09D108B500F40070002804
:102D600014BF30202020FFF7E6FF08BD70470000A9
:102D700008B5034B5B689B681B68984708BD00BF9C
:102D80002800002008B50921FFF7F2FF08BD000068
:102D90000FB410B586B008AB53F8044B059300236D
:102DA00003936FF000430293084B049300F0ADF8D7
:102DB000059A214601A800F0ABF8044600F0A6F8F9
:102DC000204606B0BDE8104004B07047BF140000B4
:102DD000037853B159B10144034613F8012F12B1DE
:102DE0008B42FAD10B46181A70470346FBE703469D
:102DF000F9E7844640EA010313F0030F18D1844633
:102E0000202A0BD32DE9F007B1E8F807A0E8F8076E
:102E1000A2F12002202AF7D2BDE8F007042A07D346
:102E200051F8043B40F8043BA2F10402042AF7D213
:102E3000002A05D011F8013B00F8013B013AF9D115
:102E4000604670478446002A2DD010F0030F04D04E
:102E500000F8011B013A26D0F7E7C9B241EA012187
:102E600041EA0141202A12D3A2F120022DE9F00308
:102E70000B460C460D460E460F4688468946A0E88E
:102E8000FA03203AFBD2BDE8F00320320BD0042A2B
:102E900005D340F8041B043A05D0042AF9D200F8FF
:102EA000011B013AFBD16046704700F1010110F0AF
:102EB000030F11D010F8012B002A23D010F0030FBC
:102EC0000AD010F8012B002A1CD010F0030F03D0F9
:102ED00010F8012B002A15D02DE970004FF00132B7
:102EE0004FF0803350F8044BA4EB020525EA0405AB
:102EF0001D4000D1F6E7A0F1040070BC10F8012BD2
:102F0000002AFBD1A0EB010070477047704700001A
:102F10002DE9F04F89B007460C4603920023036069
:102F2000DFF83CB675E3002502E045F040051C469D
:102F3000234613F8010BA0F120023E2A00F29480F0
:102F400001A151F822F000BF2B2F000069300000D2
:102F50006930000045300000693000006930000031
:102F6000693000004B30000069300000693000001B
:102F70006930000057300000693000005D3000000B
:102F800069300000693000006330000069300000E3
:102F900069300000693000006930000069300000CD
:102FA00069300000693000006930000069300000BD
:102FB00069300000693000006930000069300000AD
:102FC000693000006930000069300000693000009D
:102FD000693000006930000069300000693000008D
:102FE000693000006930000069300000693000007D
:102FF000693000006930000069300000693000006D
:10300000693000006930000069300000693000005C
:10301000693000006930000069300000693000004C
:10302000693000006930000069300000693000003C
:10303000693000006930000069300000693000002C
:103040005130000045F0800571E745F400456EE71A
:1030500045F480556BE745F0200568E745F010051D
:1030600065E745F4007562E72A2821D1039A111D0E
:103070000391D2F800A0BAF1000FBCBFCAF1000A58
:1030800045F010051878A31C2AEAEA7A2E2826D0E3
:103090000021742847D07A2845D06C2800F0C480DD
:1030A0004C2800F0C780682800F0D4801C463DE022
:1030B000A0F13002D2B2092A88BF4FF0000AE3D84B
:1030C0004FF0000A0AEB8A0A303800EB4A0A13F87C
:1030D000010BA0F13002D2B2092AF3D9D4E7187853
:1030E0002A280AD1039A111D0391116858780233D6
:1030F0000029CEDB45F48075CBE70133A0F1300227
:10310000D2B2092A88BF0021F4D8002101EB810145
:10311000303800EB410113F8010BA0F13002D2B2BC
:10312000092AF3D9E4E71C4614F8010B782800F2C9
:103130008480DFE810F08A02820082008200820030
:10314000820082008200820082008200820082006F
:10315000820082008200820082008200820082005F
:10316000820082008200820082008200820082004F
:10317000820082008200820082008200820082003F
:103180009B00820082008200820082008200820016
:10319000820082008200820082008200820082001F
:1031A000820082008200820082008200820082000F
:1031B00082008200820082008200820082008200FF
:1031C00082008200820082008200820082008200EF
:1031D00082008200820082008200820082008200DF
:1031E000820082008200120182008200820082003E
:1031F000820082008200820082008200A0004801DA
:1032000082008200820082004801820082008200E7
:103210008200BA003201F60082008200CB008200F8
:1032200040018200820014011C4614F8010B45F095
:1032300001057BE745F001051C46C54B1E68002EC5
:1032400000F0E78103AB0193009153462A463946CB
:10325000B047DEE11878682803D05C1C45F004050F
:1032600064E745F008059C1C58785FE7252138463F
:10327000FFF747FDCDE1039B1A1D03921E780AF16B
:10328000FF3A3A4651462846FFF763FD3146384635
:10329000FFF737FDA94619F0100F00F0BA813A4642
:1032A00051462020FFF747FDB3E115F0080F06D087
:1032B0003A68039B191D03911B681A70A9E1039BCF
:1032C0001A1D03921B683A681A60A2E1039B1A1D3B
:1032D0000392D3F800809F4BB8F1000F08BF9846C7
:1032E000464625F4007915F4807F15D04046FFF757
:1032F0006FFD0546AAEB050A3A4651464846FFF7D8
:1033000028FD002DC7D0454416F8011B3846FFF7AD
:10331000F8FCAE42F8D1BEE74046FFF7C6FD0546D1
:10332000E8E7039B1A1D03921B6805F08002002A40
:103330000CBF4FF000084FF0230845F480760821B9
:103340001A46002B00F02F8105AB002506F4005C27
:10335000A64660468C460146D6E045F4005515F079
:10336000800F17D043F2780843F25803782818BF2B
:10337000984615F4807F3FD025F40076039B1A1DF4
:1033800003921B6816F0040F45D116F0080F43D0C6
:10339000DBB241E04FF00008EBE705F08003002BC3
:1033A0000CBF4FF000084FF0300815F4807F25D097
:1033B00025F40076E2E715F4807F21D025F400762D
:1033C0004FF00008DAE745F48046039B1A1D03928C
:1033D0001B6815F0040F17D115F0080F15D0DBB2DC
:1033E00015F0200F68D105F04005002D0CBF4FF0FF
:1033F00000084FF020080FE02E46BFE72E46BDE73D
:103400002E464FF00008B9E71BB2002BE8DA5B420A
:103410004FF02D0800E09BB216F4807F14BF26F415
:10342000007601215838202800F2BB8001A252F812
:1034300020F000BF41330000A3350000A335000099
:10344000A3350000A3350000A3350000A33500001C
:10345000A3350000A3350000A3350000A33500000C
:10346000A3350000DF340000A3350000A3350000C1
:10347000A3350000A3350000DF340000A3350000B1
:10348000A3350000A3350000A3350000A3350000DC
:10349000BF34000041330000A3350000A335000015
:1034A000A3350000A3350000DF340000A335000081
:1034B000A3350000413300004FF02B08ACE71A465B
:1034C000002553B305A8002503F00703303300F8A7
:1034D000013B0135D2081346002AF5D11DE01846FC
:1034E0000025D3B1002506F4004E4FF02C09734699
:1034F0008E46194647E002F00F00174C205C03F897
:10350000010B0135120906D00029F4D002F00F009A
:10351000124C205CF3E761467446491B21EAE179CD
:10352000AAEB090AAAEB050AB8F1FF0F3DD9AAF1E7
:10353000020A16F4007F3ED04FEA18213846FFF702
:10354000E0FB08F07F013846FFF7DBFB41E000BFFE
:103550000C090020CC3A0000AC3A0000BC3A000054
:10356000CDCCCCCC08AB03EB050CABFB0032D208C6
:1035700002EB8203A0EB430330330CF80C3C013523
:1035800009280CD910460029ECD005F00303032BC1
:10359000E8D108AB2B4403F80C9C0135E2E77146F7
:1035A000BBE70025B9E70025B7E7B8F1000F4FD119
:1035B00016F4007F0DD13A4651463046FFF7C9FB5D
:1035C000B8F1FF0F98BF4FF0000A13D8B8F1000F01
:1035D000B7D13A4651463046FFF7BBFB3A4649461B
:1035E0003020FFF7A8FB002D10DD0DF11409013D7F
:1035F0004D4403E04FF0000A9EE74546A84618F800
:1036000001193846FFF77DFB4D45F6D116F0100F36
:1036100009D114F8011B61B125293FF484AC384667
:10362000FFF76FFBF5E73A4651462020FFF783FB93
:10363000EFE7BB682BB13A6879688A423CBF00214A
:103640009954386809B0BDE8F08F4FF0FF30F9E7C2
:0C3650000AF1FF3A16F4007FB8D1ACE795
:10365C000F380000000000000038000000000000DF
:10366C0016380000000000000438000000000000C4
:10367C000938000000000000C13600000000030300
:10368C009837000000000000A43700000000002064
:10369C003C000020040100200C010020440000200C
:0436AC001800000002
:1036B0004261636B656E647320666C7573686564E4
:1036C0000061707000000000FB360000443700000D
:1036D000033700004C370000543700005C3700000F
:1036E000643700006C37000074370000202530324A
:1036F0007800202020007C002563001B5B306D00DB
:103700002573001B5B313B33316D0025734C6F67B4
:10371000732064726F707065642028256429257396
:103720000D0A003C25733E2025733A20000000005E
:1037300000000000BA3700007C370000843700002A
:10374000893700001B5B313B33306D001B5B313B25
:1037500033326D001B5B313B33336D001B5B313B00
:1037600033346D001B5B313B33356D001B5B313BEC
:1037700033366D001B5B313B33376D007761726E02
:10378000696E6700696E666F006465627567000048
:103790000338FDD870470000950A0000010B0000B7
:1037A000910A00007274745F6C6F675F6261636B93
:1037B000656E6400466174616C206572726F7200A0
:1037C00053797374656D2072657365740000000031
:1037D000FFFFFFFFFFFFFFFFFFFFFFFFFFFFFFFFF9
:1037E00000000000000000000000D60106010000FB
:1037F0003031323334353637383941424344454627
:1038000050525300554152540055415254450047BF
:1038100050494F54450053414144430000000000CB
:103820000200000200000000080000000600000086
:1038300005000000070000000000000000E0D701C4
:1038400013141601000600200D0A5220524543456C
:1038500049564544210D0A00200D0A532052454384
:103860004549564544210D0A000000002020202033
:1038700020202020206828282828202020202020E0
:103880002020202020202020202020204810101040
:103890001010101010101010101010108484848458
:1038A000848484848484101010101010108181810D
:1038B0008181810101010101010101010101010178
:1038C000010101010101011010101010108282820B
:1038D0008282820202020202020202020202020248
:1038E0000202020202020210101010200007032040
:1038F000041702010857104080000000A03A0000A1
:1039000064390000783A000053756E004D6F6E0008
:103910005475650057656400546875004672690007
:1039200053617400000000004A616E004665620049
:103930004D617200417072004D6179004A756E00F0
:103940004A756C0041756700536570004F637400E1
:103950004E6F76004465630000000000414D00504A
:103960004D0000009C3A0000983A0000983A000090
:10397000983A0000983A0000983A0000983A0000FF
:10398000983A0000983A0000983A0000FFFFFFFFC5
:10399000FFFFFFFFFFFFFFFFFFFF0000D839000020
:1039A00008390000143A0000283900005C39000092
:1039B000BC3900006C3A0000C8390000256D2F2585
:1039C000642F2579000000002561202562202565EF
:1039D000202554202559000053756E646179004DEF
:1039E0006F6E646179005475657364617900576521
:1039F000646E65736461790054687572736461798B
:103A0000004672696461790053617475726461790A
:103A1000000000004A616E7561727900466562724D
:103A200075617279004D6172636800417072696CF2
:103A3000004D6179004A756E65004A756C790041E8
:103A400075677573740053657074656D6265720097
:103A50004F63746F626572004E6F76656D6265725A
:103A600000446563656D62657200000025483A2573
:103A70004D3A255300000000692C0000852C000001
:103A8000912C00009D2C0000B92C0000C52C0000DA
:103A9000D12C0000DF2C0000000000002E000000F0
:103AA00043000000504F534958000000303132337A
:103AB00034353637383961626364656630313233A4
:103AC000343536373839414243444546286E756CA3
:043AD0006C2900005D
:103AD40000000000FF000000000000000020004083
:103AE4000000000000200040000000000200000070
:103AF400020000000090D003FC380000FC380000F5
:0C3B0400FC380000FC380000FC38000019
:040000030000037581
:00000001FF
