:1000000000000120750300005D0300005F03000095
:1000100061030000630300006503000000000000AE
:100020000000000000000000000000006703000066
:1000300069030000000000006B0300006D03000076
:100040006F0300006F030000B50E00005D2200008A
:100050006F0300006F030000E5190000451B00005E
:10006000C52100006F0300006F0300006F03000054
:100070006F0300006F0300006F0300006F030000B8
:10008000D92700006F0300006F0300006F0300001A
:100090006F0300006F0300006F0300006F03000098
:1000A0006F0300006F030000D92100006F03000000
:1000B0006F0300006F03000000000000000000005C
:1000C0006F0300006F0300006F0300006F03000068
:1000D0006F0300006F0300006F03000000000000CA
:1000E0000000000000000000000000000000000010
:1000F0000000000000000000000000000000000000
:1001000000000000000000000000000000000000EF
:1001100000000000000000000000000000000000DF
:1001200000000000000000000000000000000000CF
:1001300000000000000000000000000000000000BF
:1001400000000000000000000000000000000000AF
:10015000000000000000000000000000000000009F
:10016000000000000000000000000000000000008F
:10017000000000000000000000000000000000007F
:10018000000000000000000000000000000000006F
:10019000000000000000000000000000000000005F
:1001A000000000000000000000000000000000004F
:1001B000000000000000000000000000000000003F
:1001C000000000000000000000000000000000002F
:1001D000000000000000000000000000000000001F
:1001E000000000000000000000000000000000000F
:1001F00000000000000000000000000000000000FF
:10020000354936480A1A02D0072291438D463449AF
:1002100034480A1A06D00722914381F30988022242
:1002200082F3148830483149314A00F044F83148AB
:100230003149324A00F03FF831483249324A00F041
:100240003AF832483249334A00F035F832483349F7
:10025000334A00F030F833483349344A00F02BF881
:1002600033483449344A00F026F8344834490022EF
:1002700000F02CF833483449002200F027F83348C6
:100280003349091A082902DB002202604160314A21
:1002900090471F481F49884205D00268043003B4C4
:1002A000904703BCF7E700208646EC46002000217B
:1002B000294A9047FEE7884207D0521A05D00378B2
:1002C00001300B700131013AF9D17047884202D0F8
:1002D00002700130FAE770470000012000E00020C2
:1002E0000000012000000120743A000000000020FE
:1002F0001C000020D0030000D0030000E233000007
:10030000743A000000000020000000204834000083
:1003100048340000483400004834000048340000ED
:10032000483400004834000048340000733A0000AC
:10033000903A00001C0000201C0000201C0000203F
:10034000A80E0020A80E0020A80E0020A80E002055
:10035000A82E00209D030000212D0000FEE7FEE7EF
:10036000FEE7FEE7FEE7FEE7FEE7FEE7FEE7FEE765
:1003700000F002B8FFF7FCBF0F484FF007018843B9
:1003800085460E4880470E48016841F470010160BF
:10039000BFF34F8FBFF36F8FFFF732BF09480A4992
:1003A0000A4A884207D0521A05D0037801300B70F0
:1003B0000131013AF9D1704700000120FD2F000002
:1003C00088ED00E04834000000000020000000201C
:1003D000037813F0040216D003F00303012B03D0BB
:1003E000022B09D0012070470A6800880232C0F34E
:1003F000831002440A60F5E70B684288023303EB7E
:1004000092130B60EEE71046704700002DE9F04FA5
:10041000044685B0851C00200E46904600F090FBF7
:100420003F4A50683060936803F580731B1A924608
:1004300002F21C4602F5836902F21447AB4218D35C
:100440000023B8F1000F65D0052262F3070364F3BF
:100450008913DAF80420D1B2033115444AF8213067
:100460000020CAF8045000F06DFB012005B0BDE883
:10047000F08F0121304600F087FB484600F09AFBE0
:10048000384600F097FBDAF808000090C0B203305D
:100490000AEB80006946FFF79BFF009B30BBDAB296
:1004A0000AEB8202D16801919A1C0133DBB20AEB9C
:1004B00083030092D3F80CB001F00303012B21D089
:1004C000022B15D08346384600F077FB10B1009B15
:1004D000CAF808305946304600F056FBDAF80830C2
:1004E000DAF8042003F580739B1AA7E7D8B2CEE7A9
:1004F000BDF806309B0903334FEA1B4B02EB930315
:100500000093E0E7BDF80430C3F383134FEA1B4BBD
:100510001344F5E7062262F3070364F39F5398E759
:10052000EC000020034BD3E90130C31A5842584174
:10053000704700BFEC0000202DE9FF41FFF7F2FFFC
:100540000546002840F0E280714CC4F81804BFF35F
:100550004F8FA0680090C0B2033004EB8000694662
:10056000FFF736FF009B18B1D4F81824002A53D0A7
:10057000DAB2991C013304EB8202DBB204EB830391
:10058000D268DB68029302F00303022B0192009110
:100590004FD1BDF806305F484FEA93184746502FB9
:1005A00028BF502767F38F1307F10801ADF8063015
:1005B00000F092FB0546002800F0938000F0BBFBA2
:1005C00001A900230822284600F0C8FB0099CE4369
:1005D000F6B20136B600C9B20331B74204EB81016D
:1005E00024D908233246BF1B284600F0B7FBFFB2D0
:1005F000494906F108033A46284600F0AFFB009B44
:1006000008F1030803EB98030093D4F81834002B87
:1006100043D1D4F8106453E062689A4204D8A260CF
:10062000284604B0BDE8F081D8B295E708233A46E1
:10063000E2E7012B55D1BDF804303648C3F38311EE
:10064000062928BF062161F3891302318900ADF81C
:10065000043000F041FB0546002842D000F06BFB5F
:100660000023082201A9284600F078FB0026BDF8E7
:100670000420C2F38312B300964203F10803C4D2EC
:1006800000994A1CC9B20331009204EB8101042293
:10069000284600F063FB0136E9E7284600F04FFBEF
:1006A000FFF740FF80F00100C5B2B9E7F3685B795E
:1006B00023B1336829461B6830469847F3681E68A3
:1006C000002EF3D1284600F03AFB304600F038FA0D
:1006D000D4F818340BB9009BA360002000F032FA64
:1006E000DEE7D4F8104454B90C4B0D480D49C01A3C
:1006F000C008000440F0020000F068F8D0E723686A
:1007000020469B689847E3681C68ECE7002587E76C
:10071000EC00002034340000F8000020E433000036
:100720002C340000483400002DE9F34780460F4682
:10073000924601A9012218469946FFF767FE214D0E
:1007400070B3019C0026A11C4E4506EB010230D17E
:1007500000211D4800F0F8F980F31000631CDBB2A3
:1007600005EB8303000440EA1840D860E3B203338A
:1007700015F8232068F3C50205F8232035F8232057
:1007800066F3891225F8232055F8232067F39F226A
:1007900045F8232002F0F80242F0010205F8232078
:1007A0002B781BB1FFF7C8FE0028FBD102B0BDE8D3
:1007B000F087D2B205EB82025AF82630D3600136B8
:1007C000C2E700BFEC0000200805002000231A4605
:1007D000FFF7AABF07B5CDE9002302236A46FFF75A
:1007E000A3FF03B05DF804FB084A38B50123D2F833
:1007F000104413701D4604B938BDE3685D71236869
:1008000020465B689847E3681C68F4E7EC0000202A
:100810001FB50021039001AA44F20100CDE90111A6
:1008200000F004F805B05DF804FB000010B572B6E6
:10083000FFF7DAFFFFF780FE0028FBD1104B114CC9
:100840001149E41AE408240444F00100FFF7BEFF54
:100850000E4B1B68DB0700D500BE0D4944F00200BB
:10086000FFF7B4FFBFF34F8F0A490B4BCA6802F47E
:10087000E0621343CB60BFF34F8F00BFFDE700BFC3
:10088000E43300002C3400005D340000F0ED00E0A3
:100890006934000000ED00E00400FA0549B152B1EE
:1008A000531E1A4007D1826001608380C2601046E7
:1008B00070470E2070470920704710B58468C268E1
:1008C0008388121B934208D3C26813400268D15434
:1008D000C3680133C360002010BD0420FCE78268B8
:1008E000C3689A420AD08268838813400268D35C46
:1008F0000B708368013383600020704705207047C8
:100900000648074A03780749D35C012213B1043033
:1009100000F022BF0C3000F0E9BC00BF0000002056
:1009200044050020340500200648074A037807499B
:10093000D35C012213B1043000F0B8BE0C3000F0DB
:100940007DBC00BF000000204405002035050020CC
:1009500037B50578012D05D0002D32D0022D25D0D8
:1009600003B030BD037A13B9FFF7CAFFF8E7436855
:100970001A4C19782046FFF7A0FF80B18DF800507F
:100980000190174B68461B689847A168E368A288E6
:100990005B1A9A42E8D2134B01221A70E0E7A26870
:1009A000E3689A42F1D08DF80000EAE7C3688DF859
:1009B00000500193FFF7A4FF094B68461B68984756
:1009C000CEE709490948FFF78AFF10B9FFF7ACFFE6
:1009D000C6E703238DF80030EEE700BF10050020C6
:1009E0000C050020200500203505002024050020EE
:1009F000F0B51F46234B89B006461A600C46002905
:100A00003DD08A8820480968FFF748FF002834D184
:100A1000A289A1681D48FFF741FF00282DD11C4D78
:100A20000FCD6C460FC495E80F0084E80F00736982
:100A30000693337C174A18488DF81C70003318BF92
:100A400001238DF81430737C002B14BF0E23002378
:100A50008DF81530F3680293B368039333680193FC
:100A600069467368009300F0E7F930B90B4B1870D2
:100A70003368013301D0FFF743FF09B0F0BD072011
:100A8000FBE700BF0C050020100500202405002016
:100A900078340000510900000000002020050020EB
:100AA00070B5084C014608482678FFF718FF054640
:100AB00036B100232370FFF723FF08B1FFF7A8FE2C
:100AC000284670BD200500201005002010B5014605
:100AD0000E48FFF7F2FE0446A8B90D480D4A037808
:100AE000D35C63B1043000F02BFE60B90A490748BB
:100AF000FFF7F5FE38B9BDE81040FFF715BF0C3021
:100B000000F0E8FBF1E7204610BD00BF24050020FF
:100B100000000020440500203505002072B6024A7E
:100B2000136801331360704738050020034A1368C7
:100B3000013B136003B962B6704700BF380500205F
:100B4000FFF7ECBFFFF7F2BF50E8002F0B4640E87D
:100B5000003C9CF0000FF7D11046704750E8003F72
:100B600043EA010240E8002C9CF0000FF6D1104649
:100B7000704750E8002F02EA010340E8003C9CF077
:100B8000000FF6D11046704750E8003F03EB01021A
:100B900040E8002C9CF0000FF6D11046704750E85A
:100BA000003FA3EB010240E8002C9CF0000FF6D1BF
:100BB000104670470121FFF7D1BF0021FFF7D9BFD1
:100BC00038B504460020FFF7BBFF22686368116850
:100BD000994213D9481E106011F8015CE368218A1C
:100BE00001FB0535A36811791B1ADBB2994200D2CB
:100BF00013710020FFF7A6FF284638BD0025F8E74F
:100C000038B5054600200C46FFF79AFF2A6813689E
:100C1000591C1160E968641A298AB4FBF1F41C704C
:100C20000020BDE83840FFF78DBF2DE9F047B0F850
:100C300006904479D2F800A09DF8208009FB04F4C6
:100C4000043C06460AEB0300A0420F4688BFA4EB13
:100C5000030A191DC2F800A0B1FBF9F509FB151133
:100C60004DB9A9EB0104544528BF5446BAF1000F11
:100C700004D1BDE8F0873668013DF1E704317B1906
:100C800070182246B8F1000F0ED001461846AAEBA4
:100C9000040A02F04AFBD145254436684C464FF021
:100CA000000128BF5446E1E71946F0E7F8B5467958
:100CB0000146721E0546002393422D6803D300248B
:100CC000A64202D8F8BD0133F6E70F682846FFF7C1
:100CD00097FF01343946F3E72DE9F843068ACD1C26
:100CE0000746FFF76DFF043E35440446B5FBF6F5B5
:100CF000F0B14FF48073EDB28380C680013D076090
:100D000081464FF00008A84512D23846FFF758FF39
:100D1000064648B163790133637108F10108C9F8E7
:100D2000000007608146EEE72046FFF7BFFF34462C
:100D30002046BDE8F88301210430FFF725BF10B538
:100D4000012104460430FFF72AFF10F0FF0F04D101
:100D50002046BDE81040FFF7A9BF10BD1FB50392A4
:100D60000022009203AAFFF760FF05B05DF804FBC4
:100D700010B50D49A1F58C72914201D800200FE009
:100D80008B1ADB1003EBD3735B1002EBC30452F836
:100D90003330834205D802D204F10802ECE76068E0
:100DA00010BD2146E8E700BFC435000008B5FFF7D5
:100DB000DFFF024B002808BF184608BD983400002A
:100DC00010B50446C0B2FFF781FE204610BD0000FA
:100DD0001FB503788DF800304368019383688DF860
:100DE0000830C3680393054A054B684653F8213021
:100DF00052F82110984705B05DF804FB3C0500202F
:100E0000400500201FB503788DF80030436801933A
:100E100083688DF80830C3680393054A054B68461C
:100E200053F8213052F82110984705B05DF804FBC3
:100E30003C05002040050020F0B5194B067891F8DC
:100E40001DE043F82620174B94460A6943F82620F4
:100E5000154B03F806E00C4607460FCC89B06D46EB
:100E60000FC594E80F0085E80F000496BEF1000F4F
:100E70000AD0BCF1000F0D4A694608BF0022381D98
:100E800000F052FB09B0F0BDBCF1000F084A694602
:100E900008BF002207F10C0000F01CF9F2E700BFC8
:100EA000400500203C05002044050020D10D000035
:100EB000050E0000014B1B68184700BF48050020C5
:100EC00038B50B4B98420D4601D0002038BD0020AC
:100ED000FFF736FE074B1C7914B901221D601A7109
:100EE0000020FFF72FFE002CEFD01120EEE700BF0F
:100EF00000200040480500200023435082B04358A2
:100F00000193019B02B070470A4610B54FF48E71F1
:100F1000FFF7F2FF136A9168C95C136A0133136229
:100F2000C0F81C1510BD024608B54FF49271006858
:100F3000FFF7E2FF4FF484711068FFF7DDFF1368DD
:100F400001221A6008BD8B690A4610B54FF48471FE
:100F500023B9FFF7D1FFD0F8183510BDFFF7CCFF4C
:100F6000536AD168D0F81805C854536A01335362E4
:100F7000F3E700001FB501238DF80030044BCDE9E5
:100F80000110D3E900126846904705B05DF804FBF4
:100F90005005002030B54D4AD2F8043313F4007FD9
:100FA00085B015464FD0D2F82431002B4BD04FF4EA
:100FB00092711046FFF7A0FF4FF40173C2F8083397
:100FC000434B93F8291009B9012151603F4902228E
:100FD0008DF80020D1F88024C1F8802403929A690A
:100FE0000292DA6801920022C3E906226846D3E938
:100FF000001290473548D0F81C315BB134494A693A
:101000000B6A9A420A464BD991F82830002B47D1F7
:10101000FFF77AFF2D4AD2F8443193B14FF4A27111
:101020001046FFF769FF2A4B93F8291009B10121F7
:1010300011609A692AB100229A61586AD968FFF74B
:1010400099FF05B030BDD5F804335B07D2D5D5F88C
:101050000831002BCED01E4C1C482146FFF773FFF1
:10106000636AA2699A422346C4D1E269E1684AB13F
:101070002369E3600023606AA261E3616362FFF7B2
:1010800079FFB7E794F829200AB901226A600F4A6C
:101090004FF40170C2F8080300229A61586AEEE723
:1010A0004FF48E710948FFF727FF5369002BB1D029
:1010B00051690291002391688DF8003001915361CC
:1010C0006846D2E900139847A4E700BF002000401B
:1010D000500500202DE9F843534F047991462C2206
:1010E00002FB0472064692F82A200D46002A40F0C0
:1010F00095804E490068FFF7E3FE8046002840F0E7
:10110000908029683368481C0BD04FF0A040012222
:101110008A40C0F8082501F5E0724FF0030C40F852
:1011200022C06868421C1FBF00F5E0724FF0A04C5F
:101130004FF0000E4CF822E0AA6995F814C0C3F8ED
:1011400024256A7DBCF1010F4CEA0202C3F86C252C
:10115000C3F81405C3F80C151DD1AA68511C1FBF94
:1011600002F5E0714FF0A0404FF0000C40F821C0B4
:10117000E968481C0BD04FF0A04C01208840CCF807
:10118000080501F5E0704FF0030E4CF820E0C3F8BD
:101190000815C3F810252C236343FA18C2F80490ED
:1011A0002A69FA50B9F1000F20D04FF48E713068DF
:1011B0002A7FFFF7A1FE4FF4A2713068FFF79CFE73
:1011C00033681B49C3F804131B0B59B252010029A1
:1011D000D2B21EDB1748451885F8002301224909C1
:1011E00003F01F0302FA03F340F8213033680422AE
:1011F000C3F800252C2303FB04730022C3E9062255
:1012000083F829205A61012283F82A204046BDE84C
:10121000F88303F00F030849CA54E7E74FF00808C2
:10122000F4E74FF01108F1E750050020950F00009A
:101230008000020000E100E014ED00E02DE9F0473D
:10124000234F06794FF02C0909FB06748046656927
:10125000002D38D16261A16025624FF48E71006863
:1012600084F82850FFF748FED8F800000123836077
:101270002146FFF749FE6368A14633BBD8F800500A
:10128000D4F814A0236A9A4512D8D8F80030D3F8BD
:101290001C21002AFBD00122DA6000202C2303FB52
:1012A000067600237361BDE8F08794F8283043B9CF
:1012B000D5F81C31002BF8D049462846FFF724FE0C
:1012C000E0E70F20EAE71120EDE72846EBE700BF53
:1012D000500500200379044A2C2101FB032358699F
:1012E000003018BF01207047500500202DE9F84359
:1012F000384E05792C2303FB056307465C6824B14F
:1013000003684FF40170C3F808032C2303FB056343
:10131000986950B1D86900283ED024B13B684FF499
:101320000172C3F80423112034E09A61D960586235
:10133000D8612C2303FB056393F829301BB910B93E
:101340003846FFF7F0FD4FF02C0909FB05683868B7
:10135000D8F80430002B34D14FF4A271FFF7CCFD44
:10136000C1463868D0F82431D0F80821D0F844417B
:10137000B2B90CB9002BF4D02C2202FB0565002277
:10138000AA611BBB24BB95F829103B680122B1B1AF
:101390001A600020BDE8F8831961DA610120C8E70E
:1013A000002BE9D1002CE7D14946FFF7CCFDD8F856
:1013B0002430D8F818209A42D3D82346DCE75A6064
:1013C000E7E74FF40173C0F80433E2E70320E1E7F5
:1013D0000F20DFE7500500200023435082B0435820
:1013E0000193019B02B070471FB501238DF80030B7
:1013F000044BCDE90110D3E900126846904705B0CF
:101400005DF804FB7C0500207FB5454AD2F82461D5
:10141000002E63D010464FF49271FFF7DDFF0223D8
:101420008DF80030D2F88034C2F880340393D2F8BB
:101430003C3502933B4BDA6801920022C3E9062255
:101440006846D3E900129047354AD2F844317BB15F
:101450004FF4A2711046FFF7BFFF324B996939B1C3
:101460000021C3E90611D968D2F83C05FFF7BCFF9B
:101470002B4AD2F82031B3B14FF490711046FFF7E8
:10148000ABFF0123D360274B596961B1D2F84C15EA
:101490000291002299688DF8002001915A616846F6
:1014A000D3E9001290471E4AD2F85831A3B14FF445
:1014B000AC711046FFF790FF1A4B596961B1D2F831
:1014C0004C150291002299688DF8002001915A6113
:1014D0006846D3E90012904704B070BDD2F81031CD
:1014E000002BB1D04FF488711046FFF775FF0D4BFC
:1014F000D2F83C0599698842A6D1DC69D96864B103
:10150000D2F8005225F02005C2F800521A699C61F9
:10151000DA60DE61FFF768FF96E79C61FAE700BFDB
:10152000002000407C0500202DE9F8435A4F067941
:101530009146242202FB0672044692F820200D46B2
:10154000002A40F0A28055490068FFF7B9FC8046A8
:10155000002840F09D8029682368481C0BD04FF07C
:10156000A04001228A40C0F8082501F5E0724FF042
:10157000030C40F822C06868421C1FBF00F5E072EF
:101580004FF0A04C4FF0000E4CF822E0AA6995F8FD
:1015900014C0C3F824256A7DBCF1010F4CEA020295
:1015A000C3F86C25C3F80C15C3F814051DD1AA683F
:1015B000511C1FBF02F5E0714FF0A0404FF0000C2E
:1015C00040F821C0E968481C0BD04FF0A04C012026
:1015D0008840CCF8080501F5E0704FF0030E4CF898
:1015E00020E0C3F80815C3F8102524237343FA1824
:1015F000C2F804902A69FA50B9F1000F2FD04FF4C5
:10160000887120682A7FFFF7E7FE4FF49071206809
:10161000FFF7E2FE4FF492712068FFF7DDFE4FF412
:10162000A2712068FFF7D8FE4FF4AC712068FFF775
:10163000D3FE23681A49C3F804131B0B59B2520195
:101640000029D2B21CDB1748451885F80023012277
:10165000490903F01F0302FA03F340F8213023681D
:101660000822C3F80025242303FB06730022C3E9E4
:1016700006225A61012283F820204046BDE8F88303
:1016800003F00F030849CA54E9E74FF00808F4E7EC
:101690004FF01108F1E700BF7C050020091400009D
:1016A0001003420000E100E014ED00E001F06043AF
:1016B000B3F1005F2DE9F041074638D11F4B0679A1
:1016C000242505FB063598466C69002C31D16A61EA
:1016D000A96000684FF49071FFF77EFE4FF4AC7183
:1016E0003868FFF779FE3B686A69A968C3F8441552
:1016F000C3F8482501229A606A68E2B9D3F820113C
:10170000D3F8582119B9002AF8D00F2008E0002A90
:10171000FBD10122DA60D3F85821002AFBD0002047
:10172000242303FB068600237361BDE8F0811020AB
:10173000FBE71120F9E72046F7E700BF7C05002012
:101740000379044A242101FB03235869003018BFA0
:10175000012070477C050020F8B501F06043B3F12B
:10176000005F04460F465FD10379304D242101FB11
:101770000351486820B121684FF40476C1F808632A
:10178000242101FB03539E6956B1D96900293AD03F
:1017900020B123684FF40472C3F80423112031E010
:1017A0009A61DF60DE614FF488712068FFF714FEF4
:1017B0004FF4A2712068FFF70FFE2368C3F8347559
:1017C000C3F838251EBB01221A602179242202FBAE
:1017D0000152526812BBD3F81001D3F84421D3F858
:1017E0002441104302D1002CF5D00246242303FBF0
:1017F000015500239C4214BF032018469A42AB6156
:1018000018BF0F20F8BD1F61DA610126CBE7D3F8BE
:10181000002242F02002C3F80022D6E74FF40472FF
:10182000C3F804230020EDE71020EBE77C0500203F
:1018300000F1804000F5C040002382B003600368DF
:101840000193019B02B07047800000F1A040D0F8E6
:10185000003723F44033C0F80037D0F8003743EAAC
:101860000141C0F800177047054B4FF0FF320728C1
:1018700043F8202084BF1B1883F84820704700BF1E
:10188000A005002010B51A4C94F858306BBB4FF0EF
:10189000FF3222FA03F1C90748BFE11803F101033F
:1018A00048BF81F83020202BF3D10021C8B2FFF7C8
:1018B000DBFF01310C29F9D1042200210D4801F090
:1018C0005DFD0D4BE02283F8062340221A604FF4A1
:1018D000BE70FFF7ADFF094B4FF00042C3F8042381
:1018E000012384F85830002010BD0820FCE700BF19
:1018F000A0050020F405002000E100E000600040A9
:1019000030B52E4B1A1892F93040013453D18C78EF
:10191000002C4CD01C46002254F8045B013541D108
:101920001C1884F83020002443F82240920002F171
:10193000804202F5C0420B78D2F810554C7825F45D
:1019400098151B04240525F4F85504F4801403F4B9
:101950004033C2F8105523430402D2F8105504F462
:10196000F85423432B43C2F810354A780123012A47
:101970004FF0A04203FA00F30CBFC2F80835C2F8DA
:101980000C3500F5E073032142F82310C2080C491E
:10199000012300F0070003FA00F08B5C1843885421
:1019A000002003E00132082AB6D1042030BDFE2316
:1019B00082F83030D9E70820F8E700BFA005002002
:1019C000F4050020012303FA00F04FF0A043C3F810
:1019D00008057047012303FA00F04FF0A043C3F855
:1019E0000C0570472DE9F34700244C4D01944FF44A
:1019F0008072012102F1804303F5C04390B21B685D
:101A0000012B06D1D5F804330B4202D0FFF710FFAB
:101A10000C430432B2F5907F4FEA4101EAD1404BCA
:101A20001B68012B0CD14FF4BE70FFF701FF4FF084
:101A3000A04344F00044D3F820250192C3F82025A8
:101A400014F0FF0F1AD0374F00250126344210D072
:101A5000AB0003F1804303F5C043D3F81005D3F87E
:101A6000101557F8253023B1C1F30141C0F304200C
:101A700098470135082D4FEA4606E7D1002C46DA93
:101A8000284F4FF0A046DFF8A0804FF0000A4FF03B
:101A9000010918F9011B4B1C2DD0CAB222F0C00459
:101AA00002AB03EBD40313F8041C02F0070309FA9A
:101AB00003F319421FD004F5E073204656F8235073
:101AC000C5F30145022D0CBF03210221FFF7BCFE27
:101AD00009FA04F3C6F820353B1993F9303057F86A
:101AE000233043B19109032903D0022D12D10129DA
:101AF00001D1204698470AF1010ABAF1040FC8D172
:101B0000D6F820350193C6F82035002BBBD102B0A2
:101B1000BDE8F087032DEED10229E9E7006000401F
:101B20007C610040A0050020F005002000F180400D
:101B300000F5E040002382B0036003680193019B3D
:101B400002B07047F0B5534B534C1B6885B0002B67
:101B50003DD04FF4827094F82E20FFF7E7FF2AB3B0
:101B600094F82F3013BB4D4B1B68002B33D04FF430
:101B70008070FFF7DBFF94F82D20638B91B28B42CE
:101B80004ED95B1A21899BB26383CB1A616801EB42
:101B90004301434BC3F82C16C3F830264FF4827030
:101BA000FFF7C4FF3F4B01221A6014E06368029301
:101BB0002389ADF80C30E36800218DF8041023BBB5
:101BC0002374236801A89847002384F82F3094F8E1
:101BD0002E30002BC7D1344B1B685BB14FF488709B
:101BE000FFF7A4FF0023237402238DF8043001A81B
:101BF000236898472D4B1B6813B34FF48A70FFF787
:101C000095FF0023237405B0F0BD208B60836360D3
:101C10002081E160002AD4D1214B01221A60D0E753
:101C2000BCD1E368012184F82F103BB1002161830E
:101C30001B49C1F82C36C1F83026AFE76383ADE706
:101C400066694FF000470125002EDCD0B6FA86F217
:101C500027FA02F34632920026EA030602F1804395
:101C600003F5E0431B68002BEED01046FFF75EFF44
:101C7000A2F58C72D30882F00402C2F380028DF8C0
:101C800008308DF804508DF80920236801A8984782
:101C9000DAE700BF04710040FC050020007100403D
:101CA000007000400470004010710040147100404A
:101CB000204A38B592F82C300546002B37D11160F8
:101CC0001D490078C1F8F0056878C1F8F4050124D1
:101CD000137482F82D30536182F82F30E87882F83F
:101CE0002E006FF0004382F82C404FF48270C1F850
:101CF0000833FFF71BFF4FF48070FFF717FF4FF417
:101D00008A70FFF713FFAB780C485B01DBB280F8F9
:101D10000733802303600223C1F8043392F82E3086
:101D20000BB1C1F80443C1F80045002038BD0820BC
:101D3000FCE700BFFC0500200070004000E100E06F
:101D40002A4B1A7C70B502F0FF05002A4BD10A79A4
:101D5000012A9CBF264CC4F8005500F10C0503EB8A
:101D60004504247924B993F82D40013483F82D409B
:101D700003EB4503CC790D7A8E781C715D714B783D
:101D800036021B0106F4E06603F0300333430E789D
:101D900006F003063343CE78360306F48056334309
:101DA000160406F4E02633434E798979360506F4A5
:101DB00080160906334301F080710B430C4901EB97
:101DC0000016000100F1804000F5E040012AC6F84D
:101DD0001835C0F81455C0F8104502D80123C1F8D1
:101DE0000035002000E0112070BD00BFFC05002080
:101DF00000700040344A70B5147C04F0FF03002CDE
:101E00005FD1324C012503261574C4F80863C4F869
:101E10002C16C4F8305692F82D10A9420CD91C4645
:101E2000190101F1804101F5E0410133082BC1F8AE
:101E30001445C1F81045F3D100F10C03000102EB89
:101E4000430300F1804000F5E04019795B79C0F868
:101E50001435C0F810151D4901230B604B6042F288
:101E6000107301F58271086808B9013BFBD14FF48A
:101E70008070FFF75BFE4FF48270FFF757FE92F819
:101E80002D30012B11D9104800210B0103F18043A3
:101E900003F5E0430131047F457FC3F81455082959
:101EA000C3F8104500F10200EFD192F82E10074B55
:101EB00029B103210020C3F80413107470BD02215E
:101EC000F8E71120FAE700BFFC0500200070004091
:101ED0001FB503788DF800308388ADF8043083682F
:101EE0008DF80630C3688DF80730036902934369A3
:101EF0000393054A054B684653F8213052F82110E8
:101F0000984705B05DF804FB2C060020340600203D
:101F1000024B4FF4807043F00103184780390000F2
:101F20002DE9F04791460778324A42F82790324A25
:101F300042F827304B7B80460C4663B308684968FB
:101F400082008B0002F1A04203F1A04340F20C6535
:101F5000C2F800570126C3F800574FF0A04506FA13
:101F600000F006FA01F1C5F80805C5F8081540F2B9
:101F70000D61C2F80017C3F80017FFF7C9FF4FF053
:101F8000000AD5F81025636822FA03F3DB070FD5A2
:101F9000BAF1000F1FD1B9F1000F3B46174A214695
:101FA00008F1040008BF0022BDE8F04700F018BAAD
:101FB000236806FA03F3C5F80C35FFF7A9FF236879
:101FC00006FA03F3C5F808350AF1010AFFF7A0FF86
:101FD000BAF1090FD5D1636801254FF0A04605FA83
:101FE00003F3C6F80C35FFF793FF63689D40C6F80E
:101FF0000855D0E7340600202C060020D11E000032
:102000002DE9F347002406460F46904600F5A075DB
:102010004FF48039A2462B688BB1D6F8043309FA05
:1020200004F21A420BD0C5F800A02B680193A0005F
:1020300000F5A070019B80B2D7E9003198470134C8
:10204000A04505F10405E6D102B0BDE8F087000027
:10205000F7B506792E4D0C237343EF183C7A002C0C
:1020600053D1EA504B687B60477903682246A44607
:10207000D4B2A7423AD81B0BCA785CB25201002CEA
:10208000D2B23DDB234F07EB040C8CF80023012276
:10209000640903F01F0302FA03F347F824300368CE
:1020A0004A78D3F8040502F0030220F0030002434B
:1020B000C3F80425D3F808058A7820F0030002F05D
:1020C00003020243C3F80825D3F810050A7820F06C
:1020D0000F0002F00F020243C3F810250C2303FB8C
:1020E000065501232B72002003B0F0BD940004F5C7
:1020F000A074013243F804C01C590194019CB7E755
:1021000003F00F03044CE254C9E70820ECE700BFDA
:102110003C06002000E100E014ED00E0036801222D
:102120001A600379034A0C2101FB032302221A726D
:10213000704700BF3C0600200368044901221A6171
:1021400003790C2000FB03131A7270473C06002031
:102150000379044A0C2101FB0323187A831E584299
:10216000584170473C06002037B54FF480348C400E
:1021700000687BB18B0003F5A0730025C550C358E0
:102180000193019BC0F8044301F5A87140F8212098
:1021900003B030BDC0F80843F6E770B4046840F2FD
:1021A0000116D4F800528E4025EA0605C4F8005204
:1021B000D4F800522B43C4F800329DF80C3070BCA8
:1021C000FFF7D2BF042202490248FFF719BF00BF40
:1021D0003C06002000800040062202490248FFF72A
:1021E0000FBF00BF4806002000A00140002343505D
:1021F00082B043580193019B02B070470B7B032BC5
:102200002AD8DFE803F022261A028B685A0304D585
:10221000D0F84C350A699A4207D18B685B031BD40E
:10222000D0F84C354A699A4216D000230622C0F8ED
:102230000035C0F8002518467047D0F84C350A69BB
:102240009A42F2D1D0F83C35ECE7D0F84C350A6927
:10225000E9E7D0F83C35FAE701207047F0B55B4A72
:102260005B4CD2F8243187B01546FBB14FF4927124
:102270001046FFF7BBFFD2F80431BBB9A368C2F820
:1022800008330223A360A368C2F80433D2F8603194
:102290001BB1D2F800329F0503D44C4B01221A62C5
:1022A0005A61012384F82E3007B0F0BDD5F804310F
:1022B000002B52D04FF482714448FFF797FF236AF6
:1022C0005E060AD494F82E303BB941493F48FFF7E7
:1022D00095FF80F0010084F82E00236A5D0721D469
:1022E0003C4E0FCE01AD0FC5336838482B604FF41C
:1022F000B071FFF77BFF4FF4AE713448FFF776FF04
:1023000094F8303013B194F82E305BB12F4B00228B
:10231000C3F80022A260304AC3F808232F4B0822DA
:10232000C3F88021294AD2F8C434C2F8C4349807CB
:102330003DD501238DF8003094F830300BB984F886
:102340002F30236A5B0703D594F82E30002BABD0D7
:10235000D4E9003168469847A6E74FF4A4711B48BA
:10236000FFF744FF237B83B91A4F0FCF01AE0FC68F
:102370003B68336094F83030002BD3D1C5F800327D
:10238000A360154BC5F80833C8E74FF40073C5F8D0
:10239000003240F20223A36003F1CE73C5F8083384
:1023A000A368C5F804330123AB602B627CE75907AF
:1023B00001D50223BEE7DA0701D50323BAE794F873
:1023C0002E30002BB6D00423B4E700BF003000400D
:1023D000540600206006002002029C0100E100E09B
:1023E0002DE9F84F0579304C4FF0340808FB05F81B
:1023F00004EB08069B4696F82D3081460F46924620
:10240000002B4CD129490068FEF75AFD002848D11D
:1024100039687B7B86F8323001F5E0724FF0A043DB
:10242000B060C6F804B086F82F0086F8300040F29D
:102430000C6644F808A043F822607A6802F5E07C54
:1024400043F82C60D9F80030C3F80815C3F80C2500
:10245000BA68C3F82425BAF1000F13D01B0B3A7BDE
:1024600059B252010029DBB2D2B213DB104E7718F9
:1024700087F800230122490903F01F0302FA03F33E
:1024800046F82130342303FB0544012384F82D3022
:10249000BDE8F88F03F00F030649CA54F2E708209D
:1024A000F6E71120F4E700BF540600205D2200008B
:1024B00000E100E014ED00E0026803790621C2F8B3
:1024C0000015044A342101FB0323022283F82D2046
:1024D000704700BF540600202DE9F843B14F90F833
:1024E00004900468342606FB0976002386F82E3013
:1024F000CB6803F06043B3F1005F0D46904603D014
:1025000010263046BDE8F883A74BC4F8083396F888
:102510002F3023B1B368C4F804331126F1E712F069
:10252000140F0CBF0123002386F82F308E46BEE81F
:102530000F0006F10C0CACE80F00DEF80030CCF810
:102540000030C8F3001386F83030C6F820806B786E
:10255000C4F8883520464FF48271FFF747FE4FF4E8
:102560009271FFF743FE4FF4B071FFF73FFE4FF457
:10257000A471FFF73BFE18F0010318BF0123C4F854
:10258000503518F0020318BF0123C4F840352B78EA
:10259000032B00F2B480DFE803F0839F68022B690D
:1025A00003F06043B3F1005FAAD14FF48073C4F825
:1025B0000032EA686B68C4F844254FF4A871C4F887
:1025C0004835FFF713FE01232362A360D4F850318E
:1025D000002BFBD04FF4A8712046FFF707FEAB6835
:1025E0002A69C4F84425C4F84835342303FB097329
:1025F0004FF480229A600823002618F0080F04D1B7
:102600002A78032A1CBF0122E250342303FB09F37A
:10261000FA18FB58002B75D10125D4F84821D4F8BD
:102620000431002B40F08880003218BF0122D4F81A
:102630002431002B00F087804FF492712046FFF781
:10264000D5FDD4F86011D4F8003209B1980504D44E
:10265000256265610029E0D00022DB0573D54FF4C7
:10266000A4712046FFF7C2FDD7E76B68EA68C4F89B
:102670004425C4F848352B6903F06042B2F1005F8D
:102680007FF43EAFAA68C4F834354FF48453C4F8DD
:102690003825C4F80032342303FB0973022212E008
:1026A0006B68EA68C4F8442518F0200FC4F8483570
:1026B0004FF034030BD04FF48072C4F8002203FBB8
:1026C00009734FF480229A600123236293E74FF449
:1026D0000072C4F80022DFE76B68EA68C4F83425AA
:1026E000C4F838354FF48053C4F80032342303FB68
:1026F000097302229A600123236200237CE70823E6
:1027000007267AE718F0040F1CBF0023936018F027
:10271000400F06D1342303FB09739A6842F002028A
:102720009A60342303FB0977BB6843F40073BB60F2
:10273000BB68C4F80433E4E64FF482712046FFF727
:1027400055FD012273E7002A3FF467AF3421D4F826
:10275000C434C4F8C43401FB0972002082F82F008D
:1027600093B113F0010F14BF4FF40246032648F251
:10277000012213F0020F18BF164613F0040F48F29F
:10278000022318BF1E46BCE618F0400F7FF4B9AE16
:1027900009FB01712046FFF731FD002808BF032621
:1027A000AFE600BF5406002002029C0110B586B0BF
:1027B0000024CDE902349DF820308DF80510A342A5
:1027C000CDE9042401A914BF202222468DF804403B
:1027D000FFF782FE06B010BD13B5064C23683BB16F
:1027E000054B1B6898470023236023680193019BD6
:1027F00002B010BD000101408C060020F8B51E4B50
:102800001E4C19601E4BE41A1E4B1D78E408064648
:10281000240425BB1C4F01221A700378C7F80C351D
:1028200041684FF47A720023C803490C00F016FD8A
:10283000C7F80405337A154A5B01DBB282F810331E
:102840004FF4803313602846FEF7B0FA104A11495E
:10285000034644F00300FDF7BDFF2846F8BD0820FD
:10286000FEF7A4FA0A4A0B49034644F00200FDF7BA
:10287000B1FF0820F2E700BF8C06002024340000DE
:10288000E4330000890600200000014000E100E080
:1028900095390000C3390000084B09480949012255
:1028A000C3F804231A60084B02221A70074BC01A9F
:1028B000C008000440F00300FDF788BF000001409D
:1028C00024340000BA39000089060020E4330000F7
:1028D00038B504460020FEF733F9134B1A78072A5F
:1028E0001FD8511C197011492270D1F80805012315
:1028F00093400343C1F8083500250020FEF722F974
:102900002846FEF753FA0A4C0A4B0B4A0B49E41AC5
:10291000E4082404034644F00300FDF75BFF284667
:1029200038BD0425E9E700BF88060020000001400B
:1029300024340000E4330000A3390000C339000050
:1029400000F5C070024B034A43F82020704700BFD7
:10295000000001403546526E704700000378022B9C
:1029600002D14068FDF754BF012BFAD0032B02BF00
:10297000014B00221A707047980E002000F0FDBA3B
:10298000094A1368B0F5A07F03F10101116009D174
:102990000520B3FBF0F000EB8000181AC0F1040032
:1029A00000F0CCBA704700BF90060020024B4FF4F5
:1029B000C85043F001031847303A000007B5FEF74E
:1029C00061FF08B1FDF724FF0123ADF8043001A930
:1029D000002318208DF80630FEF792FF08B1FDF7AE
:1029E00017FF01A90D20FEF78BFF08B1FDF710FFBF
:1029F00001A90E20FEF784FF08B1FDF709FF01A928
:102A00000F20FEF77DFF08B1FDF702FF01A910209E
:102A1000FEF776FF08B1FDF7FBFE01A91120FEF7D6
:102A20006FFF08B1FDF7F4FE01A91220FEF768FF61
:102A300008B1FDF7EDFE01A91320FEF761FF08B113
:102A4000FDF7E6FE1320FEF7BDFF01A91420FEF7F7
:102A500057FF08B1FDF7DCFE1420FEF7B3FF01A914
:102A60001620FEF74DFF08B1FDF7D2FE1620FEF747
:102A7000A9FF01A91520FEF743FF08B1FDF7C8FE25
:102A80001520FEF79FFF01A90420FEF739FF08B1CA
:102A9000FDF7BEFE0420FEF79DFF03B05DF804FBCA
:102AA0001FB50F4A10685168127A01AB03C31A7040
:102AB00040F20713ADF806300A490B4800238DF8A1
:102AC0000830FFF7F5F808B1FDF7A2FE01A90020D4
:102AD000FFF736F908B1FDF79BFE05B05DF804FB82
:102AE000E8390000592900002C3A0000010770B5B0
:102AF000054616D1134C2368022B9CBF124AD256AE
:102B00001046FEF75FFF23680133022BC8BF002386
:102B100023602368022B9CBF0B4AD6563046FEF733
:102B200059FF002445FA04F3DB0704F10F0005D533
:102B3000FEF748FF0134042CF4D170BDFEF74AFFC4
:102B4000F8E700BF14000020203A000010B504464A
:102B500010B10D20FEF736FF0E20FEF733FF0E20DA
:102B6000FEF738FF24B10D20BDE81040FEF732BF5C
:102B700010BD000010B5054C012300212370FEF7A5
:102B80001FF92378002BFCD110BD00BF980E002048
:102B9000FF2808BFFE20FFF7EDBF00002DE9F74F2B
:102BA0004D4B00931A780AB100F0E7F918204B4E0C
:102BB000DFF83081FEF70EFF00253746AB4644466E
:102BC0002846FFF793FF0120FFF7C0FF0020FFF723
:102BD000BDFFFFF7EBFEBA464FF000090420FEF7F9
:102BE000F1FE21460020FFF705F908B1FDF710FEC0
:102BF0000420FEF7EFFEB8F90030002BB8BFA8F8AC
:102C000000B023780193002009F10109FFF79EFF2E
:102C1000FFF7CCFE019B0AF8013BB9F1100FDDD1A3
:102C20000135302D07F11007CAD11820FEF7CAFE72
:102C3000009B1B780BB100F0B1F90025284FAB4683
:102C40002846FFF753FF0120FFF780FF0020FFF722
:102C50007DFFFFF7ABFEB9464FF000080420FEF7FA
:102C6000B1FE20490020FFF7C5F808B1FDF7D0FDFF
:102C70000420FEF7AFFEB4F90030002BB8BFA4F873
:102C800000B0002008F1010894F800A0FFF75EFFF3
:102C9000FFF78CFEB8F1100F09F801ABDED101355A
:102CA000302D07F11007CBD1FF20FFF763FF602520
:102CB0003746102417F8010B013CFFF769FF14F0A9
:102CC000FF04F7D1013D15F0FF0506F11006EFD125
:102CD00003B0BDE8F08F00BF9406002095060020E9
:102CE00095090020960D002008B50648FFF730FA38
:102CF00030B9054B18600348BDE80840FFF70EBA2D
:102D000008BD00BF243A00009006002008B5034823
:102D1000FFF712FABDE8084000F040B9243A00007D
:102D200070B58EB0FFF74AFE08AEFFF7B9FE3E4B16
:102D3000089330463D4B099300F0C2F808B1FDF707
:102D400067FD3B4B3B4A93E8030086E803003146AE
:102D50003948FFF77DF908B1FDF75AFD374B38497F
:102D6000D3F81025374D34480123D2B221FA02F2AC
:102D700000930021FFF711FA0FCD34460FC495E8F8
:102D80000300314B314A049384E803004FF480730D
:102D900004ACCDE9062305932D4A0723214630468E
:102DA000FDF726FE08B1FDF733FD2A4B93E8070037
:102DB00084E8070028492046FFF720FD08B1FDF709
:102DC00027FD2648FFF784FD08B1FDF721FDFFF739
:102DD00063FD224E224D234C3078FFF7B1FD0DF1FB
:102DE0000F00FDF75DFE0028F6D09DF80F30532B45
:102DF00004D1FFF7D3FE8DF80F50EDE74D2BFAD03D
:102E0000432B02D1FFF770FFF5E7442B02D1FFF708
:102E10007DFFF0E7582B02D101232370EBE7592BFC
:102E2000E9D10023F9E700BF383A0000483A000032
:102E3000F439000081290000243A0000008000409D
:102E400000127A00FC390000960C0020980D00203A
:102E50005D290000143A00007D290000950C002037
:102E6000723A0000940600201FB5134604468DF800
:102E70000C10012219460DF10D0000F056FA0C4B12
:102E80001868002300932146022303AA0430FFF7A9
:102E90008DFC044648B10748074B0849C01AC008D2
:102EA000000440F00100FDF791FC204604B010BD85
:102EB0009C0E00202C340000E4330000583A00003F
:102EC00013B51D4C28B14368636003682360012378
:102ED000237200231A46D4E90001FFF721F808B154
:102EE000FDF796FC20680430FFF7E6FA00240DF1A8
:102EF00007024F2120208DF80740FFF7B5FF08B1EA
:102F0000FDF786FC0DF10702032120208DF8074014
:102F1000FFF7AAFF08B1FDF77BFC00230DF10702C4
:102F2000012120208DF80730FFF79EFF08B1FDF743
:102F30006FFC002002B010BD9C0E002013B50023D2
:102F400004460DF10602012120208DF80630FFF71E
:102F50008BFF08B1FDF75CFC012101FA04F40DF1CF
:102F6000070220208DF80740FFF77EFF044608B1D6
:102F7000FDF74EFC204602B010BD13B51F230DF126
:102F80000702012120208DF80730FFF76DFF04466E
:102F900008B1FDF73DFC204602B010BD13B500237B
:102FA0000DF10702012120208DF80730FFF75CFFAB
:102FB000044608B1FDF72CFC204602B010BD00000D
:102FC000044B1868421C04BF034B1878831F5842F7
:102FD0005841704730010010E00F00F0064B1868B0
:102FE000083B1B78062B05D1C0F30310C31E5842C3
:102FF0005841704700207047E80F00F008B5FFF710
:10300000DFFF28B1804B814A1B68C3F304231360A0
:10301000FFF7E4FF10B17E4B7E4A1A60FFF7D0FF46
:1030200028B17D4B7D4A1B68C3F342331360FFF721
:10303000D5FF20B17A4AD36823F08073D360FFF7BD
:10304000BFFF40B14FF080430022C3F80C21C3F80A
:103050001021C3F83825FFF7C1FF10B1714B0322CF
:103060001A60FFF7BBFF40B16F4B05221A600122C7
:103070009A6700229A603F225A606C4B1A68511C72
:103080000BBF6B4B6B4B1A781B6802BF08331B6876
:10309000C3F30313062A49D1033B012B46D94FF052
:1030A0008052654BD2F80414C3F82015D2F80814E6
:1030B000C3F82415D2F80C14C3F82815D2F810144C
:1030C000C3F82C15D2F81414C3F83015D2F818141C
:1030D000C3F83415D2F81C14C3F84015D2F82014E4
:1030E000C3F84415D2F82414C3F84815D2F82814AC
:1030F000C3F84C15D2F82C14C3F85015D2F830147C
:10310000C3F85415D2F83414C3F86015D2F8381443
:10311000C3F86415D2F83C14C3F86815D2F840140B
:10312000C3F86C15D2F84424C3F87025FFF748FFA4
:1031300028B1424B424A1B6803F04F031360FFF76C
:103140003FFF48B14FF08043D3F80024D20744BF7B
:103150006FF00102C3F80024344B1B68062B09D121
:10316000344B1B68033B022B81BF364A136843F480
:1031700080631360344AD2F8883043F47003C2F895
:103180008830BFF34F8FBFF36F8F4FF01023D3F80A
:103190000022002A03DBD3F80432002B2FDA2B4B5A
:1031A0000122C3F80425D3F80024002AFBD04FF0F5
:1031B00010221521C2F80012D3F80024002AFBD0F7
:1031C0004FF010231522C3F80422204B1A46D3F8DF
:1031D00000140029FBD00021C3F80415D2F80034F4
:1031E000002BFBD0BFF34F8F1749194BCA6802F46D
:1031F000E0621343CB60BFF34F8F00BFFDE7154B79
:10320000154A1A6008BD00BF240300104035014074
:1032100074C007400DF0ADBA440200103C050040F8
:10322000F0ED00E0A0050040105600403001001015
:10323000E00F00F03401001000C000405802001000
:10324000E40E00403C17004000ED00E000E00140CB
:103250000400FA05180000200090D00353EA020C85
:1032600061D02DE9F04BB3FA83F51E0007BFB2FA27
:1032700082F502FA05F403FA05F41646C5F12005B5
:103280001EBF22FA05F73C43203556EA044C4FEAAC
:10329000144418BF0134A3464FF00009C8469042B9
:1032A00071EB030C39D3094207BFB0FA80F700FA7B
:1032B00007F6B1FA81F701FA07F6C7F120071EBF3A
:1032C00020FA07FC46EA0C062037B6FBFBFC7F1B06
:1032D000103F07F01F04C4F120060CFA04F42CFA86
:1032E00006F644BF34460026202FA4BF26460024FD
:1032F00054EA060C08BF012418EB040849EB060940
:10330000A4FB027CC01B06FB02CC04FB03CC71EBCC
:103310000C01904271EB030CC5D20B4602464946A4
:103320004046BDE8F08BB2FBF3F2844640EA01036D
:1033300013F0030F18D18446202A0BD32DE9F00790
:10334000B1E8F807A0E8F807A2F12002202AF7D296
:10335000BDE8F007042A07D351F8043B40F8043BCA
:10336000A2F10402042AF7D2002A05D011F8013B89
:1033700000F8013B013AF9D1604670478446002AC3
:103380002DD010F0030F04D000F8011B013A26D015
:10339000F7E7C9B241EA012141EA0141202A12D3EB
:1033A000A2F120022DE9F0030B460C460D460E4615
:1033B0000F4688468946A0E8FA03203AFBD2BDE8CA
:1033C000F00320320BD0042A05D340F8041B043A42
:1033D00005D0042AF9D200F8011B013AFBD160465E
:0233E000704734
:1033E400643900000000000086390000000000007D
:1033F40055390000000000006B3900000000000097
:103404008A3900000000000090390000000000002C
:1034140059390000000000005E390000000000007F
:10342400E1390000000003035934000000000303E5
:103434001C000020E4000020EC00002024000020F8
:04344400180000006C
:103448004261636B656E647320666C75736865644E
:103458000061707000466174616C206572726F72F1
:103468000053797374656D2072657365740000008C
:10347800FFFFFFFFFFFFFFFFFFFFFFFFFFFFFFFF54
:1034880000000000000000000000D6010601000056
:10349800556E6B6E6F776E206572726F7220636FF8
:1034A8006465000000000000C43500000100000051
:1034B800D035000002000000EE35000003000000D7
:1034C8000F3600000400000022360000050000004E
:1034D80033360000060000004736000007000000F1
:1034E8005F36000008000000773600000900000081
:1034F8008F3600000A000000A83600000B0000000C
:10350800C03600000C000000D73600000D00000097
:10351800EB3600000E000000FD3600000F00000032
:103528000C370000100000002037000011000000D8
:103538003737000080000000463700008100000097
:103548006737000082000000833700008300000016
:103558009F37000084000000BD3700008500000090
:10356800DE370000860000000338000090000000ED
:103578001A3800009100000038380000920000005E
:1035880056380000008200006B38000001820000FD
:103598008938000002820000A5380000008400007D
:1035A800C138000001840000E538000002840000F2
:1035B8000F39000003840000343900004E52465F82
:1035C80053554343455353004E52465F4552524F5D
:1035D800525F5356435F48414E444C45525F4D49F4
:1035E8005353494E47004E52465F4552524F525F21
:1035F800534F46544445564943455F4E4F545F45E3
:103608004E41424C4544004E52465F4552524F523D
:103618005F494E5445524E414C004E52465F45520A
:10362800524F525F4E4F5F4D454D004E52465F45DB
:1036380052524F525F4E4F545F464F554E44004EC4
:1036480052465F4552524F525F4E4F545F5355504A
:10365800504F52544544004E52465F4552524F52C5
:103668005F494E56414C49445F504152414D004ECE
:1036780052465F4552524F525F494E56414C49445B
:103688005F5354415445004E52465F4552524F5283
:103698005F494E56414C49445F4C454E475448009B
:1036A8004E52465F4552524F525F494E56414C4921
:1036B800445F464C414753004E52465F4552524F75
:1036C800525F494E56414C49445F44415441004E73
:1036D80052465F4552524F525F444154415F5349ED
:1036E8005A45004E52465F4552524F525F54494D1B
:1036F800454F5554004E52465F4552524F525F4E09
:10370800554C4C004E52465F4552524F525F464F01
:103718005242494444454E004E52465F4552524F2C
:10372800525F494E56414C49445F41444452004E11
:1037380052465F4552524F525F42555359004E52BE
:10374800465F4552524F525F4D4F44554C455F4E70
:103758004F545F494E495449414C495A4544004EDB
:1037680052465F4552524F525F4D555445585F4936
:103778004E49545F4641494C4544004E52465F45C8
:1037880052524F525F4D555445585F4C4F434B5F13
:103798004641494C4544004E52465F4552524F52AD
:1037A8005F4D555445585F554E4C4F434B5F46410E
:1037B800494C4544004E52465F4552524F525F4D68
:1037C800555445585F434F4E445F494E49545F46F0
:1037D80041494C4544004E52465F4552524F525F54
:1037E8004D4F44554C455F414C52454144595F4902
:1037F8004E495449414C495A4544004E52465F454A
:1038080052524F525F53544F524147455F46554CB1
:103818004C004E52465F4552524F525F4150495FED
:103828004E4F545F494D504C454D454E544544000C
:103838004E52465F4552524F525F4645415455528B
:10384800455F4E4F545F454E41424C4544004E52F1
:10385800465F4552524F525F494F5F50454E44496B
:103868004E47004E52465F4552524F525F445256A1
:103878005F5457495F4552525F4F56455252554E15
:10388800004E52465F4552524F525F4452565F5463
:1038980057495F4552525F414E41434B004E524695
:1038A8005F4552524F525F4452565F5457495F45E5
:1038B80052525F444E41434B004E52465F4552526E
:1038C8004F525F424C455F495053505F52585F50CA
:1038D8004B545F5452554E4341544544004E524652
:1038E8005F4552524F525F424C455F495053505FBB
:1038F8004348414E4E454C5F414C52454144595F07
:10390800455849535453004E52465F4552524F5200
:103918005F424C455F495053505F4C494E4B5F44A2
:103928004953434F4E4E4543544544004E52465F1B
:103938004552524F525F424C455F495053505F5079
:103948004545525F52454A454354454400505253F9
:103958000055415254005541525445004750494F73
:10396800544500534141444300000000000000005A
:1039780000000000000000000338FDD870475050D8
:10398800490054494D4552005457494D006E7266DE
:10399800785F7764745F696E6974006E7266785FC9
:1039A8007764745F6368616E6E656C5F616C6C6F81
:1039B8006300456E61626C65642E0046756E6374C3
:1039C800696F6E3A2025732C206572726F722063BE
:1039D8006F64653A2025732E005744540000000098
:1039E80000000000050000020000000000000306BF
:1039F80000000000080000000600000005000000AC
:103A0800070000000000000000E0D70101000000EE
:103A18001027000006000000131416000080004064
:103A280000040000000006000338FDD870470000BD
:103A3800000000000030004000000000010000000D
:103A48001B0000001A00000000009801060000009A
:103A58006472765F4144353236335F7772697465D4
:0B3A6800204661696C6564210D0A00B6
:103A74000000000000200040000000000020004082
:0C3A840000000000020000000090D003D1
:040000030000037581
:00000001FF
