:1000000000000120750300005D0300005F03000095
:1000100061030000630300006503000000000000AE
:100020000000000000000000000000006703000066
:1000300069030000000000006B0300006D03000076
:100040006F0300006F030000092500006F0300002C
:100050006F0300006F030000BD4900009D4D0000CC
:100060006F0300006F0300006F0300006F030000C8
:100070006F0300006F0300006F0300006F030000B8
:100080006F0300005D2300006F0300006F0300009A
:100090009D2300006F0300006F0300006F0300004A
:1000A0006F0300006F0300006D5400006F03000039
:1000B0006F0300006F03000000000000000000005C
:1000C0006F0300006F0300006F0300006F03000068
:1000D0006F0300006F0300006F03000000000000CA
:1000E0000000000000000000000000000000000010
:1000F0000000000000000000000000000000000000
:1001000000000000000000000000000000000000EF
:1001100000000000000000000000000000000000DF
:1001200000000000000000000000000000000000CF
:1001300000000000000000000000000000000000BF
:1001400000000000000000000000000000000000AF
:10015000000000000000000000000000000000009F
:10016000000000000000000000000000000000008F
:10017000000000000000000000000000000000007F
:10018000000000000000000000000000000000006F
:10019000000000000000000000000000000000005F
:1001A000000000000000000000000000000000004F
:1001B000000000000000000000000000000000003F
:1001C000000000000000000000000000000000002F
:1001D000000000000000000000000000000000001F
:1001E000000000000000000000000000000000000F
:1001F00000000000000000000000000000000000FF
:10020000354936480A1A02D0072291438D463449AF
:1002100034480A1A06D00722914381F30988022242
:1002200082F3148830483149314A00F044F83148AB
:100230003149324A00F03FF831483249324A00F041
:100240003AF832483249334A00F035F832483349F7
:10025000334A00F030F833483349344A00F02BF881
:1002600033483449344A00F026F8344834490022EF
:1002700000F02CF833483449002200F027F83348C6
:100280003349091A082902DB002202604160314A21
:1002900090471F481F49884205D00268043003B4C4
:1002A000904703BCF7E700208646EC46002000217B
:1002B000294A9047FEE7884207D0521A05D00378B2
:1002C00001300B700131013AF9D17047884202D0F8
:1002D00002700130FAE770470000012000E00020C2
:1002E000000001200000012018790000000000201B
:1002F0001C000020D0030000D00300002C6D000083
:10030000187900000000002000000020806D00002F
:10031000806D0000806D0000806D0000806D000029
:10032000806D0000806D0000806D00001679000077
:10033000347900001C0000201C0000201C0000205C
:10034000942D0020942D0020942D0020942D002029
:10035000944D00209D030000ED630000FEE7FEE7E2
:10036000FEE7FEE7FEE7FEE7FEE7FEE7FEE7FEE765
:1003700000F002B8FFF7FCBF0F484FF007018843B9
:1003800085460E4880470E48016841F470010160BF
:10039000BFF34F8FBFF36F8FFFF732BF09480A4992
:1003A0000A4A884207D0521A05D0037801300B70F0
:1003B0000131013AF9D1704700000120A169000024
:1003C00088ED00E0806D00000000002000000020AB
:1003D00000B583B001900091019B1B681B680099D8
:1003E0000198984700BF03B05DF804FB00B583B0E7
:1003F0000190019B1B685B680198984700BF03B0A0
:100400005DF804FB00B583B00190019B1B689B68FD
:100410000198984700BF03B05DF804FB82B00190DB
:10042000019BDB6801225A7100BF02B0704782B0A5
:100430000190019BDB685B79184602B070470000B1
:10044000024A034BD31ADB08184670476C6D000054
:100450002C6D000084B00190009100238DF80F30C6
:10046000019B1B7803F00403DBB2002B24D0019B1B
:100470001B78C3F30103DBB2012B02D0022B0CD09B
:1004800017E0009B1B68019A1288C2F38312D2B254
:1004900013449A1C009B1A600BE0009B1B68019A96
:1004A0005288C2F3891292B213449A1C009B1A60BC
:1004B00000BF01238DF80F309DF80F30184604B0AF
:1004C0007047000000B58BB00023ADF826303E48E1
:1004D00001F0A6F83D4801F0A3F83D4B9B6804935A
:1004E0003C4B1B680693049A069B134002339B0007
:1004F000374A13440433089304AB19460898FFF7AE
:10050000A9FF0346002B09D0049A069B134002332F
:100510009B002F4A134404330893EDE700BF0023E8
:10052000079311E0049B5A1C0492069A1340079A01
:10053000920001A90A44264902339B000B445B68E0
:100540001360079B01330793079B012BEAD99DF8A2
:100550000430C3F30103DBB2012B10D0022B1CD1FA
:10056000BDF80A30ADF82630BDF80630C3F3891364
:100570009BB203339A08049B1344049313E0BDF821
:100580000A30ADF82630BDF80430C3F38313DBB274
:100590001A46049B1344049305E00F494FF4C270BC
:1005A00000F0B1FF00BF094801F046F80590059B37
:1005B000002B02D0049B064A9360BDF826301846F3
:1005C0000BB05DF804FB00BF04050020000500200F
:1005D000EC00002000000020846D000000B585B014
:1005E0000021074800F0A5FF0390039B0293029BA4
:1005F00083F310030193019B184605B05DF804FBDB
:100600000805002000B589B0039002910192009383
:10061000039B1B0C0793FFF7E1FF0690FFF710FF0A
:100620000246079B934204D3214940F2A91000F0EF
:100630006AFF069B1904009B5A1C0A9B1340079AE9
:100640000A431C4902339B000B445A60009A0A9BE0
:10065000134002339B00174A134404330593039B52
:1006600003F00703D9B2059A137861F3C503137039
:10067000019B03F00F03D9B2059A138861F3891324
:100680001380029BC3F31501059A136861F39F233E
:100690001360059A1378012161F301031370059A21
:1006A00013786FF38203137000BF09B05DF804FB89
:1006B000846D0000EC00002000B58BB00390029127
:1006C00013468DF80730039B0233089301238DF8FE
:1006D0001F30002000F0D0FE3E4B5A68029B1A608B
:1006E0003D4B1A683B4B99683A4B5B68CB1A1344F5
:1006F0000133099314E00121384800F061FFFFF74E
:10070000E1FE06900699354800F05AFF324B1A6810
:10071000304B99682F4B5B68CB1A13440133099314
:10072000089A099B9A42E6D89DF81F30002B48D0C2
:10073000002304939DF80730002B17D09DF810304C
:10074000012262F301038DF810309DF8103043F060
:1007500004038DF81030039B03F00F03DAB2BDF8E9
:10076000103062F38913ADF8103016E09DF81030A8
:10077000022262F301038DF810309DF8103043F02F
:1007800004038DF81030039BC3F309039AB2BDF83C
:10079000123062F38F13ADF812300E4B5A680E4BC5
:1007A0001B68134002339B000A4A13440433059329
:1007B000049A059B1A60074B5A68089B1344054A24
:1007C0005360002000F06CFE9DF81F3018460BB0FF
:1007D0005DF804FBEC00002000000020080500206C
:1007E00000B58BB005900491039202931F4B1B68D8
:1007F000079306AB012219460298FFF75DFF0346F7
:10080000002B24D0069B023309930023089311E0A8
:10081000089B9B00039A1A44099B591C099107994C
:100820000B401268124902339B000B445A60089B2C
:1008300001330893089A029B9A42E9D3069A079BD0
:1008400000931346029A04990598FFF7DBFE084BC4
:100850001B78002B05D000BF00F068F80346002B82
:10086000FAD100BF0BB05DF804FB00BF0000002010
:10087000EC00002000B583B001900091002300221D
:1008800000990198FFF7ACFF00BF03B05DF804FBCF
:1008900000B587B0039002910192019B059305AAD0
:1008A000012302990398FFF79BFF00BF07B05DF893
:1008B00004FB00B587B00390029101920093019B65
:1008C0000493009B059304AA022302990398FFF75F
:1008D00087FF00BF07B05DF804FB00B58BB0039045
:1008E000029101920093019B0593009B06930C9B40
:1008F00007930D9B08930E9B099305AA0523029964
:100900000398FFF76DFF00BF0BB05DF804FB00001C
:10091000054B9A68044B5B689A420CBF0123002385
:10092000DBB21846704700BFEC00002000B599B05C
:10093000FFF7EEFF0346002B01D00023B7E19A4BEF
:100940000022C3F81824BFF34F8F974B9B68049382
:10095000964B1B681093049A109B134002339B0024
:10096000914A1344043311930023179300231693E1
:1009700000230F9304AB19461198FFF76BFD034654
:10098000002B19D0884BD3F81834002B14D1864B88
:100990005A68049B9A4205D8834B5B68824A9360ED
:1009A000002384E1049A109B134002339B007E4A8B
:1009B000134404331193DDE70023159311E0049BE6
:1009C0005A1C0492109A1340159A920001A90A44E5
:1009D000754902339B000B445B681360159B013320
:1009E0001593159B012BEAD99DF8043003F00303FE
:1009F000DBB2022B40F09C80BDF80630C3F38913B4
:100A00009BB20E93BDF80630C3F389139BB2502BF3
:100A100028BF50239BB20D930D9BC3F309039AB2D9
:100A2000BDF8063062F38F13ADF806300D9B083326
:100A30000C939DF80430C3F3C203DBB20F930C99FF
:100A40005B4800F0A9FE1790179B002B00F0D280A6
:100A5000179800F031FF01A9169B0822179800F0A3
:100A6000E7FF169B08331693049BDA43109B134051
:100A700001339B000B930D9A0B9B9A4242D90B9B1F
:100A8000002B08D0049A109B134002339B00464A67
:100A90001344043300E0474B0A930B9B002B02D016
:100AA0000B9BDBB201E00D9BDBB28DF827300B9B7B
:100AB000002B01D03F4B00E0002308930B9B002B41
:100AC00006D00D9BDAB20B9BDBB2D31ADBB200E08F
:100AD00000238DF81F309DF82720169B0A99179840
:100AE00000F0A6FF9DF82730169A13441693089B32
:100AF000002B16D09DF81F20169B0899179800F020
:100B000097FF0EE0049A109B134002339B00264A85
:100B1000134404330693169B0D9A0699179800F018
:100B200087FF0E9B03339A08049B1344049361E0F0
:100B30009DF8043003F00303DBB2012B5AD1BDF85A
:100B40000430C3F38313DBB2062B28BF0623DAB2CB
:100B5000BDF8043062F38913ADF80430BDF80430F9
:100B6000C3F38313DBB2023305939DF80430C3F360
:100B7000C203DBB20F93059B9B0019460C4800F0A3
:100B80000BFE1790179B002B34D0179800F094FEA3
:100B900001A9169B0822179800F04AFF169B0833FC
:100BA0001693002315931CE0EC00002000000020A9
:100BB0006C6D0000F8000020049B5A1C0492109AEF
:100BC000134002339B003C4A1344191D169B042218
:100BD000179800F02DFF169B04331693159B0133D5
:100BE0001593BDF80430C3F38313DBB21A46159B8B
:100BF0009342E1D3179B002B39D02F4BD3F81034FD
:100C000014932D4BD3F81834002B1BD0179800F0F9
:100C100062FE46E000238DF84F301498FFF707FC82
:100C20000346002B02D001238DF84F309DF84F3042
:100C3000002B03D017991498FFF7CAFB149BDB68AD
:100C40001B681493149B002BE4D1179800F043FE0B
:100C5000002000F011FC184BD3F81834002B02D1FF
:100C6000049B154A9360002000F01AFC19E0124B17
:100C7000D3F81034129306E01298FFF7C3FB129BCF
:100C8000DB681B681293129B002BF5D10B4A0C4BAF
:100C9000D31ADB081B0443F002030A491846FFF786
:100CA000E9FDFFF735FE034683F00103DBB218468A
:100CB00019B05DF804FB00BFEC000020646D00007B
:100CC0002C6D0000DC6D000000B583B00C4BD3F838
:100CD000103401930A4B01221A7009E00198FFF7C2
:100CE0009DFB0198FFF782FB019BDB681B6801936A
:100CF000019B002BF2D100BF03B05DF804FB00BFE5
:100D0000EC00002086B003900291019201238DF83F
:100D100017309DF817301F4A039B13601D4A029B32
:100D200053601C4A019B9360039B44F2010293426F
:100D300012D0039B44F20202934220D1019B154A38
:100D4000D360144BDB681B68124A9361114BDB685C
:100D50005B68104AD36112E0019B0E4A13610D4B90
:100D60001B699B680B4A53610A4B1B691B68094A44
:100D70009361084B1B695B68064AD36100BF72B67A
:100D800000BF9DF81730DBB2002BFAD162B600BF6E
:100D900006B070470C05002000B583B002900091AA
:100DA000019244F2010071466A4600F003F803B074
:100DB00000BD00BF30B58BB007900691059272B6AA
:100DC000FFF782FF00BFFFF7B1FD0346002BFAD10A
:100DD000079B44F20102934216D0079B44F20202A1
:100DE00093423ED1059B09932C4A2D4BD31ADB0825
:100DF0001B0443F00100099B5B681A46099B1B68B2
:100E00002849FFF756FD39E0059B0893234A244BF8
:100E1000D31ADB081B0443F00104089B9D68089B60
:100E20009B68184600F022FE03461846089B5B6844
:100E30001946089B1B68069A02920193009103468B
:100E40002A4619492046FFF748FD144A144BD31A85
:100E5000DB081B0443F0010314491846FFF70AFDA1
:100E60000CE00E4A0E4BD31ADB081B0443F00103BF
:100E7000069A0F491846FFF70BFD00BF0D4B1B6884
:100E800003F00103002B00D000BE059A06990798D5
:100E9000FFF738FF00BF0BB030BD00BF646D00002E
:100EA0002C6D0000F06D00000C6E0000346E000030
:100EB000486E0000F0ED00E084B00190019B9B685B
:100EC0000393019BDA68039BD31A184604B070475A
:100ED00082B001900B468DF80330019B1A68019B8C
:100EE000DB68019989880B4013449DF803201A7030
:100EF000019BDB685A1C019BDA6000BF02B070479F
:100F000084B003900B460192ADF80A30039B1A6837
:100F1000039B9968BDF80A300B44039989880B40FC
:100F200013441A78019B1A7000BF04B0704700B5D3
:100F300083B001900091009A00210198FFF7E0FF33
:100F4000019B9B685A1C019B9A6000BF03B05DF82F
:100F500004FB84B0039002911346ADF80630029B67
:100F6000002B01D10E231DE0BDF80630002B07D069
:100F7000BDF806305A1EBDF806301340002B01D0D4
:100F800009230FE0039B029A1A60BDF80630013B6B
:100F90009AB2039B9A80039B00229A60039B0022D3
:100FA000DA600023184604B0704700B583B00190A2
:100FB0000B468DF803300198FFF77EFF0246019B38
:100FC0009B889A4207D89DF8033019460198FFF78D
:100FD0007FFF002300E00423184603B05DF804FB04
:100FE00000B583B0019000910198FFF765FF0346BB
:100FF000002B05D000990198FFF799FF002300E02E
:101000000523184603B05DF804FB000000B587B067
:101010000390029113468DF8073000230593039B3C
:101020001B781A46114B9B5C002B09D0039B0433A1
:101030009DF807200299184602F046FC05900FE043
:10104000039B1B781A46094B9B5C002B08D1039B22
:101050000C339DF807200299184601F0E9FD059030
:10106000059B184607B05DF804FB00BF840600200E
:1010700000B585B0019000238DF80F30019B1B78DF
:101080001A46114B9B5C002B08D0019B0433184679
:1010900002F0D8FC03468DF80F300EE0019B1B7860
:1010A0001A46094B9B5C002B07D1019B0C33184659
:1010B00001F046FE03468DF80F309DF80F301846BC
:1010C00005B05DF804FB00BF8406002000B587B0C2
:1010D0000390029113468DF8073000230593039B7C
:1010E0001B781A46114B9B5C002B09D0039B0433E1
:1010F0009DF807200299184602F0BCFC05900FE00D
:10110000039B1B781A46094B9B5C002B08D1039B61
:101110000C339DF807200299184601F069FE0590EE
:10112000059B184607B05DF804FB00BF840600204D
:1011300084B00190019B9B680393019BDA68039B39
:10114000D31A184604B0704700B587B001900091DB
:10115000019B1B78012B04D0022B42D0002B51D0D5
:1011600066E0019B1B7A002B05D1012232493348EE
:10117000FFF7ACFF5CE0019B5B681B7819463048C9
:10118000FFF713FF0590059B002B0AD001238DF874
:101190000C30059B04932B4B1B6803AA1046984701
:1011A0000DE02748FFF7C4FF0346002B07D00023BC
:1011B0008DF80C30234B1B6803AA10469847204833
:1011C000FFF7B6FF02461E4B9B889A4205D80122C4
:1011D00019491A48FFF77AFF2AE01B4B01221A70BF
:1011E00026E002238DF80C30019BDB68049301227A
:1011F00011491248FFF76AFF124B1B6803AA1046F9
:10120000984715E011491248FFF7EAFE0346002B04
:1012100005D101220D490948FFF7F8FE07E0032335
:101220008DF80C30074B1B6803AA1046984700BF87
:1012300000BF07B05DF804FB340500200400002067
:10124000380500202C050020350500203005002041
:101250004805002030B591B00390029101928DF8BD
:1012600003303C4A019B1360029B002B01D10723F2
:101270006DE0029B1968029B5B689BB21A46364878
:10128000FFF767FE0F900F9B0E930E9B002B01D074
:101290000E9B5CE0029B9968029BDB689BB21A463E
:1012A0002E48FFF756FE0F900F9B0D930D9B002BC2
:1012B00001D00D9B4BE02A4B04AC1D460FCD0FC453
:1012C00095E80F0084E80F00039B5B690A93039B7A
:1012D0001B7C002B14BF01230023DBB28DF82430CC
:1012E0009DF803308DF82C30039B5B7C002B01D0E4
:1012F0000E2300E000238DF82530039BDB68069366
:10130000039B9B680793039B1B680593039B5B6888
:10131000049304AB134A1946134801F095F80F9053
:101320000F9B0C930C9B002B01D00C9B0FE00F4BE1
:1013300000221A70039B1B68B3F1FF3F06D0012205
:101340000B490948FFF7C2FE034600E00023184698
:1013500011B030BD2C0500203805002048050020C4
:10136000606E0000491100000400002035050020D7
:101370003405002000B587B00190019B002B03D1FC
:101380001449CA2000F0BFF8134B1B788DF81730B2
:1013900001991248FFF724FE04909DF81730002BA6
:1013A00012D00D4B00221A7001220D490D48FFF793
:1013B0008DFE0390039B0293029B002B04D0054AF1
:1013C000D6210298FFF7E8FC049B184607B05DF8A9
:1013D00004FB00BF806E00003505002038050020AA
:1013E000340500200400002000B585B003468DF8C8
:1013F00007309DF8073019461048FFF7D6FD0390D7
:10140000039B002B15D10E48FFF732FE034683F0F5
:101410000103DBB2002B0CD00A490848FFF7E0FDBE
:101420000346002B05D1012206490548FFF7EEFDD2
:101430000390039B184605B05DF804FB48050020A7
:10144000040000203005002072B6034B1B680133F6
:10145000014A136000BF704758050020054B1B6808
:10146000013B044A1360034B1B68002B00D162B69A
:1014700000BF70475805002000B583B0019000F010
:1014800025F80346012B03D00449432000F03BF824
:10149000FFF7DAFF00BF03B05DF804FBD06E000079
:1014A00000B583B003468DF8073000F00FF803460F
:1014B000012B03D00449512000F025F8FFF7CEFF9F
:1014C00000BF03B05DF804FBD06E000084B0EFF302
:1014D00005830193019BC3F308030393039B002B34
:1014E0000DD1EFF314830093009B0293029B03F052
:1014F0000103002B0CBF01230023DBB200E001231A
:10150000184604B0704700B585B003460091ADF8A9
:101510000630BDF806300293009B039302AB1A46D7
:10152000002144F20200FFF745FC00BF05B05DF862
:1015300004FB10B487B001900091019B009A53E81E
:10154000004F104643E8000191F0000FF7D10594D9
:1015500004900391059B184607B05DF8044B704753
:1015600010B487B001900091019B009A53E8004F9E
:1015700044EA020043E8000191F0000FF6D105941F
:1015800004900391049B184607B05DF8044B704724
:1015900010B487B001900091019B009A53E8004F6E
:1015A00004EA020043E8000191F0000FF6D105942F
:1015B00004900391059B184607B05DF8044B7047F3
:1015C00010B487B001900091019B009A53E8004F3E
:1015D00004EB020043E8000191F0000FF6D10594FE
:1015E00004900391049B184607B05DF8044B7047C4
:1015F00010B487B001900091019B009A53E8004F0E
:10160000A4EB020043E8000191F0000FF6D105942D
:1016100004900391049B184607B05DF8044B704793
:1016200000B583B0019001210198FFF799FF0346AF
:10163000184603B05DF804FB00B583B001900021AB
:101640000198FFF7A5FF0346184603B05DF804FBB9
:1016500000B583B001900B468DF80330019B002B41
:1016600003D10849E820FFF74EFF019BDA689DF897
:1016700003300199098A01FB03F31344184603B0B0
:101680005DF804FB246F000000B583B00190009169
:10169000019B002B03D10849F520FFF734FF009B85
:1016A000019AD2689B1A019A128AB3FBF2F3DBB259
:1016B000184603B05DF804FB246F000000B585B048
:1016C0000190019B002B04D11C494FF49270FFF74D
:1016D0001AFF002303930020FFF7CEFE019B1B6837
:1016E0001A68019B5B689A421FD9019B1B681A68A4
:1016F000013A1A601B681B7819460198FFF7A8FF8A
:101700000390019B9A68019B1B681B68D31A8DF894
:101710000B30019B1B681B799DF80B209A4204D962
:10172000019B1B689DF80B201A710020FFF7B8FE83
:10173000039B184605B05DF804FB00BF246F000052
:1017400010B584B001900091019B002B04D1114988
:1017500040F24710FFF7D7FE009B002B04D10D4944
:101760004FF4A470FFF7CFFE009B03930020FFF718
:1017700083FE019B1B681C68621C1A600399019818
:10178000FFF782FF034623700020FFF789FE00BFAA
:1017900004B010BD246F000000B58BB00190009123
:1017A000019B1B8A043B0793009A079B1344DA1C96
:1017B000079BB2FBF3F38DF81B300198FFF77EFF18
:1017C0000590059B002B01D1002338E0059B0022EA
:1017D0001A71059B01225A71079B9AB2059BDA8008
:1017E000059B09939DF81B30013B0493099B019ACB
:1017F0001A60002308931DE00198FFF75FFF039034
:10180000039B002B0ED0059B5B790133DAB2059B5D
:101810005A71099B039A1A60039B019A1A60039BF1
:10182000099304E0059800F00EF8002307E0089BF8
:1018300001330893089A049B9A42DDD3059B18460E
:101840000BB05DF804FB00B58BB00190019B0793D2
:10185000079B5B798DF81B30019B08939DF81B302B
:10186000013B05930023099305E0089B1B6808933F
:10187000099B01330993099A059B9A42F5D3089B6A
:101880001B680493019B0893002309930BE0089BBA
:101890001B68039308990498FFF752FF039B089372
:1018A000099B013309939DF81B30099A9A42EED3A4
:1018B00000BF0BB05DF804FB00B585B00190019B43
:1018C0000393039B043301211846FFF779FE00BF01
:1018D00005B05DF804FB00B587B00190019B05934E
:1018E000059B043301211846FFF782FE034603934C
:1018F00003AB0493049B1B78002B02D10198FFF7E4
:10190000A2FF00BF07B05DF804FB000000B591B076
:101910000390029101920093039B002B03D1434952
:10192000B620FFF7F0FD039B0993039B0F93099BE0
:10193000DB881A46099B5B7903FB02F3043B08939F
:10194000009A089B9A4203D33849C420FFF7DBFD75
:10195000099BDB880793009B1A1D079BB2FBF3F3DF
:101960000E93009B0433079AB3FBF2F2079901FB35
:1019700002F29B1A0D93019B1A68009B1344089A6C
:101980009A4203D2089A009BD31A01E0019B1B687C
:101990000C93019B0C9A1A6005E00F9B1B680F9338
:1019A0000E9B013B0E930E9B002BF6D100230B9355
:1019B000079A0D9BD31A0A930A9A0C9B934228BF4D
:1019C00013460A932AE0029A0B9B134406930F9A3C
:1019D0000D9B1344043305939DF84830002B05D02C
:1019E0000A9A0599069805F045F904E00A9A0699BD
:1019F000059805F03FF900230D930F9B1B680F938B
:101A00000C9A0A9BD31A0C930B9A0A9B13440B93C0
:101A1000079A0C9B934228BF13460A930C9B002BFA
:101A2000D1D100BF11B05DF804FB00BF746F00009E
:101A300000B589B00590049103920293039B07932C
:101A400007AA00230093029B04990598FFF75EFF05
:101A5000079B039A9A4203D00349F620FFF753FDF0
:101A600000BF09B05DF804FB746F000000B585B0DD
:101A70000190019800F00EF80390039B002B01D019
:101A8000039B00E0024B184605B05DF804FB00BF65
:101A9000C46F000086B00190164B0593164B04935B
:101AA0001FE0049A059BD31ADB10DA0F13445B1076
:101AB000DB00059A13440393039B1B680293029A6D
:101AC000019B9A4202D9039B04930AE0029A019B6C
:101AD0009A4203D2039B0833059302E0039B5B68A1
:101AE00004E0059A049B9A42DBD30023184606B013
:101AF000704700BF98730000B074000000B583B059
:101B000001900091019BDBB21846FFF76DFC019B31
:101B1000184603B05DF804FB82B003468DF8073029
:101B20009DF90730002B0CDB9DF8073003F01F02F6
:101B300005499DF907305B09012000FA02F241F8DE
:101B4000232000BF02B0704700E100E082B00346EE
:101B50008DF807309DF90730002B11DB9DF8073019
:101B600003F01F0208499DF907305B09012000FAC4
:101B700002F2203341F82320BFF34F8FBFF36F8F62
:101B800000BF02B0704700BF00E100E082B0034632
:101B90008DF807309DF90730002B0DDB9DF80730DD
:101BA00003F01F0206499DF907305B09012000FA86
:101BB00002F2403341F8232000BF02B0704700BF5B
:101BC00000E100E082B003468DF807309DF9073050
:101BD000002B0DDB9DF8073003F01F0206499DF92D
:101BE00007305B09012000FA02F2603341F823203C
:101BF00000BF02B0704700BF00E100E000B585B053
:101C00000190019B002B0AD0074B43F00103039383
:101C1000019B9B010293039B0298984700E000BF41
:101C200005B05DF804FB00BFB074000008B50D4BB3
:101C30004FF48032C3F844230A4B4FF48032C3F888
:101C400004231120FFF7BEFF1120FFF765FF054BAE
:101C500001221A602F20FFF7D1FF034B01221A70D7
:101C600000BF08BD001001407A06002008B5112011
:101C7000FFF76CFF0E4B4FF48032C3F848230C4B38
:101C80004FF48032C3F80823094B01225A602F20F9
:101C9000FFF7B4FF064B01229A60064B00221A6040
:101CA0002F20FFF7ABFF044B00221A7000BF08BDC6
:101CB000001001406C0600207A060020024BD3F889
:101CC00004351846704700BF0010014082B00190F3
:101CD0000091019A009BD31A23F07F43184602B06B
:101CE0007047000082B00190034A019BC2F8403562
:101CF00000BF02B0704700BF0010014086B00190E5
:101D0000284B1B68002B03D1264A019B136045E03A
:101D1000019B1A68234B1B681B689A4210D8214B01
:101D20001B681968019B1A681E4B1B688A1A1A6087
:101D30001C4B1A68019BDA611A4A019B13602DE063
:101D4000019B1B680393174B1B680593154B1B687E
:101D5000049309E0049B1B68039AD31A0393049B22
:101D60000593049BDB690493049B002B04D0049B24
:101D70001B68039A9A42EDD8049B002B05D0049B64
:101D80001A68039BD21A049B1A60019B039A1A607B
:101D9000019B049ADA61059B019ADA6100BF06B0E3
:101DA000704700BF6806002000B587B001902A4B3D
:101DB0001B680393284B1B680593059B049308E05D
:101DC000049A019B9A4208D0049B0593049BDB690B
:101DD0000493049B002BF3D100E000BF049B002B75
:101DE00001D1002333E0059A049B9A4214D11A4B87
:101DF0001B68DB69184A1360174B1B68002B0BD15B
:101E0000164B01229A60164B00221A60154B0122D4
:101E10001A702F20FFF7F2FE049B1B680293049BAD
:101E2000DA69059BDA61059BDB690493049B002B4F
:101E300005D0049B1A68029B1A44049B1A60064B47
:101E40001B68039A9A4214BF01230023DBB2184691
:101E500007B05DF804FB00BF6806002000100140D9
:101E60006C0600207B06002008B51120FFF78EFECF
:101E700000BF08BD08B51420FFF788FE00BF08BDED
:101E800000B583B00190019B5B69019A926910468D
:101E9000984700BF03B05DF804FB000000B585B0B3
:101EA0002B4B1B68002B4ED000230193FFF706FF3E
:101EB0000246284B1B6819461046FFF707FF0290A1
:101EC000234B1B6803931DE0039B1B68029A9A42F5
:101ED0001CD3039B1B68029AD31A0293039B1B68B3
:101EE000019A13440193039B0093039BDB690393C3
:101EF000009B1B7C002B05D0009B00221A740098CD
:101F0000FFF7BEFF039B002BDED100E000BF124BAA
:101F10001A78124B1B789A420CD1104B1B78013364
:101F2000DAB20E4B1A700D4B1B78022B02D10B4B01
:101F300000221A70094B1B781946094A019B42F886
:101F40002130FFF797FF00BF05B05DF804FB00BF2D
:101F5000680600206C060020780600207906002024
:101F60007006002082B00190184B1A78184B1B782D
:101F70009A4223D0154B1B780133DAB2134B1A70F7
:101F8000124B1B78022B02D1104B00221A700F4B00
:101F90001B781A460F4B53F82220019B1A60019BB5
:101FA0001A680D4B1B6813440B4A13600A4B1B68DD
:101FB00023F07F43084A1360012303E0019B0022C2
:101FC0001A600023184602B0704700BF7806002050
:101FD00079060020700600206C06002088B003906F
:101FE000029101920023079338E0204B1B6806936F
:101FF000069B1B68039A9A4206D2069B1A68039BAB
:10200000D21A069B1A602DE0069B1B68039AD31A0E
:102010000393069B1B68079A13440793069B0022B1
:102020001A60124B1B680593069BDB690F4A13600D
:10203000069BDB68002B11D0029A079B134423F008
:102040007F42069B5A60069BDA68069B9A60019B5A
:102050001A68069BDA61019B059A1A60034B1B689C
:10206000002BC2D100BF08B0704700BF6806002037
:1020700000B589B0019000238DF81F30664B1B68B6
:102080000593AAE0019B002B05D0019B0693069BBC
:10209000DB69019361E0614B1B781A4613465B00D4
:1020A0001344DB005D4A1344043304935B4B1B78F9
:1020B0000133DAB2594B1A70584B1A78574B9B7848
:1020C0009A4202D1554B00221A70049B5B6806931A
:1020D000049B1B78022B04D0032B1BD0012B1FD099
:1020E0001DE0049B5B681846FFF75EFE0346002B6D
:1020F00002D001238DF81F30069B00221A746CE079
:10210000454B1B680393039B00221A74039BDB69F6
:10211000414A1360404B1B68002BF1D15DE05CE04D
:1021200000BF069B1B7C002B00D056E0049B9A68E6
:10213000069B5A60049BDA68069B9A60049B1A69A6
:10214000069BDA60049B5A69069B9A61344B1B78A4
:10215000002B02D0069B00225A60069B5A68314B26
:102160001B68D31A23F07F432F4A93420ED8069B55
:102170005A682C4B1B6819461046FFF7A7FD02460C
:10218000069B9B681A44069B1A6017E0254B1A6849
:10219000069B5B6819461046FFF798FD0290069B68
:1021A0009B68029A9A4206D2069B9A68029BD21AB0
:1021B000069B1A6002E0069B00221A60069B002222
:1021C0005A60069B00229A60069B01221A74069BA5
:1021D0000022DA610698FFF791FD019B002B7FF446
:1021E00051AF0E4B1A780D4B5B789A427FF44AAF91
:1021F0009DF81F30002B04D1074B1B68059A9A42AB
:1022000001D0012300E0002303F00103DBB21846F4
:1022100009B05DF804FB00BF680600205C050020E3
:102220007B0600206C060020FEFF7F0010B588B002
:102230000190274B1B68002B44D0254B1B681B6863
:102240000793FFF73BFD0690224B1B68059305990A
:102250000698FFF73BFD0346033304931E4B1B78A0
:1022600083F00103DBB2002B01D0FFF7DFFC049AFF
:10227000079B934238BF1346059A13440593059B69
:1022800023F07F4305930598FFF72CFDFFF716FD1C
:10229000039006990398FFF719FD0346DC1C069985
:1022A0000598FFF713FD03469C420DD9FFF706FD85
:1022B00003461846FFF716FD2F20FFF79FFCFFF798
:1022C000D3FD01E0FFF7D2FC00BF08B010BD00BF96
:1022D000680600206C0600207A06002000B587B052
:1022E0000023019300238DF81730194B1B680493CA
:1022F000184B1B6803936B461846FFF733FE0346E3
:102300008DF80B309DF80B30002B08D0009B01AAF4
:1023100004991846FFF762FE01238DF81730019BE0
:102320001846FFF7A5FE0346002B02D001238DF8C7
:1023300017309DF81730002B02D00398FFF776FF77
:10234000054B00221A7000BF07B05DF804FB00BF08
:102350006C060020680600207B06002008B50E4BA6
:102360000022C3F840210C4B0022C3F844210A4B41
:102370000022C3F84821084B0022C3F84C21064B29
:102380000022C3F80021044B0022C3F80421FFF708
:1023900085FD00BF08BD00BF0010014008B5FFF774
:1023A0009DFF00BF08BD000000B589B001900091FD
:1023B000009B0793019B1B788DF80C30019B5B6899
:1023C0000493019B9B68DBB28DF81430019BDB68A2
:1023D0000693074A079B52F823300649079A51F89B
:1023E000221003AA1046984700BF09B05DF804FB0D
:1023F0007C0600208006002000B589B00190009185
:10240000009B0793019B1B788DF80C30019B5B6848
:102410000493019B9B68DBB28DF81430019BDB6851
:102420000693074A079B52F823300649079A51F84A
:10243000221003AA1046984700BF09B05DF804FBBC
:102440007C0600208006002030B58FB003900291FA
:102450000192039B1B780C9326490C9B019A41F82F
:102460002320029B1A6924490C9B41F82320029BDC
:102470005B7F1946214A0C9B13440A461A70029B43
:1024800004AC1D460FCD0FC495E80F0084E80F0083
:102490000C9B089300230D93039B1B781A46174B44
:1024A0009B5C002B0DD0039B181D019B002B01D0C2
:1024B000134A00E0002204AB194601F09FF90D9089
:1024C00014E0039B1B781A460C4B9B5C002B0DD130
:1024D000039B03F10C00019B002B01D0094A00E093
:1024E000002204AB194600F0EFFA0D900D9B184640
:1024F0000FB030BD7C06002080060020840600203E
:10250000A9230000F923000008B5064B1B68002B27
:1025100003D105495120FEF7F6FF024B1B6898478F
:1025200000BF08BD88060020BC74000082B0019086
:10253000019B044A934201D1034B00E0002318465B
:1025400002B07047002000408806002000B587B028
:1025500001900091019B002B03D118497720FEF7D1
:10256000D2FF0198FFF7E2FF0590059B002B1ED0DC
:1025700000238DF813300020FEF77EFF059B1B79AA
:10258000002B03D001238DF8133005E0059B009A42
:102590001A60059B01221A710020FEF781FF9DF849
:1025A0001330002B03D011230393039B02E000237D
:1025B0000393039B184607B05DF804FBBC7400004E
:1025C00082B003468DF807309DF90730002B0CDBF5
:1025D0009DF8073003F01F0205499DF907305B099C
:1025E000012000FA02F241F8232000BF02B0704738
:1025F00000E100E082B0034600918DF807309DF9BC
:102600000730002B0ADB009BDAB20C499DF907303A
:102610005201D2B20B4483F800230BE0009BDAB2E4
:1026200007499DF8073003F00F03043B5201D2B273
:102630000B441A7600BF02B0704700BF00E100E013
:1026400000ED00E082B00190019B1B0B5BB21846CD
:1026500002B0704700B583B003460A468DF80730D4
:1026600013468DF806309DF80630072B03D908492C
:102670006B20FEF748FF9DF806209DF907301146B4
:102680001846FFF7B7FF00BF03B05DF804FB00BFBB
:102690000C75000000B583B003468DF807309DF936
:1026A00007301846FFF78CFF00BF03B05DF804FB4E
:1026B00084B001900B46ADF80230BDF80230019AAB
:1026C000134400221A60BDF80230019A13441B68BB
:1026D0000393039B00BF04B0704782B001900B4688
:1026E000ADF80230BDF80230019A13441B68002B8C
:1026F00014BF01230023DBB2184602B0704782B03A
:1027000001900091019B009AC3F8042300BF02B01E
:10271000704782B001900091019BD3F80423009B85
:102720001340002B14BF01230023DBB2184602B074
:10273000704782B001900091019B009AC3F8082372
:1027400000BF02B0704784B00190019BD3F8803481
:102750000393019B039AC3F88024039B184604B09B
:10276000704782B00190019B0422C3F8002500BF8E
:1027700002B0704784B0039002910192039B019ACA
:10278000C3F81425039B029AC3F80C2500BF04B0BC
:10279000704784B0039002910192039B029AC3F8A0
:1027A0000825039B019AC3F8102500BF04B07047A9
:1027B00082B00190019BD3F81835DBB2184602B005
:1027C000704782B001900B468DF803309DF80320CE
:1027D000019BC3F81C2500BF02B0704782B0019076
:1027E0000B468DF803309DF80330019A1344012203
:1027F0001A6000BF02B0704782B001900B468DF89E
:10280000033013468DF802309DF803209DF8023006
:102810001343DBB21A46019BC3F86C2500BF02B01C
:10282000704782B001900091019B009AC3F8242563
:1028300000BF02B07047000000B583B00190019B5B
:102840001B68184600F086F80346002B04D10549A2
:102850004FF4F670FEF757FE4FF0A043184603B052
:102860005DF804FB3C75000000B585B0019008469A
:1028700011461A4603468DF803300B468DF8023098
:1028800013468DF8013001AB1846FFF7D5FF0390D2
:102890009DF803209DF802305B001A439DF801303B
:1028A0009B001A439DF818301B0242EA03019DF871
:1028B0001C301B04019A1943039B02F5E07243F894
:1028C000221000BF05B05DF804FB00B585B0039091
:1028D0000023019300230093002301220121039888
:1028E000FFF7C2FF00BF05B05DF804FB00B585B07F
:1028F00003900B468DF80B309DF80B2000230193BD
:10290000002300931346002200210398FFF7ACFF39
:1029100000BF05B05DF804FB00B585B0019001ABC8
:102920001846FFF789FF0390019B012202FA03F387
:102930001946039800F004F800BF05B05DF804FBE9
:1029400082B001900091019B009AC3F8082500BF56
:1029500002B0704784B00190019B5B090293002391
:102960000393029B002B03D14FF0FF33039300BF6F
:10297000019B03F01F030193039A019B22FA03F3C7
:1029800003F00103002B14BF01230023DBB2184620
:1029900004B0704700B583B001900091009B1B68A4
:1029A000B3F1FF3F09D0009B1B681846FFF7B4FF47
:1029B000009B1B681846FFF788FF009B5B68B3F11C
:1029C000FF3F05D0009B5B6800211846FFF78EFF94
:1029D000019B1A68009B9B6919461046FFF721FF6F
:1029E000019B1868009B597D009B1B7D1A46FFF7D1
:1029F00003FF019B1868009B1968009B5B681A46DF
:102A0000FFF7B8FE009B1B7D012B22D1009B9B682A
:102A1000B3F1FF3F05D0009B9B6800211846FFF7EC
:102A200065FF009BDB68B3F1FF3F09D0009BDB68CB
:102A30001846FFF771FF009BDB681846FFF745FF5C
:102A4000019B1868009BD968009B9B681A46FFF79A
:102A5000A0FE00BF03B05DF804FB000000B583B02A
:102A600001900B468DF80330019B1B684FF48E716B
:102A70001846FFF71DFE019B1B684FF4A271184614
:102A8000FFF716FE019B1B680E491846FFF737FE3D
:102A9000019B1B681846FFF7D5FD03461A469DF8B3
:102AA000033019461046FFF7D5FD019B1B681846F9
:102AB000FFF7C8FD03461846FFF7ECFD00BF03B063
:102AC0005DF804FB8000020000B587B0039002911E
:102AD0000192029B002B03D12D49AA20FEF713FD82
:102AE000039B1B791A462C2303FB02F3294A134448
:102AF000049300230593049B93F82A30002B03D002
:102B000008230593059B3EE0039B1A68039B1B79F2
:102B10001946214B53F8213019461046FFF716FD90
:102B20000346002B03D011230593059B2BE002994C
:102B30000398FFF72FFF049B019A5A60029B1A69C2
:102B4000049B1A60049B5B68002B05D0029B1B7FD3
:102B500019460398FFF782FF039B1B681846FFF78F
:102B600000FE049B00229A61049B0022DA61049B10
:102B7000002283F82920049B00225A61049B012231
:102B800083F82A20059B184607B05DF804FB00BFB8
:102B90007475000090060020C075000000B585B077
:102BA000019000914FF48E710198FFF781FD009B19
:102BB0009A68009B1B6A13441B788DF80F30009BAA
:102BC0001B6A5A1C009B1A629DF80F301946019827
:102BD000FFF7F7FD00BF05B05DF804FB00B585B059
:102BE00001900091009B5B69039316E0009B93F8B2
:102BF0002830DBB2002B01D0002314E04FF48E719B
:102C00000198FFF76AFD034683F00103DBB2002B56
:102C1000ECD100990198FFF7C1FF009B1B6A039A52
:102C20009A42EBD80123184605B05DF804FB00007A
:102C300000B587B0039002910192039B1B791A465D
:102C40002C2303FB02F33C4A13440493049B93F8A4
:102C50002A30012B04D039494FF48C70FEF753FC15
:102C6000029B002B04D1354940F21910FEF74BFCB2
:102C7000019B002B04D131494FF48D70FEF743FCCA
:102C8000039800F05DF80346002B03D01123059351
:102C9000059B4CE0049B019A5A61049B029A9A603E
:102CA000049B00221A62049B002283F82820002340
:102CB0000593039B1B684FF48E711846FFF7F8FCD1
:102CC000039B1B6808211846FFF788FD039B1B68C0
:102CD00004991846FFF762FF049B5B68002B25D11F
:102CE000039B1B6804991846FFF778FF034683F09F
:102CF0000103DBB2002B02D00F23059313E000BFCA
:102D0000039B1B684FF48E711846FFF7E6FC0346E1
:102D100083F00103DBB2002BF2D1039B1B680C2173
:102D20001846FFF75BFD049B00225A61059B18467D
:102D300007B05DF804FB00BF90060020747500002A
:102D400082B00190019B1B791946074A2C2303FB93
:102D500001F3134414331B68002B14BF0123002319
:102D6000DBB2184602B070479006002000B583B071
:102D70000190019B1B684FF492711846FFF798FC75
:102D8000019B1B684FF484711846FFF791FC019B6F
:102D90001B6800211846FFF721FD00BF03B05DF856
:102DA00004FB10B582B001900091009B9B69002B41
:102DB00008D14FF484710198FFF77AFC0198FFF76E
:102DC000F7FC13E04FF484710198FFF771FC009B4E
:102DD000DA68009B5B6AD4180198FFF7E9FC0346A8
:102DE0002370009B5B6A5A1C009B5A6202B010BDA4
:102DF00000B589B0039002910192039B1B791A469A
:102E00002C2303FB02F37F4A13440593039B1B7996
:102E100019467C4A2C2303FB01F313442A331B7805
:102E2000012B04D078494FF4B670FEF76CFB029B7F
:102E3000002B04D1744940F26D10FEF764FB019B36
:102E4000002B04D170494FF4B770FEF75CFB0023F0
:102E50008DF81C30059B5B68002B06D0039B1B681C
:102E60004FF401711846FFF764FC059B9B69002B2A
:102E700015D0059BDB69002B0ED0059B5B68002BF2
:102E800006D0039B1B684FF401711846FFF737FC0F
:102E900011230693069BB0E001238DF81C309DF8AA
:102EA0001C3083F00103DBB2002B0CD0059B019A90
:102EB0009A61059B029ADA60059B00225A62059B83
:102EC0000022DA6105E0059B029A1A61059B019ACE
:102ED000DA61059B93F8293083F00103DBB2002B04
:102EE00009D09DF81C3083F00103DBB2002B02D027
:102EF0000398FFF73BFF059B5B68002B73D1039B97
:102F00001B684FF4A2711846FFF7D2FB039B1B68A6
:102F10004FF492711846FFF7E0FB03468DF81F301F
:102F2000039B1B684FF484711846FFF7D6FB0346DA
:102F30008DF81E30039B1B684FF4A2711846FFF7F3
:102F4000CCFB03468DF81D309DF81E3083F0010345
:102F5000DBB2002B0DD09DF81D3083F00103DBB2F6
:102F6000002B06D09DF81F3083F00103DBB2002B4D
:102F7000CCD19DF81F30002B0FD19DF81D30002BB8
:102F80000BD1039B1B6805991846FFF70AFF059BA9
:102F90009A69059B5B6A9A42B8D8059B00229A61A0
:102FA0009DF81F30002B03D003230693069B24E0DB
:102FB0009DF81D30002B03D00F230693069B1CE0C9
:102FC000059B93F82930002B06D0039B1B6800213A
:102FD0001846FFF703FC0DE0039B1B68042118460D
:102FE000FFF7FCFB06E0039B1B684FF401711846DA
:102FF000FFF785FB00230693069B184609B05DF892
:1030000004FB00BF900600207475000000B589B075
:1030100003900291019201238DF81030029B0693D8
:10302000019B0593039B5B68039A116804AA1046F1
:10303000984700BF09B05DF804FB00B587B0019068
:10304000009100238DF80830009B0493019B9B683E
:103050000393019B00225A61019B5B68019A1168EE
:1030600002AA1046984700BF07B05DF804FB00B500
:103070008BB0019000914FF400710198FFF749FB6C
:103080000346002B39D04FF492710198FFF725FBCE
:103090000346002B31D04FF492710198FFF708FBE3
:1030A0004FF401710198FFF744FB009B93F829301E
:1030B00083F00103DBB2002B03D004210198FFF75A
:1030C0008DFB02238DF80C300198FFF73CFB034683
:1030D0000693009B9B690593009BDB680493009B10
:1030E00000229A61009B0022DA61009B5B68009AD3
:1030F000116803AA1046984752E004210198FFF78F
:1031000008FB0346002B4BD04FF484710198FFF766
:10311000E4FA0346002B43D000990198FFF741FEE3
:10312000009B9A69009B5B6A9A4239D1009BDB69DC
:10313000002B19D0009BDB680993009B5B6A089306
:10314000009BDA69009B9A61009B1A69009BDA6018
:10315000009B0022DA61009B00225A62099A0899BA
:103160000098FFF753FF1BE0009B93F8293083F092
:103170000103DBB2002B03D004210198FFF72EFBE3
:103180004FF401710198FFF7D4FA009B00229A6175
:10319000009B596A009BDB681A460098FFF736FFD0
:1031A0004FF48E710198FFF798FA0346002B24D054
:1031B000009B5B690793009B1B6A079A9A420DD993
:1031C000009B93F82830DBB283F00103DBB2002BC5
:1031D00004D000990198FFF7E1FC0EE04FF48E71E6
:1031E0000198FFF765FA009B5B69002B05D0009BF7
:1031F0005B6919460098FFF720FF4FF4A271019810
:10320000FFF76BFA0346002B1CD04FF4A271019814
:10321000FFF74EFA009B93F82930002B03D00021D2
:103220000198FFF7DBFA009B9B69002B0AD0009BFB
:1032300000229A61009B596A009BDB681A4600983D
:10324000FFF7E4FE00BF0BB05DF804FB08B50349CF
:103250000348FFF70CFF00BF08BD00BF9006002029
:103260000020004082B003468DF807309DF90730FA
:10327000002B0CDB9DF8073003F01F0205499DF978
:1032800007305B09012000FA02F241F8232000BF59
:1032900002B0704700E100E082B0034600918DF873
:1032A00007309DF90730002B0ADB009BDAB20C498E
:1032B0009DF907305201D2B20B4483F800230BE092
:1032C000009BDAB207499DF8073003F00F03043B77
:1032D0005201D2B20B441A7600BF02B0704700BF51
:1032E00000E100E000ED00E082B00190019B03F0FE
:1032F0006043B3F1005F0CBF01230023DBB218462B
:1033000002B0704782B00190019B1B0B5BB2184664
:1033100002B0704700B583B003460A468DF8073007
:1033200013468DF806309DF80630072B03D908495F
:103330006B20FEF7E8F89DF806209DF9073011464E
:103340001846FFF7A9FF00BF03B05DF804FB00BFFC
:10335000C475000000B583B003468DF807309DF9B1
:1033600007301846FFF77EFF00BF03B05DF804FB8F
:1033700084B001900B46ADF80230BDF80230019ADE
:10338000134400221A60BDF80230019A13441B68EE
:103390000393039B00BF04B0704782B001900B46BB
:1033A000ADF80230BDF80230019A13441B68002BBF
:1033B00014BF01230023DBB2184602B0704782B06D
:1033C00001900091019BD3F80022009B1A43019BBE
:1033D000C3F8002200BF02B0704782B00190009194
:1033E000019BD3F80022009BDB431A40019BC3F8EA
:1033F000002200BF02B0704782B001900091019B93
:10340000009AC3F8042300BF02B0704782B0019055
:103410000091019B009AC3F8082300BF02B07047D7
:1034200084B00190019BD3F880340393019B039AED
:10343000C3F88024039B184604B0704782B0019003
:10344000019B0822C3F8002500BF02B0704784B07A
:10345000039002910192039B029AC3F80C25039BEF
:10346000019AC3F8142500BF04B0704784B00390DC
:1034700002910192039B029AC3F80825039B019ACB
:10348000C3F8102500BF04B0704782B001900B460E
:103490008DF803309DF80330019A134401221A601D
:1034A00000BF02B0704782B001900B468DF8033028
:1034B00013468DF802309DF803209DF80230134327
:1034C000DBB21A46019BC3F86C2500BF02B07047FF
:1034D00082B001900091019B009AC3F8242500BF9F
:1034E00002B0704784B0039002910192029A039B4C
:1034F000C3F84425039B019AC3F8482500BF04B0D4
:10350000704782B00190019BD3F84C35184602B049
:10351000704784B0039002910192029A039BC3F812
:103520003425039B019AC3F8382500BF04B07047C7
:1035300082B00190019BD3F83C35184602B0704729
:1035400000B583B00190019B1B68184600F086F817
:103550000346002B04D105494FF4F670FDF7D3FF65
:103560004FF0A043184603B05DF804FBF47500006B
:1035700000B585B00190084611461A4603468DF8FD
:1035800003300B468DF8023013468DF8013001AB45
:103590001846FFF7D5FF03909DF803209DF80230F1
:1035A0005B001A439DF801309B001A439DF81830C8
:1035B0001B0242EA03019DF81C301B04019A1943C7
:1035C000039B02F5E07243F8221000BF05B05DF8DE
:1035D00004FB00B585B00390002301930023009302
:1035E0000023012201210398FFF7C2FF00BF05B0AD
:1035F0005DF804FB00B585B003900B468DF80B30E9
:103600009DF80B2000230193002300931346002212
:1036100000210398FFF7ACFF00BF05B05DF804FB85
:1036200000B585B0019001AB1846FFF789FF039004
:10363000019B012202FA03F31946039800F004F8F3
:1036400000BF05B05DF804FB82B001900091019BC2
:10365000009AC3F8082500BF02B0704784B00190FB
:10366000019B5B09029300230393029B002B03D170
:103670004FF0FF33039300BF019B03F01F0301933F
:10368000039A019B22FA03F303F00103002B14BFFA
:1036900001230023DBB2184604B0704700B583B0A5
:1036A00001900091009B1B68B3F1FF3F09D0009B84
:1036B0001B681846FFF7B4FF009B1B681846FFF70E
:1036C00088FF009B5B68B3F1FF3F05D0009B5B6800
:1036D00000211846FFF78EFF019B1A68009B9B692B
:1036E00019461046FFF7F4FE019B1868009B597DB0
:1036F000009B1B7D1A46FFF7D6FE019B1868009BB6
:103700001968009B5B681A46FFF7A1FE009B1B7DB2
:10371000012B22D1009B9B68B3F1FF3F05D0009B9A
:103720009B6800211846FFF765FF009BDB68B3F13B
:10373000FF3F09D0009BDB681846FFF771FF009B35
:10374000DB681846FFF745FF019B1868009BD968A6
:10375000009B9B681A46FFF789FE00BF03B05DF827
:1037600004FB000000B583B001900B468DF80330D8
:10377000019B1B684FF488711846FFF7F9FD019B08
:103780001B684FF490711846FFF7F2FD019B1B6810
:103790004FF492711846FFF7EBFD019B1B684FF445
:1037A000A2711846FFF7E4FD019B1B684FF4AC7152
:1037B0001846FFF7DDFD019B1B680F491846FFF710
:1037C0001BFE019B1B681846FFF79CFD03461A462B
:1037D0009DF8033019461046FFF79CFD019B1B68BE
:1037E0001846FFF78FFD03461846FFF7B3FD00BFED
:1037F00003B05DF804FB00BF1003420000B587B0C2
:10380000039002910192029B002B03D12B49CF2000
:10381000FDF779FE039B1B791A461346DB00134420
:103820009B00274A1344049300230593049B93F8B9
:103830002030002B03D008230593059B3AE0039B1F
:103840001A68039B1B7919461E4B53F82130194601
:103850001046FEF77BFE0346002B03D01123059391
:10386000059B27E002990398FFF718FF049B019A34
:103870005A60029B1A69049B1A60049B5B68002BC8
:1038800005D0029B1B7F19460398FFF76BFF039B34
:103890001B681846FFF7D2FD049B00229A61049B27
:1038A0000022DA61049B00225A61049B012283F802
:1038B0002020059B184607B05DF804FB2C7600001D
:1038C000BC0600207876000000B589B00390029114
:1038D0000192039B1B791A461346DB0013449B009D
:1038E000564A13440593059B93F82030012B04D0CE
:1038F000534940F25310FDF706FE029B002B04D102
:103900004F494FF4AA70FDF7FEFD019B002B04D137
:103910004B4940F25510FDF7F6FD039B1B79002B38
:1039200002D1019BFF2B04D945494FF4AB70FDF741
:10393000EAFD0298FFF7D8FC034683F00103DBB2EF
:10394000002B03D010230693069B73E0039800F02E
:1039500079F80346002B03D011230693069B69E0F8
:10396000059B019A5A61059B029A9A60002306936F
:10397000039B1B684FF490711846FFF7F9FC039BFB
:103980001B684FF4AC711846FFF7F2FC039B1868F4
:10399000059B9968059B5B691A46FFF7A3FD039B8E
:1039A0001B6808211846FFF770FD059B5B68002B1C
:1039B0003FD1039B1B684FF490711846FFF7EDFC55
:1039C00003468DF81F30039B1B684FF4AC711846FB
:1039D000FFF7E3FC03468DF81E309DF81F3083F09F
:1039E0000103DBB2002B06D09DF81E3083F00103EB
:1039F000DBB2002BDDD19DF81E30002B02D00F234F
:103A0000069313E0039B1B680C211846FFF73DFD4E
:103A100000BF039B1B684FF4AC711846FFF7BDFC59
:103A2000034683F00103DBB2002BF2D1059B002299
:103A30005A61069B184609B05DF804FBBC060020DD
:103A40002C76000082B00190019B1B791946084A30
:103A50000B46DB000B449B00134414331B68002B04
:103A600014BF01230023DBB2184602B0704700BF29
:103A7000BC06002000B589B0039002910192039B1F
:103A80001B791A461346DB0013449B00864A1344F5
:103A90000593039B1B791946834A0B46DB000B44B5
:103AA0009B00134420331B78012B04D07F494FF433
:103AB000D370FDF728FD029B002B04D17B4940F217
:103AC000A710FDF720FD019B002B04D177494FF48F
:103AD000D470FDF718FD039B1B79002B02D1019BCD
:103AE000FF2B04D9714940F2A910FDF70CFD029893
:103AF000FFF7FAFB034683F00103DBB2002B03D090
:103B000010230793079BCAE000238DF81B30059B09
:103B10005B68002B06D0039B1B684FF404711846AA
:103B2000FFF774FC059B9B69002B15D0059BDB6997
:103B3000002B0ED0059B5B68002B06D0039B1B68F7
:103B40004FF404711846FFF757FC11230793079BA6
:103B5000A5E001238DF81B309DF81B3083F0010395
:103B6000DBB2002B09D0059B019A9A61059B029A52
:103B7000DA60059B0022DA6105E0059B029A1A6172
:103B8000059B019ADA6100230793039B1B684FF49E
:103B900088711846FFF7ECFB039B1B684FF4A2717A
:103BA0001846FFF7E5FB039B1B68019A029918462C
:103BB000FFF7AFFC9DF81B3083F00103DBB2002B55
:103BC00006D0039B1B6800211846FFF75EFC05E04A
:103BD000039B1B6820211846FFF7F1FB039B1B7911
:103BE0001946314A0B46DB000B449B001344043357
:103BF0001B68002B4BD1039B1B684FF48871184640
:103C0000FFF7CBFB03468DF81330039B1B684FF483
:103C1000A2711846FFF7C1FB03468DF81230039BD3
:103C20001B684FF492711846FFF7B7FB03468DF8F7
:103C300011309DF8133083F00103DBB2002B0DD05F
:103C40009DF8123083F00103DBB2002B06D09DF803
:103C5000113083F00103DBB2002BCCD1039B1B7925
:103C60001946114A0B46DB000B449B0013441833E2
:103C700000221A609DF81130002B01D00323079316
:103C80009DF81230002B09D00F23079306E0039B09
:103C90001B684FF404711846FFF7AEFB079B1846EC
:103CA00009B05DF804FB00BFBC0600202C760000C4
:103CB00000B589B003900291019201238DF8103074
:103CC000029B0693019B0593039B5B68039A116813
:103CD00004AA1046984700BF09B05DF804FB00B580
:103CE00087B00190009100238DF80830009B049369
:103CF000019B9B680393019B00225A61019B5B68B7
:103D0000019A116802AA1046984700BF07B05DF8F3
:103D100004FB00B589B0019000914FF492710198B5
:103D2000FFF73BFB0346002B22D04FF49271019822
:103D3000FFF71EFB02238DF808300198FFF770FB98
:103D4000034605930198FFF7F3FB03460493009B9A
:103D5000DB680393009B00229A61009B0022DA61DA
:103D6000009B5B68009A116802AA104698473BE0E6
:103D70004FF488710198FFF710FB0346002B33D0F6
:103D80004FF488710198FFF7F3FA0198FFF7D0FB21
:103D90000790009B9B69079A9A4225D1009BDB699B
:103DA000002B17D0009BDB68069320210198FFF7BA
:103DB00014FB009BDA69009B9A61009B1A69009BC7
:103DC000DA60009B0022DA61069A07990098FFF7F3
:103DD0006FFF09E0009B00229A61009BDB681A4696
:103DE00007990098FFF764FF4FF4A2710198FFF75D
:103DF000D4FA0346002B18D04FF4A2710198FFF7B4
:103E0000B7FA009B9B69002B0FD0009B00229A61A0
:103E1000009B0022DA610198FFF78AFB0146009BB4
:103E2000DB681A460098FFF743FF4FF49071019842
:103E3000FFF7B3FA0346002B14D04FF490710198AA
:103E4000FFF796FA0C210198FFF71FFB009B5B69B7
:103E5000002B07D00198FFF754FB03461946009842
:103E6000FFF73DFF4FF4AC710198FFF796FA034658
:103E7000002B10D04FF4AC710198FFF779FA009B3A
:103E80005B69002B07D00198FFF73BFB03461946FF
:103E90000098FFF724FF00BF09B05DF804FB0000A5
:103EA00008B503490348FFF734FF00BF08BD00BF52
:103EB000BC0600200020004082B003468DF8073089
:103EC0009DF90730002B0CDB9DF8073003F01F0233
:103ED00005499DF907305B09012000FA02F241F81B
:103EE000232000BF02B0704700E100E082B003462B
:103EF00000918DF807309DF90730002B0ADB009BFD
:103F0000DAB20C499DF907305201D2B20B4483F862
:103F100000230BE0009BDAB207499DF8073003F05D
:103F20000F03043B5201D2B20B441A7600BF02B019
:103F3000704700BF00E100E000ED00E082B00190BA
:103F4000019B1B0B5BB2184602B0704700B583B0F3
:103F500003460A468DF8073013468DF806309DF863
:103F60000630072B03D908496B20FDF7CCFA9DF8E2
:103F700006209DF9073011461846FFF7B7FF00BF2E
:103F800003B05DF804FB00BF7C76000000B583B091
:103F900003468DF807309DF907301846FFF78CFF70
:103FA00000BF03B05DF804FB00B583B00346ADF875
:103FB0000630BDF80630184600F026F803461B68A8
:103FC000012B0CBF01230023DBB2184603B05DF8C0
:103FD00004FB00B585B00346ADF80630BDF80630E9
:103FE000184600F011F803461A4600231360BDF886
:103FF0000630184600F008F803461B680393039B3D
:1040000000BF05B05DF804FB82B00346ADF8063092
:10401000BDF8063003F1804303F5C043184602B0F3
:104020007047000082B00190034A019BC2F804333C
:1040300000BF02B0704700BF0060004082B0019036
:10404000034BD3F80423019B1340184602B070477A
:104050000060004082B00190054A019B03F5A27305
:1040600052F823301B0A03F01F03184602B07047B2
:104070000060004082B00190064A019B03F5A273E4
:1040800052F823301B0C03F00303DBB2184602B0D6
:10409000704700BF0060004084B003900291114659
:1040A0001A460B468DF8073013468DF80630184A2D
:1040B000039B03F5A27352F82330154923F4981398
:1040C00023F4F853039A02F5A27241F82230104A01
:1040D000039B03F5A27352F82320029B1B0203F4F7
:1040E000F8519DF807301B0403F4403319439DF841
:1040F00006301B0503F480130B4305491A43039B49
:1041000003F5A27341F8232000BF04B0704700BF3D
:104110000060004000B583B00190019B1B68184609
:1041200000F013F90346002B04D105494FF4F67053
:10413000FDF7E9F94FF0A043184603B05DF804FB22
:10414000AC76000000B585B00190084611461A46CD
:1041500003468DF803300B468DF8023013468DF878
:10416000013001AB1846FFF7D5FF03909DF80320FF
:104170009DF802305B001A439DF801309B001A4302
:104180009DF818301B0242EA03019DF81C301B0405
:10419000019A1943039B02F5E07243F8221000BF15
:1041A00005B05DF804FB00B585B0039000230193D2
:1041B000002300930023012201210398FFF7C2FF8F
:1041C00000BF05B05DF804FB00B585B001900B465B
:1041D0008DF8033001AB1846FFF79CFF0390019A5E
:1041E000039B02F5E07253F82230019A23F4403128
:1041F000039B02F5E07243F82210019A039B02F53B
:10420000E07253F822309DF8032012041146019AFF
:104210001943039B02F5E07243F8221000BF05B07A
:104220005DF804FB00B585B0019001AB1846FFF7BF
:1042300071FF0390019B012202FA03F319460398D0
:1042400000F02EF800BF05B05DF804FB00B585B0A6
:10425000019001AB1846FFF75DFF0390019B01221F
:1042600002FA03F31946039800F024F800BF05B0E2
:104270005DF804FB00B585B0019001AB1846FFF76F
:1042800049FF0390019A039B02F5E07253F8223034
:104290001B0C03F00303DBB2184605B05DF804FB0A
:1042A00082B001900091019B009AC3F8082500BFDD
:1042B00002B0704782B001900091019B009AC3F850
:1042C0000C2500BF02B0704786B0039002910192A6
:1042D0004FF0A0430493039B059319E0059B9B00BB
:1042E00006AA134453F8083CD3F82025019B1A6012
:1042F000059B9B0006AA134453F8083C019A1268D8
:10430000C3F82025019B04330193059B01330593DA
:10431000039A029B1344059A9A42DFD300BF06B06A
:10432000704700B585B0019001AB1846FFF7F2FE6B
:104330000390019B012202FA03F31A46039BC3F880
:10434000202500BF05B05DF804FB84B00190019BFF
:104350005B09029300230393029B002B03D14FF0D0
:10436000FF33039300BF019B03F01F030193039AE4
:10437000019B22FA03F303F00103002B14BF012376
:104380000023DBB2184604B0704784B0019000915E
:10439000009B0393019BDB080293019B03F007033F
:1043A00001930122019B02FA03F30399029A0A4442
:1043B00012781340184604B0704784B00190009101
:1043C000009B0393019BDB080293019B03F007030F
:1043D0000193039A029B13441B785AB20121019B5B
:1043E00001FA03F35BB2134359B2039A029B1344DD
:1043F000CAB21A7000BF04B07047000082B00190CA
:10440000074A019B1344303393F90030B3F1FF3F67
:1044100014BF01230023DBB2184602B0704700BF6F
:10442000E006002082B001900C4A019B1344303317
:1044300093F90030002B09DB084A019B1344303309
:1044400093F90030072B01DC012300E0002303F087
:104450000103DBB2184602B0704700BFE00600203F
:1044600084B00390029101928DF80330029B59B2FF
:104470000E4A039B134430330A461A700B49029BC1
:10448000019A41F823209DF8033083F00103DBB249
:10449000002B08D0029B083B039A51B2034A1344F5
:1044A0000A4683F8502000BF04B07047E0060020A1
:1044B00082B00190044A019B13443033FE221A70EB
:1044C00000BF02B0704700BFE006002082B001903C
:1044D000044A019B13443033FF221A7000BF02B01C
:1044E000704700BFE006002000B583B0019004498A
:1044F0000198FFF762FF00BF03B05DF804FB00BF47
:104500003407002082B00190044A019B13443033E9
:1045100093F90030184602B0704700BFE006002053
:1045200082B00190034A019B52F82330184602B032
:10453000704700BFE006002084B00190074A019B4D
:104540001344503393F900308DF80F309DF80F303D
:1045500023F0C003184604B0704700BFE0060020F7
:1045600084B00190074A019B1344503393F9003003
:104570008DF80F309DF80F309B09DBB2184604B060
:10458000704700BFE006002000B589B0039002919B
:1045900013468DF80730FF238DF81F309DF8073044
:1045A000002B01D0002300E0082305939DF807307D
:1045B000002B01D0082300E00C230493059B0693F5
:1045C00014E00F4A069B52F82330B3F1FF3F0AD1A3
:1045D0009DF80730029A06990398FFF741FF069B62
:1045E0008DF81F3006E0069B01330693069A049B64
:1045F0009A42E6D39DF91F30184609B05DF804FBD6
:10460000E006002082B003468DF807309DF80730A1
:10461000094A4FF0FF3142F823109DF80730072B6D
:1046200007D99DF80730083B034A1344FF2283F85B
:10463000502000BF02B07047E006002000B583B0F4
:104640002D4B93F85830002B03D008230093009B88
:104650004EE000238DF8073011E09DF80730184632
:10466000FFF773FE0346002B04D09DF80730184671
:10467000FFF72CFF9DF8073001338DF807309DF8C8
:1046800007301F2BE9D900238DF8073009E09DF88A
:1046900007301846FFF7B6FF9DF8073001338DF855
:1046A00007309DF807300B2BF1D904220021134865
:1046B00002F009FB1248FFF741FC034607211846A8
:1046C000FFF744FC0E48FFF739FC03461846FFF796
:1046D0005DFC4FF4BE70FFF77CFC4FF00040FFF72D
:1046E000A1FC054B012283F8582000230093009B76
:1046F000184603B05DF804FBE006002034070020F4
:104700000060004000B585B0019000910198FFF76E
:104710001CFE0346002B04D12D4940F24910FCF742
:10472000F2FE2C4B93F85830012B04D028494FF45B
:10473000A570FCF7E8FE009B002B04D1244940F251
:104740004B10FCF7E0FE002303930198FFF756FEA1
:104750000346002B02D00823039334E0009B9B7890
:10476000002B19D0012200210198FFF70DFF03460D
:104770008DF80B309DF90B30B3F1FF3F09D09DF957
:104780000B00009B1A78009B5B780199FFF784FC73
:1047900005E00423039302E00198FFF789FE039BE1
:1047A000002B10D1009B5B78012B03D10198FFF700
:1047B00039FD02E00198FFF749FD0198FFF7F3FC8E
:1047C0000198FFF791FE039B184605B05DF804FBC6
:1047D000E4760000E006002000B583B00190019867
:1047E000FFF7B3FD0346002B04D1124940F29510A8
:1047F000FCF789FE0198FFF701FE0346002B04D168
:104800000C494FF4CB70FCF77EFE0198FFF70AFECF
:10481000034683F00103DBB2002B04D1054940F2CB
:104820009710FCF770FE0198FFF7FCFC00BF03B087
:104830005DF804FBE476000000B583B001900198B8
:10484000FFF783FD0346002B04D1124940F29F106D
:10485000FCF759FE0198FFF7D1FD0346002B04D168
:104860000C494FF4D070FCF74EFE0198FFF7DAFDCB
:10487000034683F00103DBB2002B04D1054940F26B
:10488000A110FCF740FE0198FFF7E0FC00BF03B069
:104890005DF804FBE476000000B585B00190019A54
:1048A00001210020FFF710FD002303930BE0039B81
:1048B0009B00019A13441B68002B01D0012306E0E2
:1048C000039B01330393039B002BF0D00023184676
:1048D00005B05DF804FB000000B587B0019000232F
:1048E00005935BE0344A059B1344503393F9003041
:1048F000B3F1FF3F4ED00598FFF71EFE04900199DB
:104900000498FFF742FD0346002B44D00598FFF7BB
:1049100027FE03468DF80F300498FFF7ABFC0346E3
:104920008DF80E309DF80E30022B01D1032300E0EC
:1049300002238DF80D309DF80D3019460498FFF7CD
:1049400043FC0498FFF7EDFC0498FFF7DBFD0346FA
:104950001846FFF7E5FD0290029B002B1BD09DF847
:104960000F30032B0FD09DF80E30022B03D19DF892
:104970000F30012B07D09DF80E30032B0BD19DF883
:104980000F30022B07D19DF80F20029B114604988F
:10499000984700E000BF059B01330593059B032B5F
:1049A000A0D90198FFF778FF0346002B97D100BFED
:1049B00007B05DF804FB00BFE006002000B589B039
:1049C00000230693002300934FF48073ADF8123058
:1049D000012307930023059321E0BDF81230184608
:1049E000FFF7E2FA0346002B0ED00798FFF726FBED
:1049F0000346002B08D0BDF812301846FFF7E9FA3D
:104A0000069A079B13430693079B5B000793BDF829
:104A100012300433ADF81230059B01330593059B2A
:104A2000072BDAD94FF4BE70FFF7BEFA0346002B0E
:104A30000DD04FF4BE70FFF7CCFA069B43F0004355
:104A400006936B461A4601210020FFF73DFC069BAA
:104A5000DBB2002B29D0012307930023059321E02B
:104A6000079A069B1340002B16D00598FFF7F2FA21
:104A700003900598FFF7FEFA03468DF80B30059872
:104A8000FFF74EFD0190019B002B05D09DF80B20F8
:104A9000019B114603989847079B5B000793059B72
:104AA00001330593059B072BDAD9069B002B03DA0C
:104AB0006B461846FFF710FF00BF09B05DF804FB16
:104AC00082B003468DF807309DF90730002B0CDBD0
:104AD0009DF8073003F01F0205499DF907305B0977
:104AE000012000FA02F241F8232000BF02B0704713
:104AF00000E100E082B0034600918DF807309DF997
:104B00000730002B0ADB009BDAB20C499DF9073015
:104B10005201D2B20B4483F800230BE0009BDAB2BF
:104B200007499DF8073003F00F03043B5201D2B24E
:104B30000B441A7600BF02B0704700BF00E100E0EE
:104B400000ED00E000B583B003460A468DF807305B
:104B500013468DF806309DF80630072B03D9084917
:104B60006B20FCF7D0FC9DF806209DF9073011461C
:104B70001846FFF7BFFF00BF03B05DF804FB00BF9E
:104B80003477000000B583B003468DF807309DF9F7
:104B900007301846FFF794FF00BF03B05DF804FB31
:104BA00082B003468DF807309DF8073003F180434B
:104BB00003F5E04301221A6000BF02B0704782B0E3
:104BC0000346ADF80630BDF8063003F1804303F527
:104BD000E0431B68002B14BF01230023DBB21846FF
:104BE00002B0704784B00346ADF80630BDF8063019
:104BF00003F1804303F5E04300221A60BDF806305C
:104C000003F1804303F5E0431B680393039B00BF5C
:104C100004B0704782B003468DF807300B468DF81C
:104C2000063013468DF805300A499DF807309DF887
:104C3000052051331B010B4404331A6005499DF8CC
:104C400007309DF8062051331B010B441A6000BF4A
:104C500002B070470070004082B00190034A019B8F
:104C6000C2F8043300BF02B0704700BF00700040BC
:104C700082B00190034A019BC2F8083300BF02B022
:104C8000704700BF00700040024B0122C3F80025AE
:104C900000BF704700700040024B0022C3F800259F
:104CA00000BF70470070004082B001900091054A3B
:104CB000019BC2F82C36034A009BC2F8303600BF75
:104CC00002B070470070004082B003468DF8073094
:104CD000034A9DF80730C2F8F03500BF02B07047B4
:104CE0000070004082B003468DF80730034A9DF8FB
:104CF0000730C2F8F43500BF02B0704700700040C2
:104D0000024BD3F8F435DBB2184670470070004010
:104D100000B583B0034600918DF80730009B1B78E7
:104D200003F00302009B5B781B0103F030031A437E
:104D3000009B9B781B0203F4E0631A43009BDB7823
:104D40001B0303F480531A43009B1B791B0403F4D9
:104D5000E0231A43009B5B791B0503F4801342EAAE
:104D60000301009B9B791B0603F080720A489DF8A3
:104D700007300A431B01034403F5A3631A60009B39
:104D8000D979009B1A7A9DF807301846FFF742FF41
:104D900000BF03B05DF804FB0070004000B58FB0A9
:104DA0004FF48270FFF70BFF0346002B46D04FF401
:104DB0008270FFF717FF904B93F82E3083F00103BA
:104DC000DBB2002B04D18C4B93F82F30002B35D065
:104DD00000238DF81C30884B5B680893864B1B8939
:104DE0009BB2ADF82430844BDB68002B03D1824B9F
:104DF00000221A7419E0804B1A8B7F4B5A837E4B2A
:104E0000DB687D4A53607C4B1A8B7B4B1A817A4B53
:104E10000022DA60784B93F82E3083F00103DBB286
:104E2000002B02D00020FFF7BBFE734B1B6807AAC4
:104E300010469847704B002283F82F206E4B93F852
:104E40002E30002B62D04FF48070FFF7B8FE03467F
:104E5000002B5BD04FF48070FFF7C4FE664B5A8B7B
:104E6000654B93F82D309BB29A421CD9624B5A8BFA
:104E7000614B93F82D309BB2D31A9AB25E4B5A8392
:104E80005D4B5A685C4B1B899BB219465A4B5B8B36
:104E9000CB1A5B001A44584B93F82D301946104634
:104EA000FFF702FF2BE0544B5A8B534B93F82D30F6
:104EB0009BB29A4214D1504BDB68002B10D04E4B62
:104EC000012283F82F204C4B00225A834A4BDA6888
:104ED000494B93F82D3019461046FFF7E5FE0EE0DA
:104EE000454B5A8B444B93F82D309BB29A4206D1D6
:104EF000414B012283F82F203F4B00225A834FF46D
:104F00008270FFF76FFE0420FFF74AFE4FF48870AF
:104F1000FFF755FE0346002B0ED04FF48870FFF7C5
:104F200061FE354B00221A7402238DF81030324B8B
:104F30001B6804AA104698474FF48A70FFF73FFE9B
:104F40000346002B07D04FF48A70FFF74BFE2A4B25
:104F500000221A744CE0284B5B690D9345E00D9BD1
:104F60000A930A9B002B01D1202303E00A9BB3FA8A
:104F700083F3DBB20C934FF000420C9B22FA03F355
:104F8000DB430D9A13400D930C9B9BB246339BB2AF
:104F90009B00ADF82E30BDF82E301846FFF70FFEFF
:104FA0000346002B21D0BDF82E301846FFF71AFE1D
:104FB00001238DF80430BDF82E30A3F58C73DB0887
:104FC000DBB28DF80830BDF82E30A3F58C7303F0FA
:104FD0000403002B0CBF01230023DBB28DF8093042
:104FE000054B1B6801AA104698470D9B002BB6D1B4
:104FF00000BF0FB05DF804FB3C07002000B585B092
:1050000001900091019B002B03D13249D820FCF77D
:105010007AFA009B002B03D12E49D920FCF773FAB2
:105020002D4B93F82C30002B03D008230393039BC4
:105030004CE0294A009B1360019B1B781846FFF740
:1050400043FE019B5B781846FFF74CFE019BDA7824
:10505000214B83F82E20204B012283F82C201E4B5D
:1050600000221A741C4B002283F82D201A4B0022B8
:105070005A61194B002283F82F206FF00040FFF790
:10508000F7FD4FF48270FFF7ADFD4FF48070FFF72E
:10509000A9FD4FF48A70FFF7A5FD019B9B78194687
:1050A0000720FFF74FFD0720FFF76CFD0220FFF7F9
:1050B000D3FD094B93F82E30002B02D00120FFF7CF
:1050C000CBFDFFF7E1FD00230393039B184605B0DA
:1050D0005DF804FB9C7700003C07002000B585B01C
:1050E000034600918DF80730434B93F82C30002B8A
:1050F00004D1424940F22510FCF705FA9DF807302B
:10510000072B04D93D494FF49370FCF7FCF9FFF7E6
:10511000F7FD0346002B09D0374B93F82D30002BB9
:1051200004D0364940F22910FCF7EDF9009BDB79F9
:10513000092B03D8009BDB79002B04D12F4940F2C7
:105140003110FCF7E0F9009B1B7A092B04D92B499D
:105150004FF49970FCF7D7F9274B1B7CDBB2002B7F
:1051600003D011230393039B41E0009B1B79002B89
:1051700003D0009B1B79012B01D1FFF78DFD9DF81A
:1051800007301D4A0C335B0013441B79002B07D1F9
:10519000194B93F82D300133DAB2174B83F82D20D9
:1051A0009DF80730009AD179134A0C335B00134401
:1051B0000A461A719DF80730009A117A0E4A0C338C
:1051C0005B0013440A465A719DF80730009918464F
:1051D000FFF79EFD009B1B79002B03D0009B1B79E2
:1051E000012B01D1FFF750FD00230393039B1846C9
:1051F00005B05DF804FB00BF3C0700209C77000071
:1052000000B585B001900B46ADF802304C4B93F8D9
:105210002C30002B04D14B494FF4E470FCF773F9A8
:10522000BDF80230464A92F82D2093FBF2F102FBC2
:1052300001F29B1A002B04D0424940F2C910FCF73E
:1052400062F91220FFF714FD3D4B1B7CDBB2022BF1
:1052500006D11220FFF700FD11230393039B6BE09F
:10526000374B1B7CDBB2012B35D1354BDB68002B78
:1052700006D00220FFF7F0FC11230393039B5BE0B1
:105280002F4A019BD3602E4ABDF8023013832C4B6A
:1052900093F82E3083F00103DBB2002B14D000BF53
:1052A0004FF48070FFF78BFC034683F00103DBB201
:1052B000002BF5D14FF48070FFF794FCBDF802305D
:1052C00019460198FFF7F0FC0220FFF7C5FC002308
:1052D0000393039B30E00220FFF7BEFC184B012232
:1052E0001A74174A019B5360154ABDF802301381A6
:1052F000134B0022DA60124B93F82E30002B0BD0A8
:105300000F4ABDF8023053830D4B93F82D301946E8
:105310000198FFF7C9FC0CE0BDF80230194601986E
:10532000FFF7C2FC4FF48070FFF75CFC0020FFF732
:1053300037FC00230393039B184605B05DF804FB7C
:105340003C0700209C77000084B001900B46ADF82C
:105350000230BDF80230019A134400221A60BDF8F1
:105360000230019A13441B680393039B00BF04B0EF
:10537000704782B001900B46ADF80230BDF80230A4
:10538000019A13441B68002B14BF01230023DBB2D6
:10539000184602B0704782B001900091019BD3F88B
:1053A0000423009B1340002B14BF01230023DBB216
:1053B000184602B0704782B00190019B9B0003F534
:1053C000A0739BB2184602B0704782B001904FF4B0
:1053D0008032019B02FA03F3184602B0704700B511
:1053E00087B00390029113468DF8073000238DF8A3
:1053F000173030E09DF817301846FFF7DCFF034602
:10540000ADF814309DF817301846FFF7DEFF049012
:10541000BDF8143019460398FFF7ABFF0346002B85
:1054200014D004990398FFF7B6FF0346002B0DD064
:10543000BDF8143019460398FFF786FF029B1B68DE
:10544000029A5168BDF81420104698479DF817300D
:1054500001338DF817309DF817209DF807309A42D8
:10546000C8D300BF07B05DF804FB000008B50622F2
:1054700002490348FFF7B3FF00BF08BD6C070020D7
:1054800000A0014000B585B00190019B002B0AD01F
:10549000074B43F001030393019B9B010293039B82
:1054A0000298984700E000BF05B05DF804FB00BF1C
:1054B0001079000000B583B00190019B002B0AD049
:1054C0004FF47A70FFF7DEFF019B013B0193019BD4
:1054D000002BF5D100E000BF03B05DF804FB000035
:1054E00000B583B001900091019B002B01D1054BC9
:1054F000019300990198FFF781FD0346184603B018
:105500005DF804FB0C79000000B583B00190019BAD
:105510001B78022B07D1019B5B680E4A812118463C
:10552000FBF73AFC12E0019B1B78012B07D1019B92
:105530005B68084A85211846FBF72EFC06E0019BB4
:105540001B78032B02D1044B00221A7000BF03B05A
:105550005DF804FB707800007807002000B58FB07C
:10556000FFF76CF80D900D9B0C930C9B002B04D057
:10557000624A94210C98FBF70FFC01238DF8003050
:1055800000238DF8013000238DF802306B46194658
:105590001020FFF7B7F80D900D9B0B930B9B002B82
:1055A00004D0564A99210B98FBF7F6FB6B46194637
:1055B0001820FFF7A7F80D900D9B0A930A9B002B6C
:1055C00004D04E4A9C210A98FBF7E6FB6B4619462D
:1055D0001920FFF797F80D900D9B0993099B002B5D
:1055E00004D0464A9F210998FBF7D6FB6B46194623
:1055F0001E20FFF787F80D900D9B0893089B002B4A
:1056000004D03E4AA2210898FBF7C6FB6B46194618
:105610001720FFF777F80D900D9B0793079B002B42
:1056200004D0364AA5210798FBF7B6FB6B4619460E
:105630001620FFF767F80D900D9B0693069B002B35
:1056400004D02E4AA8210698FBF7A6FB6B46194604
:105650001420FFF757F80D900D9B0593059B002B29
:1056600004D0264AAB210598FBF796FB6B461946FA
:105670001320FFF747F80D900D9B0493049B002B1C
:1056800004D01E4AAE210498FBF786FB6B461946F0
:105690000E20FFF737F80D900D9B0393039B002B13
:1056A00004D0164AB1210398FBF776FB6B461946E6
:1056B0000D20FFF727F80D900D9B0293029B002B06
:1056C00004D00E4AB4210298FBF766FB6B461946DC
:1056D0001F20FFF717F80D900D9B0193019B002BE6
:1056E00004D0064AB7210198FBF756FB1F20FFF7AD
:1056F00073F800BF0FB05DF804FB00BF70780000C6
:1057000000B589B00190019B1B78002B42D1019B11
:105710005B6804211846FFF773FD0690069B05930E
:10572000059B002B04D01D4ACA210598FBF734FBCA
:105730000023079323E0019B5A68079B5B001344F7
:10574000B3F90030002B06DA019B5A68079B5B0017
:10575000134400221A80019B5A68079B5B00134484
:10576000B3F90030ADF81230BDF81230D9B20C4A9E
:10577000079B13440A461A70079B01330793079B44
:10578000032BD8DD074B1B680133064A1360064B19
:1057900000221A7000BF09B05DF804FB70780000A9
:1057A000900700208C0700207907002000B597B0F3
:1057B00000238DF8343000238DF8353006238DF822
:1057C000363000238DF8373000238DF83430524ABC
:1057D0000AAB07CA03C31A7005238DF82A300123C8
:1057E0008DF82B304D4A07AB07CA03C31A70052347
:1057F0008DF81E3001238DF81F30494A04AB07CACB
:1058000003C31A7005238DF8123001238DF813306D
:10581000444A01AB07CA03C31A7005238DF806304A
:1058200001238DF807300DAB3F491846FFF758FEAE
:105830001590159B1493149B002B05D03B4A40F206
:1058400013111498FBF7A8FA0AAB19460020FFF7CA
:1058500045FC1590159B1393139B002B05D0334AE1
:105860004FF48B711398FBF797FA07AB1946012099
:10587000FFF734FC1590159B1293129B002B05D05B
:105880002A4A4FF48C711298FBF786FA04AB19463A
:105890000220FFF723FC1590159B1193119B002B01
:1058A00005D0224A4FF48D711198FBF775FA01ABC0
:1058B00019460320FFF712FC1590159B1093109BBF
:1058C000002B05D0194A4FF48E711098FBF764FA3B
:1058D00004211748FFF794FC1590159B0F930F9B1D
:1058E000002B05D0114A40F21F110F98FBF754FA14
:1058F00004211048FFF784FC1590159B0E930E9B16
:10590000002B05D0094A40F221110E98FBF744FA0A
:1059100000BF17B05DF804FBC0780000CC78000031
:10592000D8780000E478000001570000707800008B
:105930007C0700208407002000B583B003468DF863
:105940000730094B01221A709DF8073000211846D4
:10595000FCF7D4F800BF044B1B78DBB2002BFAD164
:1059600000BF03B05DF804FB7807002000B583B0EA
:1059700003468DF807309DF80730FF2B02D1FE2338
:105980008DF807309DF807301846FFF7D5FF00BFA8
:1059900003B05DF804FB00B583B003468DF8073013
:1059A0001820FEF719FF1920FEF716FF1E20FEF73C
:1059B00013FF0320FFF77EFD9DF8073003F001037E
:1059C000002B03D01320FEF707FF02E01320FEF7A1
:1059D00033FF9DF8073003F00203002B03D014209F
:1059E000FEF7FAFE02E01420FEF726FF9DF80730CE
:1059F00003F00403002B03D01620FEF7EDFE02E0B7
:105A00001620FEF719FF9DF8073003F00803002B5E
:105A100003D01720FEF7E0FE02E01720FEF70CFF90
:105A20009DF807300F2B09D81820FEF705FF192025
:105A3000FEF7D2FE1E20FEF7CFFE16E09DF80730DF
:105A40001F2B09D81820FEF7C7FE1920FEF7F4FE19
:105A50001E20FEF7C1FE08E01820FEF7BDFE19204B
:105A6000FEF7BAFE1E20FEF7E7FE0320FFF722FD39
:105A700000BF03B05DF804FB00B583B003468DF8AA
:105A800007309DF80730032B26D801A252F823F0E7
:105A9000A15A0000AF5A0000BD5A0000CB5A0000C6
:105AA0000D20FEF7C9FE0E20FEF7C6FE15E00D2004
:105AB000FEF792FE0E20FEF7BFFE0EE00D20FEF771
:105AC000BBFE0E20FEF788FE07E00D20FEF784FEE9
:105AD0000E20FEF781FE00E000BF00BF03B05DF8BE
