:1000000000000120750300005D0300005F03000095
:1000100061030000630300006503000000000000AE
:100020000000000000000000000000006703000066
:1000300069030000000000006B0300006D03000076
:100040006F0300006F03000045360000A17C000034
:100050006F0300006F030000D95F0000B963000068
:100060006F0300006F0300006F0300006F030000C8
:100070006F0300006F0300006F0300006F030000B8
:100080006F030000993400006F0300006F0300004D
:10009000D93400006F0300006F0300006F030000FD
:1000A0006F0300006F030000896A00006F03000007
:1000B0006F0300006F03000000000000000000005C
:1000C0006F0300006F0300006F0300006F03000068
:1000D0006F0300006F0300006F03000000000000CA
:1000E0000000000000000000000000000000000010
:1000F0000000000000000000000000000000000000
:1001000000000000000000000000000000000000EF
:1001100000000000000000000000000000000000DF
:1001200000000000000000000000000000000000CF
:1001300000000000000000000000000000000000BF
:1001400000000000000000000000000000000000AF
:10015000000000000000000000000000000000009F
:10016000000000000000000000000000000000008F
:10017000000000000000000000000000000000007F
:10018000000000000000000000000000000000006F
:10019000000000000000000000000000000000005F
:1001A000000000000000000000000000000000004F
:1001B000000000000000000000000000000000003F
:1001C000000000000000000000000000000000002F
:1001D000000000000000000000000000000000001F
:1001E000000000000000000000000000000000000F
:1001F00000000000000000000000000000000000FF
:10020000354936480A1A02D0072291438D463449AF
:1002100034480A1A06D00722914381F30988022242
:1002200082F3148830483149314A00F044F83148AB
:100230003149324A00F03FF831483249324A00F041
:100240003AF832483249334A00F035F832483349F7
:10025000334A00F030F833483349344A00F02BF881
:1002600033483449344A00F026F8344834490022EF
:1002700000F02CF833483449002200F027F83348C6
:100280003349091A082902DB002202604160314A21
:1002900090471F481F49884205D00268043003B4C4
:1002A000904703BCF7E700208646EC46002000217B
:1002B000294A9047FEE7884207D0521A05D00378B2
:1002C00001300B700131013AF9D17047884202D0F8
:1002D00002700130FAE770470000012000E00020C2
:1002E000000001200000012018AE000000000020E6
:1002F0008C000020D0030000D00300008E9B000083
:1003000018AE000000000020000000200C9C00003F
:100310000C9C00000C9C00000C9C00000C9C00003D
:100320000C9C00000C9C00000C9C000018AE00000F
:10033000A4AE00008C0000208C0000208C00002067
:10034000542F0020542F0020542F0020542F002021
:10035000544F00209D030000858C0000FEE7FEE75F
:10036000FEE7FEE7FEE7FEE7FEE7FEE7FEE7FEE765
:1003700000F002B8FFF7FCBF0F484FF007018843B9
:1003800085460E4880470E48016841F470010160BF
:10039000BFF34F8FBFF36F8FFFF732BF09480A4992
:1003A0000A4A884207D0521A05D0037801300B70F0
:1003B0000131013AF9D1704700000120E1940000B9
:1003C00088ED00E00C9C00000000002000000020F0
:1003D00000B583B001900091019B1B681B680099D8
:1003E0000198984700BF03B05DF804FB00B583B0E7
:1003F0000190019B1B685B680198984700BF03B0A0
:100400005DF804FB00B583B00190019B1B689B68FD
:100410000198984700BF03B05DF804FB82B00190DB
:10042000019BDB6801225A7100BF02B0704782B0A5
:100430000190019BDB685B79184602B070470000B1
:10044000024A034BD31ADB0818467047D89B0000BA
:10045000909B000000B587B001900B468DF80330EB
:100460009DF80330002B1FD0FFF7EAFF0490002314
:10047000059313E0059B9B000E4A13440393039BD3
:100480001B881A46019B1B689A4204D1019B059A5E
:100490001A60002309E0059B01330593059A049B2C
:1004A0009A42E7D3052300E00023184607B05DF821
:1004B00004FB00BF0000002000B585B001900B4692
:1004C0008DF803309DF8032001AB11461846FFF765
:1004D000C1FF0346002B07D1019BDB00054A1344F3
:1004E0000393039B1B6800E00023184605B05DF8EA
:1004F00004FB00BF909B000084B001900B468DF878
:100500000330019BDB00174A134402939DF803302C
:10051000013B032B1CD801A252F823F02D0500004B
:10052000350500003D0500004705000002238DF859
:100530000F3011E004238DF80F300DE0029B1B7982
:100540008DF80F3008E0029B5B798DF80F3003E0E7
:1005500000238DF80F3000BF9DF80F30184604B00F
:10056000704700BF909B000084B001900091002371
:100570008DF80F30019B1B7803F00403DBB2002BD6
:1005800024D0019B1B78C3F30103DBB2012B02D003
:10059000022B0CD017E0009B1B68019A1288C2F353
:1005A0008312D2B213449A1C009B1A600BE0009B8A
:1005B0001B68019A5288C2F3891292B213449A1CA2
:1005C000009B1A6000BF01238DF80F309DF80F309B
:1005D000184604B07047000000B58BB00023ADF89A
:1005E00026303E4801F072FC3D4801F06FFC3D4B67
:1005F0009B6804933C4B1B680693049A069B13402C
:1006000002339B00374A13440433089304AB194662
:100610000898FFF7A9FF0346002B09D0049A069B10
:10062000134002339B002F4A134404330893EDE731
:1006300000BF0023079311E0049B5A1C0492069A02
:100640001340079A920001A90A44264902339B00ED
:100650000B445B681360079B01330793079B012BD7
:10066000EAD99DF80430C3F30103DBB2012B10D0AB
:10067000022B1CD1BDF80A30ADF82630BDF806308B
:10068000C3F389139BB203339A08049B1344049366
:1006900013E0BDF80A30ADF82630BDF80430C3F3DE
:1006A0008313DBB21A46049B1344049305E00F49FD
:1006B0004FF4C27001F07DFB00BF094801F012FC4D
:1006C0000590059B002B02D0049B064A9360BDF861
:1006D000263018460BB05DF804FB00BF74050020FF
:1006E000700500205C01002000000020109C00002C
:1006F00000B585B00021074801F071FB0390039B12
:100700000293029B83F310030193019B184605B0EB
:100710005DF804FB7805002000B589B003900291D4
:1007200001920093039B1B0C0793FFF7E1FF0690D8
:10073000FFF786FE0246079B934204D3214940F20D
:10074000A91001F036FB069B1904009B5A1C0A9B5A
:100750001340079A0A431C4902339B000B445A601A
:10076000009A0A9B134002339B00174A1344043338
:100770000593039B03F00703D9B2059A137861F33D
:10078000C5031370019B03F00F03D9B2059A1388B8
:1007900061F389131380029BC3F31501059A136853
:1007A00061F39F231360059A1378012161F301031C
:1007B0001370059A13786FF38203137000BF09B0AA
:1007C0005DF804FB109C00005C01002000B58BB0BC
:1007D0000390029113468DF80730039B0233089370
:1007E00001238DF81F30002001F09CFA3E4B5A681F
:1007F000029B1A603D4B1A683B4B99683A4B5B6809
:10080000CB1A13440133099314E00121384801F055
:100810002DFBFFF7E1FE06900699354801F026FB17
:10082000324B1A68304B99682F4B5B68CB1A1344D4
:1008300001330993089A099B9A42E6D89DF81F3024
:10084000002B48D0002304939DF80730002B17D0CD
:100850009DF81030012262F301038DF810309DF8ED
:10086000103043F004038DF81030039B03F00F03A6
:10087000DAB2BDF8103062F38913ADF8103016E02B
:100880009DF81030022262F301038DF810309DF8BC
:10089000103043F004038DF81030039BC3F30903B9
:1008A0009AB2BDF8123062F38F13ADF812300E4BCE
:1008B0005A680E4B1B68134002339B000A4A1344CC
:1008C00004330593049A059B1A60074B5A68089BEA
:1008D0001344054A5360002001F038FA9DF81F3098
:1008E00018460BB05DF804FB5C01002000000020FE
:1008F0007805002000B58BB0059004910392029317
:100900001F4B1B68079306AB012219460298FFF79D
:100910005DFF0346002B24D0069B0233099300237E
:10092000089311E0089B9B00039A1A44099B591CE9
:10093000099107990B401268124902339B000B443E
:100940005A60089B01330893089A029B9A42E9D3A4
:10095000069A079B00931346029A04990598FFF79D
:10096000DBFE084B1B78002B05D000BF00F068F8B9
:100970000346002BFAD100BF0BB05DF804FB00BFAB
:10098000000000205C01002000B583B001900091C0
:100990000023002200990198FFF7ACFF00BF03B0CD
:1009A0005DF804FB00B587B0039002910192019BB2
:1009B000059305AA012302990398FFF79BFF00BF47
:1009C00007B05DF804FB00B587B003900291019277
:1009D0000093019B0493009B059304AA02230299B0
:1009E0000398FFF787FF00BF07B05DF804FB00B571
:1009F0008BB00390029101920093019B0593009BA1
:100A000006930C9B07930D9B08930E9B099305AAD5
:100A1000052302990398FFF76DFF00BF0BB05DF847
:100A200004FB0000054B9A68044B5B689A420CBFBC
:100A300001230023DBB21846704700BF5C01002091
:100A400000B599B0FFF7EEFF0346002B01D000235D
:100A5000B7E19A4B0022C3F81824BFF34F8F974B8E
:100A60009B680493964B1B681093049A109B134049
:100A700002339B00914A13440433119300231793CC
:100A80000023169300230F9304AB19461198FFF728
:100A90006BFD0346002B19D0884BD3F81834002B7C
:100AA00014D1864B5A68049B9A4205D8834B5B68E5
:100AB000824A9360002384E1049A109B134002331E
:100AC0009B007E4A134404331193DDE70023159302
:100AD00011E0049B5A1C0492109A1340159A92003C
:100AE00001A90A44754902339B000B445B681360FB
:100AF000159B01331593159B012BEAD99DF8043002
:100B000003F00303DBB2022B40F09C80BDF80630FB
:100B1000C3F389139BB20E93BDF80630C3F3891358
:100B20009BB2502B28BF50239BB20D930D9BC3F358
:100B300009039AB2BDF8063062F38F13ADF80630A0
:100B40000D9B08330C939DF80430C3F3C203DBB252
:100B50000F930C995B4801F09DFE1790179B002B9B
:100B600000F0D280179801F025FF01A9169B0822FA
:100B7000179801F0DBFF169B08331693049BDA43AA
:100B8000109B134001339B000B930D9A0B9B9A42D1
:100B900042D90B9B002B08D0049A109B13400233C0
:100BA0009B00464A1344043300E0474B0A930B9BD7
:100BB000002B02D00B9BDBB201E00D9BDBB28DF86A
:100BC00027300B9B002B01D03F4B00E00023089304
:100BD0000B9B002B06D00D9BDAB20B9BDBB2D31A1A
:100BE000DBB200E000238DF81F309DF82720169B14
:100BF0000A99179801F09AFF9DF82730169A134426
:100C00001693089B002B16D09DF81F20169B089961
:100C1000179801F08BFF0EE0049A109B13400233EB
:100C20009B00264A134404330693169B0D9A06999B
:100C3000179801F07BFF0E9B03339A08049B134423
:100C4000049361E09DF8043003F00303DBB2012B51
:100C50005AD1BDF80430C3F38313DBB2062B28BF8F
:100C60000623DAB2BDF8043062F38913ADF804301C
:100C7000BDF80430C3F38313DBB2023305939DF850
:100C80000430C3F3C203DBB20F93059B9B001946EC
:100C90000C4801F0FFFD1790179B002B34D01798DC
:100CA00001F088FE01A9169B0822179801F03EFF6B
:100CB000169B08331693002315931CE05C0100205B
:100CC00000000020F89B000068010020049B5A1CD3
:100CD0000492109A134002339B003C4A1344191D9E
:100CE000169B0422179801F021FF169B04331693DC
:100CF000159B01331593BDF80430C3F38313DBB2A6
:100D00001A46159B9342E1D3179B002B39D02F4BEA
:100D1000D3F8103414932D4BD3F81834002B1BD078
:100D2000179801F056FE46E000238DF84F301498D6
:100D3000FFF77DFB0346002B02D001238DF84F30D7
:100D40009DF84F30002B03D017991498FFF740FB04
:100D5000149BDB681B681493149B002BE4D1179839
:100D600001F037FE002000F0DDFF184BD3F81834F7
:100D7000002B02D1049B154A9360002000F0E6FF8F
:100D800019E0124BD3F81034129306E01298FFF7D3
:100D900039FB129BDB681B681293129B002BF5D169
:100DA0000B4A0C4BD31ADB081B0443F002030A491D
:100DB0001846FFF7E9FDFFF735FE034683F0010310
:100DC000DBB2184619B05DF804FB00BF5C010020DF
:100DD000D09B0000909B0000689C000000B583B091
:100DE0000C4BD3F8103401930A4B01221A7009E01E
:100DF0000198FFF713FB0198FFF7F8FA019BDB68F6
:100E00001B680193019B002BF2D100BF03B05DF87A
:100E100004FB00BF5C01002082B00190009100BF84
:100E200002B0704710B584B003900291039BDB8839
:100E3000002B0AD0039BDB881A461F4B00931346F6
:100E40001E4A1F49029801F01FF9039B1B7A052BCC
:100E50002ED0039B5B7A002B12D0039B9B881A46F3
:100E6000039B1B7A19461046FFF746FB03461A46BA
:100E7000144B53F822301A461349029801F004F932
:100E8000039B1B6819460298FFF7C6FF039B1B7A5A
:100E90001A460E4B53F82240039B9B8800211846AC
:100EA000FFF70AFB034622460949029801F0ECF8D5
:100EB00000BF04B010BD00BF9C9C0000AC9C0000B3
:100EC000E49C000018000020FC9C000004000020AE
:100ED000009D000000B585B00390029113468DF887
:100EE0000730039B1B7A052B0FD0039B5B7A002BEB
:100EF00006D00D4B1B681A460C49029801F0C4F845
:100F00000B49029801F0C0F807E09DF80730002B6C
:100F100003D00749029801F0B7F8029801F092F85F
:100F200000BF05B05DF804FB18000020FC9C000029
:100F30000C9D000030B58BB007900691059204938C
:100F40000E9B1B7B8DF827300E9B00221A730E9987
:100F50000498FFF767FF059B062B7FD801A252F884
:100F600023F000BF810F00008B0F00009B0F0000DB
:100F7000AF0F0000CD0F0000F50F0000251000009E
:100F800007990E9801F080F869E0069B1B681A46E5
:100F900007990E9801F078F861E0069B1A68069BA5
:100FA00004331B6807990E9801F06EF857E0069B12
:100FB0001A68069B04331968069B08331B68009364
:100FC0000B4607990E9801F05FF848E0069B1968F8
:100FD000069B04331868069B08331B68069A0C327C
:100FE00012680192009303460A4607990E9801F091
:100FF0004BF834E0069B1868069B04331C68069B7C
:1010000008331B68069A0C32126806991031096879
:101010000291019200932346024607990E9801F02F
:1010200033F81CE0069B1C68069B04331D68069B76
:1010300008331B68069A0C32126806991031096849
:1010400006981430006803900291019200932B4699
:10105000224607990E9801F017F800E000BF002221
:101060000E990498FFF736FF0E9B9DF827201A7300
:1010700000BF0BB030BD00BF00B587B00390029138
:1010800001920093029B082B60D8009B1B7B8DF87C
:101090001330009B00221A7300990198FFF7C2FEDB
:1010A0000023059314E0059A029B9A4209D2039A01
:1010B000059B13441B781A462649009800F0E4FF6C
:1010C00003E02549009800F0DFFF059B01330593FD
:1010D000059B072BE7D92149009800F0D5FF002395
:1010E000059326E0059A029B9A421BD2039A059B20
:1010F00013441B788DF812309DF812307E2B0AD8DD
:101100009DF81230184608F0B1FC0346002B02D0BF
:101110009DF8123000E02E231A461149009800F085
:10112000B3FF03E00F49009800F0AEFF059B0133C9
:101130000593059B072BD5D9012200990198FFF74C
:10114000C9FE009B9DF813201A7300E000BF07B092
:101150005DF804FB109D0000189D00001C9D000020
:10116000209D0000249D000000B585B00190019BEA
:10117000002B0AD0074B43F001030393019B9B0113
:101180000293039B0298984700E000BF05B05DF80A
:1011900004FB00BF409D000000B583B00190019B9F
:1011A000002B0AD04FF47A70FFF7DEFF019B013B62
:1011B0000193019B002BF5D100E000BF03B05DF867
:1011C00004FB000000B589B0039002910192019BDD
:1011D000002B33D00023079303230693029A079B27
:1011E0001344019A1946002008F09AFB0590079ACB
:1011F000059B13440793019A059BD31A0193059B02
:10120000002B13D10F4B1B7883F00103DBB2002BB3
:1012100013D10120FFF7C0FF069B013B0693069BFD
:10122000002B03D1074B00221A7007E0054B012267
:101230001A70019B002BD1D100E000BF00BF09B0A4
:101240005DF804FB7C05002000B585B00390029199
:10125000054B00934023054A0299039800F012F8C9
:1012600000BF05B05DF804FBC5110000800500203B
:1012700082B0019000BF02B0704782B0019000BF01
:1012800002B0704700B5A1B005900491039202939B
:10129000049801F08FFB039B1593029B1693002388
:1012A000179300238DF8603000231993229B1A9323
:1012B00000231F930FA91F9B0822049801F054FCE0
:1012C00008231F93119B1293BDF84030ADF84C30AA
:1012D000BDF84230ADF84E3000238DF851309DF806
:1012E0003C3003F00303DBB2012B26D10F9BC3F389
:1012F00095231D939DF83C30C3F3C203DBB28DF8F8
:101300005030BDF83C30C3F38313DBB21C931C9BFD
:101310009A0009A91F9B049801F026FC1C9B9B00C6
:101320001F9A13441F9312AA09A915AB00931346E1
:101330001C9A1D98FFF7FEFD2FE09DF83C3003F04E
:101340000303DBB2022B28D1BDF83E30C3F389136F
:101350009BB21E939DF83C30C3F3C203DBB28DF801
:1013600050301E9B082B28BF08231B9307A91F9BE7
:101370001B9A049801F0F8FB1F9A1B9B13441F93C0
:101380001E9A1B9BD31A1E9315AB12AA07A81B9972
:10139000FFF772FE1E9B002BE3D1049801F019FBAE
:1013A00000BF21B05DF804FB00B583B00190019B44
:1013B0001B781A460C4B9B5C002B05D0019B043319
:1013C000184603F02DFD0BE0019B1B781A46064BD7
:1013D0009B5C002B04D1019B0C33184602F07AFD74
:1013E00000BF03B05DF804FB7C07002000B587B0A8
:1013F0000390029113468DF8073000230593039B59
:101400001B781A46114B9B5C002B09D0039B0433BD
:101410009DF807200299184603F064FD05900FE03F
:10142000039B1B781A46094B9B5C002B08D1039B3E
:101430000C339DF807200299184602F0C3FD059071
:10144000059B184607B05DF804FB00BF7C07002031
:1014500082B001900091034B01221A7000BF02B0CC
:10146000704700BF0006002030B58DB003468DF8F0
:1014700007301A4B02AC1D460FCD0FC495E80F0084
:1014800084E80F00062302934FF0FF3303934FF0DD
:10149000FF3304934FF0FF3305934FF0EB73089342
:1014A0009DF80730002B01D00D4A00E0002202AB6E
:1014B00019460C4802F066F80B900B9B0A930A9BA6
:1014C000002B04D0084A43210A9800F0BBF8074AD1
:1014D0009DF80730137000BF0DB030BD289E00008E
:1014E000511400004C000020CC9D0000010600209B
:1014F00000B589B0039002910192019B8DF81F30D5
:10150000124B00221A709DF81F301A46029910489B
:10151000FFF76CFF0690069B0593059B002B04D0FC
:101520000C4A5321059800F08DF800BF0A4B1B7838
:10153000002B07D0054B1B78DBB283F00103DBB235
:10154000002BF3D100BF09B05DF804FB00060020BA
:101550004C000020CC9D00000106002000B585B0A5
:1015600003900291054B00934023054A029903988A
:10157000FFF788FE00BF05B05DF804FBF114000022
:10158000C005002082B0019000BF02B0704700008B
:1015900000B583B001900548FFF706FF0020FFF774
:1015A00063FF00BF03B05DF804FB00BF4C000020E8
:1015B00086B003900291019201238DF817309DF8B7
:1015C00017301F4A039B13601D4A029B53601C4A3D
:1015D000019B9360039B44F20102934212D0039B50
:1015E00044F20202934220D1019B154AD360144B6E
:1015F000DB681B68124A9361114BDB685B68104A19
:10160000D36112E0019B0E4A13610D4B1B699B686D
:101610000B4A53610A4B1B691B68094A9361084BCB
:101620001B695B68064AD36100BF72B600BF9DF8B4
:101630001730DBB2002BFAD162B600BF06B070479C
:101640000406002000B583B002900091019244F29C
:10165000010071466A4600F003F803B000BD00BF08
:1016600030B58BB007900691059272B6FFF7B6FBC6
:1016700000BFFFF7E5F90346002BFAD1079B44F2C0
:101680000102934216D0079B44F2020293423ED1DC
:10169000059B09932C4A2D4BD31ADB081B0443F0FE
:1016A0000100099B5B681A46099B1B682849FFF7E4
:1016B0008AF939E0059B0893234A244BD31ADB08A7
:1016C0001B0443F00104089B9D68089B9B68184617
:1016D00001F06AFA03461846089B5B681946089BA6
:1016E0001B68069A02920193009103462A46194903
:1016F0002046FFF77CF9144A144BD31ADB081B046D
:1017000043F0010314491846FFF73EF90CE00E4A76
:101710000E4BD31ADB081B0443F00103069A0F4952
:101720001846FFF73FF900BF0D4B1B6803F001039C
:10173000002B00D000BE059A06990798FFF738FFE6
:1017400000BF0BB030BD00BFD09B0000909B0000DD
:10175000549E0000709E0000989E0000AC9E000009
:10176000F0ED00E084B00190019B9B680393019B26
:10177000DA68039BD31A184604B0704782B0019010
:101780000B468DF80330019B1A68019BDB680199B9
:1017900089880B4013449DF803201A70019BDB6875
:1017A0005A1C019BDA6000BF02B0704784B00390FE
:1017B0000B460192ADF80A30039B1A68039B9968A7
:1017C000BDF80A300B44039989880B4013441A78FA
:1017D000019B1A7000BF04B0704700B583B0019040
:1017E0000091009A00210198FFF7E0FF019B9B68A0
:1017F0005A1C019B9A6000BF03B05DF804FB84B0E3
:10180000039002911346ADF80630029B002B01D1E4
:101810000E231DE0BDF80630002B07D0BDF80630C2
:101820005A1EBDF806301340002B01D009230FE0EB
:10183000039B029A1A60BDF80630013B9AB2039BE3
:101840009A80039B00229A60039B0022DA600023A7
:10185000184604B0704700B583B001900B468DF870
:1018600003300198FFF77EFF0246019B9B889A4256
:1018700007D89DF8033019460198FFF77FFF002332
:1018800000E00423184603B05DF804FB00B583B004
:10189000019000910198FFF765FF0346002B05D0EA
:1018A00000990198FFF799FF002300E005231846EF
:1018B00003B05DF804FB000000B587B0039002910F
:1018C00013468DF8073000230593039B1B781A46B7
:1018D000114B9B5C002B09D0039B04339DF8072020
:1018E0000299184603F0FEFA05900FE0039B1B785F
:1018F0001A46094B9B5C002B08D1039B0C339DF8C7
:1019000007200299184602F05DFB0590059B1846DA
:1019100007B05DF804FB00BF7C07002000B585B070
:10192000019000238DF80F30019B1B781A46114B54
:101930009B5C002B08D0019B0433184603F090FBFE
:1019400003468DF80F300EE0019B1B781A46094BB9
:101950009B5C002B07D1019B0C33184602F0BAFBAD
:1019600003468DF80F309DF80F30184605B05DF82E
:1019700004FB00BF7C07002000B587B003900291F4
:1019800013468DF8073000230593039B1B781A46F6
:10199000114B9B5C002B09D0039B04339DF807205F
:1019A0000299184603F074FB05900FE0039B1B7827
:1019B0001A46094B9B5C002B08D1039B0C339DF806
:1019C00007200299184602F0DDFB0590059B18469A
:1019D00007B05DF804FB00BF7C07002084B00190D5
:1019E000019B9B680393019BDA68039BD31A1846FB
:1019F00004B0704700B587B001900091019B1B783F
:101A0000012B04D0022B42D0002B51D066E0019B69
:101A10001B7A002B05D1012232493348FFF7ACFF76
:101A20005CE0019B5B681B7819463048FFF713FFA9
:101A30000590059B002B0AD001238DF80C30059BE7
:101A400004932B4B1B6803AA104698470DE02748C8
:101A5000FFF7C4FF0346002B07D000238DF80C309E
:101A6000234B1B6803AA104698472048FFF7B6FF90
:101A700002461E4B9B889A4205D8012219491A48F2
:101A8000FFF77AFF2AE01B4B01221A7026E002239F
:101A90008DF80C30019BDB68049301221149124838
:101AA000FFF76AFF124B1B6803AA1046984715E020
:101AB00011491248FFF7EAFE0346002B05D1012227
:101AC0000D490948FFF7F8FE07E003238DF80C30B5
:101AD000074B1B6803AA1046984700BF00BF07B01A
:101AE0005DF804FB2C06002060000020300600207A
:101AF000240600202D060020280600204006002095
:101B000030B591B00390029101928DF803303C4AB8
:101B1000019B1360029B002B01D107236DE0029B08
:101B20001968029B5B689BB21A463648FFF767FE4E
:101B30000F900F9B0E930E9B002B01D00E9B5CE031
:101B4000029B9968029BDB689BB21A462E48FFF7FE
:101B500056FE0F900F9B0D930D9B002B01D00D9BFC
:101B60004BE02A4B04AC1D460FCD0FC495E80F0087
:101B700084E80F00039B5B690A93039B1B7C002B8B
:101B800014BF01230023DBB28DF824309DF803300D
:101B90008DF82C30039B5B7C002B01D00E2300E0E2
:101BA00000238DF82530039BDB680693039B9B681D
:101BB0000793039B1B680593039B5B68049304AB2B
:101BC000134A1946134801F0DDFC0F900F9B0C934C
:101BD0000C9B002B01D00C9B0FE00F4B00221A70C6
:101BE000039B1B68B3F1FF3F06D001220B49094854
:101BF000FFF7C2FE034600E00023184611B030BDD7
:101C0000240600203006002040060020C49E00006C
:101C1000F5190000600000202D0600202C06002091
:101C200000B587B00190019B002B03D11449CA2055
:101C300000F0BFF8134B1B788DF81730019912484C
:101C4000FFF724FE04909DF81730002B12D00D4BA7
:101C500000221A7001220D490D48FFF78DFE0390F6
:101C6000039B0293029B002B04D0054AD6210298C5
:101C7000FFF7E8FC049B184607B05DF804FB00BFC3
:101C8000E49E00002D060020300600202C060020D7
:101C90006000002000B585B003468DF807309DF840
:101CA000073019461048FFF7D6FD0390039B002B21
:101CB00015D10E48FFF732FE034683F00103DBB275
:101CC000002B0CD00A490848FFF7E0FD0346002B23
:101CD00005D1012206490548FFF7EEFD0390039B5D
:101CE000184605B05DF804FB4006002060000020A7
:101CF0002806002072B6034B1B680133014A1360AB
:101D000000BF704750060020054B1B68013B044A8A
:101D10001360034B1B68002B00D162B600BF7047F5
:101D20005006002000B583B0019000F025F803466E
:101D3000012B03D00449432000F03BF8FFF7DAFF02
:101D400000BF03B05DF804FB349F000000B583B012
:101D500003468DF8073000F00FF80346012B03D03F
:101D60000449512000F025F8FFF7CEFF00BF03B073
:101D70005DF804FB349F000084B0EFF3058301930A
:101D8000019BC3F308030393039B002B0DD1EFF3D7
:101D900014830093009B0293029B03F00103002B2A
:101DA0000CBF01230023DBB200E00123184604B07E
:101DB000704700B585B003460091ADF80630BDF818
:101DC00006300293009B039302AB1A46002144F2B3
:101DD0000200FFF745FC00BF05B05DF804FB10B43E
:101DE00087B001900091019B009A53E8004F104684
:101DF00043E8000191F0000FF7D10594049003919E
:101E0000059B184607B05DF8044B704710B487B0C7
:101E100001900091019B009A53E8004F44EA0200B0
:101E200043E8000191F0000FF6D10594049003916E
:101E3000049B184607B05DF8044B704710B487B098
:101E400001900091019B009A53E8004F04EA0200C0
:101E500043E8000191F0000FF6D10594049003913E
:101E6000059B184607B05DF8044B704710B487B067
:101E700001900091019B009A53E8004F04EB02008F
:101E800043E8000191F0000FF6D10594049003910E
:101E9000049B184607B05DF8044B704710B487B038
:101EA00001900091019B009A53E8004FA4EB0200BF
:101EB00043E8000191F0000FF6D1059404900391DE
:101EC000049B184607B05DF8044B704700B583B01B
:101ED000019001210198FFF799FF0346184603B0CE
:101EE0005DF804FB00B583B0019000210198FFF775
:101EF000A5FF0346184603B05DF804FB00B583B0A8
:101F000001900B468DF80330019B002B03D108494B
:101F1000E820FFF74EFF019BDA689DF80330019936
:101F2000098A01FB03F31344184603B05DF804FB70
:101F3000889F000000B583B001900091019B002BA9
:101F400003D10849F520FFF734FF009B019AD268BE
:101F50009B1A019A128AB3FBF2F3DBB2184603B064
:101F60005DF804FB889F000000B585B00190019BDF
:101F7000002B04D11C494FF49270FFF71AFF002385
:101F800003930020FFF7CEFE019B1B681A68019B9C
:101F90005B689A421FD9019B1B681A68013A1A6054
:101FA0001B681B7819460198FFF7A8FF0390019B57
:101FB0009A68019B1B681B68D31A8DF80B30019B34
:101FC0001B681B799DF80B209A4204D9019B1B6862
:101FD0009DF80B201A710020FFF7B8FE039B1846EE
:101FE00005B05DF804FB00BF889F000010B584B009
:101FF00001900091019B002B04D1114940F2471040
:10200000FFF7D7FE009B002B04D10D494FF4A470BD
:10201000FFF7CFFE009B03930020FFF783FE019B99
:102020001B681C68621C1A6003990198FFF782FF05
:10203000034623700020FFF789FE00BF04B010BDE7
:10204000889F000000B583B00190019B002B03D155
:102050000C493120FFF7ADFE019B9B68002B0CD093
:10206000019B5B69019A1069019A1168019A926853
:102070009847019B00229A6000E000BF03B05DF822
:1020800004FB00BFD89F00000EB400B584B00190DF
:10209000019B002B03D118494220FFF78AFE019BC8
:1020A0005B69002B03D114494320FFF782FE019B9B
:1020B0001B68002B03D110494420FFF77AFE019BD7
:1020C0005B68002B03D10C494520FFF772FE059B8E
:1020D000002B0AD00023039306AB039303AB1A46ED
:1020E0000599019800F0B8F900E000BF04B05DF870
:1020F00004EB03B0704700BFD89F000000B583B069
:1021000001900B468DF803309DF803300A2B03D164
:102110000D210198FFF7F2FF019B1A68019B9B6854
:10212000581C0199886013449DF803201A70019B84
:102130009A68019B5B689A4202D30198FFF782FF7D
:1021400000BF03B05DF804FB00B587B003900291B7
:102150000192009300230593009B03F00103002BE1
:1021600024D00BE0029B01330293059B01330593BE
:102170009DF8133019460398FFF7C0FF029B1B78A8
:102180008DF813309DF81330002BEBD106E0019B46
:10219000013B019320210398FFF7B0FF019A059BB3
:1021A0009A422ED9019B002BF1D12AE0029B002BF1
:1021B0000BD0029807F0BBFC059006E0019B013BA9
:1021C000019320210398FFF799FF019A059B9A42FA
:1021D0000FD9019B002BF1D10BE0029B013302933D
:1021E000059B013305939DF8133019460398FFF7BB
:1021F00085FF029B1B788DF813309DF81330002B60
:10220000EBD100BF07B05DF804FB000000B589B05A
:102210000390029101920093029B0793012306937E
:1022200007E0079A019BB2FBF3F30793069B013388
:102230000693079A019B9A42F3D2009A069B9A4210
:1022400001D9009B06930B9B03F00103002B22D1C5
:102250000A9B002B1FD00B9B03F00203002B06D020
:10226000009B002B03D130238DF8173002E0202390
:102270008DF8173008E00A9B013B0A939DF8173050
:1022800019460398FFF73AFF0A9B002B03D0069AE2
:102290000A9B9A42EFD301230793009B012B03D99A
:1022A000009B013B009309E0029A079BB2FBF3F30A
:1022B0000493049A019B9A4200D205E0079B019A7D
:1022C00002FB03F30793E8E7029A079BB2FBF3F3E1
:1022D0000493049B079A02FB03F3029AD31A029316
:1022E000154A049B13441B7819460398FFF706FF11
:1022F000079A019BB2FBF3F30793079B002BE3D1F3
:102300000B9B03F00103002B11D00A9B002B0ED076
:1023100006E00A9B013B0A9320210398FFF7EEFE9B
:102320000A9B002B03D0069A0A9B9A42F1D300BF66
:1023300009B05DF804FB00BF6CA0000000B589B0D7
:102340000590049103920293049B002BB8BF5B425B
:1023500006930123079307E0039B069A92FBF3F38E
:102360000693079B01330793039B069A9A42F3DA7D
:10237000029A079B9A4201D9029B07930A9B002B62
:102380000AD0049B002B04DB0B9B03F00403002BFF
:1023900002D00A9B013B0A930B9B03F00203002B24
:1023A00002D0029B002B16D00B9B03F00103002BE5
:1023B00011D10A9B002B0ED006E00A9B013B0A9329
:1023C00020210598FFF79AFE0A9B002B03D0079A5D
:1023D0000A9B9A42F1D3049B002B07DA049B5B42D1
:1023E00004932D210598FFF789FE08E00B9B03F06D
:1023F0000403002B03D02B210598FFF77FFE0B9BD6
:1024000003F00203002B19D00B9B03F00103002BF8
:1024100014D1029B002B11D10A9B002B0ED006E099
:102420000A9B013B0A9330210598FFF767FE0A9B40
:10243000002B03D0079A0A9B9A42F1D304990B9B75
:1024400001930A9B0093029B039A0598FFF7DEFE17
:1024500000BF09B05DF804FB00B58FB00590049192
:102460000392059B002B04D1C84940F25220FFF78C
:10247000A0FC059B5B69002B04D1C4494FF4157087
:10248000FFF797FC059B1B68002B04D1BF4940F266
:102490005520FFF78EFC059B5B68002B04D1BB49E0
:1024A00040F25620FFF785FC049B002B00F0ED81E5
:1024B000049B1B788DF83730049B013304939DF8FF
:1024C0003730002B00F0D8819DF83730252B40F0B5
:1024D000C78100230A9301230C93049B1B788DF87A
:1024E00037309DF837302D2B04D0302B0AD02B2BD2
:1024F00010D017E00A9B43F001030A93049B0133B9
:10250000049312E00A9B43F002030A93049B0133F5
:1025100004930AE00A9B43F004030A93049B0133EB
:10252000049302E000230C9300BF0C9B002BD4D13A
:10253000002309939DF837302A2B0CD1039B1B688D
:10254000191D039A11601B68099A13440993049B8F
:10255000013304931AE0049B1B788DF837309DF803
:1025600037302F2B12D99DF83730392B0ED8049BDA
:1025700001330493099A13469B0013445B001A46E7
:102580009DF837301344303B0993D3E700230B9376
:10259000049B1B788DF837309DF837302E2B1DD1DA
:1025A000049B01330493049B1B788DF837309DF80E
:1025B00037302F2B12D99DF83730392B0ED8049B8A
:1025C000013304930B9A13469B0013445B001A4695
:1025D0009DF837301344303B0B93E4E7049B1B78A2
:1025E0008DF837309DF837306C2B03D09DF837309D
:1025F000682B07D1049B01330493049B1B788DF84F
:102600003730EFE79DF83730253B532B00F223811D
:1026100001A252F823F000BF4D2800005728000007
:1026200057280000572800005728000057280000AE
:10263000572800005728000057280000572800009E
:10264000572800005728000057280000572800008E
:10265000572800005728000057280000572800007E
:10266000572800005728000057280000572800006E
:10267000572800005728000057280000572800005E
:10268000572800005728000057280000572800004E
:10269000572800005728000057280000572800003E
:1026A000572800005728000057280000572800002E
:1026B000572800005728000057280000572800001E
:1026C000572800005728000057280000572800000E
:1026D00057280000572800005728000057280000FE
:1026E00057280000D927000057280000572800006D
:1026F00057280000572800005728000057280000DE
:1027000057280000572800005728000057280000CD
:102710006927000091270000572800005728000073
:102720005728000057280000912700005728000074
:10273000572800005728000057280000572800009D
:1027400057280000192800005728000057280000CB
:10275000FD27000057280000B5270000572800007B
:1027600057280000D9270000039B1B68191D039AF6
:1027700011601B680C930C9B8DF823309DF823305F
:1027800019460598FFF7BAFC66E000BF20A00000DC
:10279000039B1B68191D039A11601B680C930A9B0D
:1027A0000193099B00930B9B0A220C990598FFF754
:1027B000C5FD51E0039B1B68191D039A11601B683E
:1027C0000C930C990A9B0193099B00930B9B0A2283
:1027D0000598FFF71BFD3FE0039B1B68191D039A3B
:1027E00011601B680C930C990A9B0193099B009341
:1027F0000B9B10220598FFF709FD2DE0039B1B683A
:10280000191D039A11601B6807930A9B099A07997F
:102810000598FFF799FC1FE0039B1B68191D039A9D
:1028200011601B680C9330210598FFF767FC782135
:102830000598FFF763FC0C9900230193082300938C
:10284000082310220598FFF7E1FC05E025210598F3
:10285000FFF754FC00E000BF049B0133049305E044
:102860009DF8373019460598FFF748FC049B1B7804
:10287000002B7FF41DAE00E000BF059B1B7B002BEF
:1028800004D00598FFF7DEFB00E000BF0FB05DF855
:1028900004FB00BF00B58BB001900091019B1B8A27
:1028A000043B0793009A079B1344DA1C079BB2FB77
:1028B000F3F38DF81B300198FFF756FB0590059B4D
:1028C000002B01D1002338E0059B00221A71059BE3
:1028D00001225A71079B9AB2059BDA80059B0993E6
:1028E0009DF81B30013B0493099B019A1A60002359
:1028F00008931DE00198FFF737FB0390039B002B23
:102900000ED0059B5B790133DAB2059B5A71099BA6
:10291000039A1A60039B019A1A60039B099304E0CF
:10292000059800F00EF8002307E0089B0133089398
:10293000089A049B9A42DDD3059B18460BB05DF8BC
:1029400004FB00B58BB00190019B0793079B5B795B
:102950008DF81B30019B08939DF81B30013B0593BC
:102960000023099305E0089B1B680893099B01332A
:102970000993099A059B9A42F5D3089B1B68049317
:10298000019B0893002309930BE0089B1B680393AA
:1029900008990498FFF72AFB039B0893099B0133CE
:1029A00009939DF81B30099A9A42EED300BF0BB0F1
:1029B0005DF804FB00B585B00190019B0393039B78
:1029C000043301211846FFF751FA00BF05B05DF846
:1029D00004FB00B587B00190019B0593059B043370
:1029E00001211846FFF75AFA0346039303AB0493F9
:1029F000049B1B78002B02D10198FFF7A2FF00BFB8
:102A000007B05DF804FB000000B591B0039002919F
:102A100001920093039B002B03D14349B620FFF79B
:102A2000C8F9039B0993039B0F93099BDB881A4604
:102A3000099B5B7903FB02F3043B0893009A089B14
:102A40009A4203D33849C420FFF7B3F9099BDB88C6
:102A50000793009B1A1D079BB2FBF3F30E93009B99
:102A60000433079AB3FBF2F2079901FB02F29B1AB7
:102A70000D93019B1A68009B1344089A9A4203D253
:102A8000089A009BD31A01E0019B1B680C93019BE1
:102A90000C9A1A6005E00F9B1B680F930E9B013B7D
:102AA0000E930E9B002BF6D100230B93079A0D9BE0
:102AB000D31A0A930A9A0C9B934228BF13460A938F
:102AC0002AE0029A0B9B134406930F9A0D9B134422
:102AD000043305939DF84830002B05D00A9A0599D8
:102AE000069806F0C8FF04E00A9A0699059806F0D1
:102AF000C2FF00230D930F9B1B680F930C9A0A9B38
:102B0000D31A0C930B9A0A9B13440B93079A0C9BB2
:102B1000934228BF13460A930C9B002BD1D100BFD0
:102B200011B05DF804FB00BF7CA0000000B589B0C7
:102B30000590049103920293039B079307AA002335
:102B40000093029B04990598FFF75EFF079B039A89
:102B50009A4203D00349F620FFF72BF900BF09B0D2
:102B60005DF804FB7CA0000000B589B005900491DD
:102B700003920293039B079307AA01230093029BEE
:102B800004990598FFF740FF079B039A9A4204D0E7
:102B900004494FF48070FFF70CF900BF09B05DF8ED
:102BA00004FB00BF7CA0000000B585B00190019837
:102BB00000F00EF80390039B002B01D0039B00E074
:102BC000024B184605B05DF804FB00BFCCA0000026
:102BD00086B00190164B0593164B04931FE0049AA0
:102BE000059BD31ADB10DA0F13445B10DB00059A48
:102BF00013440393039B1B680293029A019B9A421E
:102C000002D9039B04930AE0029A019B9A4203D2E1
:102C1000039B0833059302E0039B5B6804E0059A7D
:102C2000049B9A42DBD30023184606B0704700BFCE
:102C3000A0A40000B8A5000000B583B001900091E9
:102C4000019BDBB21846FFF725F8019B184603B03D
:102C50005DF804FB82B003468DF807309DF907301C
:102C6000002B0CDB9DF8073003F01F0205499DF98E
:102C700007305B09012000FA02F241F8232000BF6F
:102C800002B0704700E100E082B003468DF80730E3
:102C90009DF90730002B11DB9DF8073003F01F0270
:102CA00008499DF907305B09012000FA02F2203340
:102CB00041F82320BFF34F8FBFF36F8F00BF02B0E7
:102CC000704700BF00E100E082B003468DF8073096
:102CD0009DF90730002B0DDB9DF8073003F01F0234
:102CE00006499DF907305B09012000FA02F24033E2
:102CF00041F8232000BF02B0704700BF00E100E0B0
:102D000082B003468DF807309DF90730002B0DDBAC
:102D10009DF8073003F01F0206499DF907305B0953
:102D2000012000FA02F2603341F8232000BF02B014
:102D3000704700BF00E100E000B585B00190019B45
:102D4000002B0AD0074B43F001030393019B9B0127
:102D50000293039B0298984700E000BF05B05DF81E
:102D600004FB00BFC0A5000008B50D4B4FF4803236
:102D7000C3F844230A4B4FF48032C3F804231120D4
:102D8000FFF7BEFF1120FFF765FF054B01221A6018
:102D90002F20FFF7D1FF034B01221A7000BF08BD9F
:102DA000001001407207002008B51120FFF76CFFEA
:102DB0000E4B4FF48032C3F848230C4B4FF4803253
:102DC000C3F80823094B01225A602F20FFF7B4FFF4
:102DD000064B01229A60064B00221A602F20FFF753
:102DE000ABFF044B00221A7000BF08BD0010014069
:102DF0006407002072070020024BD3F80435184600
:102E0000704700BF0010014082B001900091019A0C
:102E1000009BD31A23F07F43184602B0704700008E
:102E200082B00190034A019BC2F8403500BF02B056
:102E3000704700BF0010014086B00190284B1B680E
:102E4000002B03D1264A019B136045E0019B1A68C1
:102E5000234B1B681B689A4210D8214B1B681968CA
:102E6000019B1A681E4B1B688A1A1A601C4B1A6851
:102E7000019BDA611A4A019B13602DE0019B1B68DC
:102E80000393174B1B680593154B1B68049309E0CC
:102E9000049B1B68039AD31A0393049B0593049B1A
:102EA000DB690493049B002B04D0049B1B68039AEA
:102EB0009A42EDD8049B002B05D0049B1A68039B13
:102EC000D21A049B1A60019B039A1A60019B049A10
:102ED000DA61059B019ADA6100BF06B0704700BF56
:102EE0006007002000B587B001902A4B1B68039350
:102EF000284B1B680593059B049308E0049A019BEB
:102F00009A4208D0049B0593049BDB690493049BBD
:102F1000002BF3D100E000BF049B002B01D1002364
:102F200033E0059A049B9A4214D11A4B1B68DB6963
:102F3000184A1360174B1B68002B0BD1164B01224C
:102F40009A60164B00221A60154B01221A702F202E
:102F5000FFF7F2FE049B1B680293049BDA69059B52
:102F6000DA61059BDB690493049B002B05D0049B6D
:102F70001A68029B1A44049B1A60064B1B68039A4A
:102F80009A4214BF01230023DBB2184607B05DF854
:102F900004FB00BF60070020001001406407002010
:102FA0007307002008B51120FFF78EFE00BF08BD93
:102FB00008B51420FFF788FE00BF08BD00B583B038
:102FC0000190019B5B69019A92691046984700BF86
:102FD00003B05DF804FB000000B585B02B4B1B6807
:102FE000002B4ED000230193FFF706FF0246284B2B
:102FF0001B6819461046FFF707FF0290234B1B681A
:1030000003931DE0039B1B68029A9A421CD3039B07
:103010001B68029AD31A0293039B1B68019A1344FC
:103020000193039B0093039BDB690393009B1B7C31
:10303000002B05D0009B00221A740098FFF7BEFFFA
:10304000039B002BDED100E000BF124B1A78124B1D
:103050001B789A420CD1104B1B780133DAB20E4B1D
:103060001A700D4B1B78022B02D10B4B00221A70E9
:10307000094B1B781946094A019B42F82130FFF79A
:1030800097FF00BF05B05DF804FB00BF600700209C
:1030900064070020700700207107002068070020E7
:1030A00082B00190184B1A78184B1B789A4223D0A3
:1030B000154B1B780133DAB2134B1A70124B1B7885
:1030C000022B02D1104B00221A700F4B1B781A46AC
:1030D0000F4B53F82220019B1A60019B1A680D4B7D
:1030E0001B6813440B4A13600A4B1B6823F07F4391
:1030F000084A1360012303E0019B00221A600023A9
:10310000184602B0704700BF70070020710700200A
:10311000680700206407002088B0039002910192A4
:103120000023079338E0204B1B680693069B1B681F
:10313000039A9A4206D2069B1A68039BD21A069BF0
:103140001A602DE0069B1B68039AD31A0393069B13
:103150001B68079A13440793069B00221A60124BC0
:103160001B680593069BDB690F4A1360069BDB68AF
:10317000002B11D0029A079B134423F07F42069B39
:103180005A60069BDA68069B9A60019B1A68069B48
:10319000DA61019B059A1A60034B1B68002BC2D1B0
:1031A00000BF08B0704700BF6007002000B589B0BD
:1031B000019000238DF81F30664B1B680593AAE031
:1031C000019B002B05D0019B0693069BDB690193B5
:1031D00061E0614B1B781A4613465B001344DB0029
:1031E0005D4A1344043304935B4B1B780133DAB21A
:1031F000594B1A70584B1A78574B9B789A4202D108
:10320000554B00221A70049B5B680693049B1B7845
:10321000022B04D0032B1BD0012B1FD01DE0049BDD
:103220005B681846FFF75EFE0346002B02D00123C1
:103230008DF81F30069B00221A746CE0454B1B680A
:103240000393039B00221A74039BDB69414A1360BA
:10325000404B1B68002BF1D15DE05CE000BF069B9A
:103260001B7C002B00D056E0049B9A68069B5A609A
:10327000049BDA68069B9A60049B1A69069BDA60D5
:10328000049B5A69069B9A61344B1B78002B02D031
:10329000069B00225A60069B5A68314B1B68D31A62
:1032A00023F07F432F4A93420ED8069B5A682C4B3B
:1032B0001B6819461046FFF7A7FD0246069B9B6850
:1032C0001A44069B1A6017E0254B1A68069B5B6838
:1032D00019461046FFF798FD0290069B9B68029ADC
:1032E0009A4206D2069B9A68029BD21A069B1A60E3
:1032F00002E0069B00221A60069B00225A60069B91
:1033000000229A60069B01221A74069B0022DA6151
:103310000698FFF791FD019B002B7FF451AF0E4BF8
:103320001A780D4B5B789A427FF44AAF9DF81F30B4
:10333000002B04D1074B1B68059A9A4201D0012348
:1033400000E0002303F00103DBB2184609B05DF88A
:1033500004FB00BF60070020540600207307002014
:1033600064070020FEFF7F0010B588B00190274B56
:103370001B68002B44D0254B1B681B680793FFF785
:103380003BFD0690224B1B68059305990698FFF7B5
:103390003BFD0346033304931E4B1B7883F001036C
:1033A000DBB2002B01D0FFF7DFFC049A079B9342AE
:1033B00038BF1346059A13440593059B23F07F43BA
:1033C00005930598FFF72CFDFFF716FD039006996E
:1033D0000398FFF719FD0346DC1C06990598FFF7D3
:1033E00013FD03469C420DD9FFF706FD0346184620
:1033F000FFF716FD2F20FFF79FFCFFF7D3FD01E03D
:10340000FFF7D2FC00BF08B010BD00BF600700206E
:10341000640700207207002000B587B000230193E5
:1034200000238DF81730194B1B680493184B1B6849
:1034300003936B461846FFF733FE03468DF80B30B7
:103440009DF80B30002B08D0009B01AA0499184668
:10345000FFF762FE01238DF81730019B1846FFF736
:10346000A5FE0346002B02D001238DF817309DF8EE
:103470001730002B02D00398FFF776FF054B002290
:103480001A7000BF07B05DF804FB00BF640700209E
:10349000600700207307002008B50E4B0022C3F818
:1034A00040210C4B0022C3F844210A4B0022C3F8F0
:1034B0004821084B0022C3F84C21064B0022C3F8D8
:1034C0000021044B0022C3F80421FFF785FD00BF53
:1034D00008BD00BF0010014008B5FFF79DFF00BF09
:1034E00008BD000000B589B001900091009B0793D2
:1034F000019B1B788DF80C30019B5B680493019B4A
:103500009B68DBB28DF81430019BDB680693074A99
:10351000079B52F823300649079A51F8221003AA54
:103520001046984700BF09B05DF804FB74070020FF
:103530007807002000B589B001900091009B0793A7
:10354000019B1B788DF80C30019B5B680493019BF9
:103550009B68DBB28DF81430019BDB680693074A49
:10356000079B52F823300649079A51F8221003AA04
:103570001046984700BF09B05DF804FB74070020AF
:103580007807002030B58FB0039002910192039B21
:103590001B780C9326490C9B019A41F82320029B2F
:1035A0001A6924490C9B41F82320029B5B7F194632
:1035B000214A0C9B13440A461A70029B04AC1D4618
:1035C0000FCD0FC495E80F0084E80F000C9B089303
:1035D00000230D93039B1B781A46174B9B5C002B13
:1035E0000DD0039B181D019B002B01D0134A00E056
:1035F000002204AB194601F0ADFB0D9014E0039BD3
:103600001B781A460C4B9B5C002B0DD1039B03F1DE
:103610000C00019B002B01D0094A00E0002204AB02
:10362000194600F0EDFB0D900D9B18460FB030BD14
:1036300074070020780700207C070020E534000094
:103640003535000008B5064B1B68002B03D1054932
:103650005120FEF7AEFB024B1B68984700BF08BD28
:1036600080070020CCA5000082B00190019B044A95
:10367000934201D1034B00E00023184602B070478B
:10368000002000408007002000B587B00190009125
:10369000019B002B03D118497720FEF78AFB019884
:1036A000FFF7E2FF0590059B002B1ED000238DF84D
:1036B00013300020FEF736FB059B1B79002B03D04F
:1036C00001238DF8133005E0059B009A1A60059BD5
:1036D00001221A710020FEF739FB9DF81330002BF0
:1036E00003D011230393039B02E000230393039B66
:1036F000184607B05DF804FBCCA5000000B585B006
:103700000190019B002B03D10A499B20FEF751FB3E
:103710000198FFF7A9FF0390039B002B05D0039BA3
:1037200000221A60039B00221A7100BF05B05DF8E9
:1037300004FB00BFCCA5000082B003468DF8073023
:103740009DF90730002B0CDB9DF8073003F01F02BA
:1037500005499DF907305B09012000FA02F241F8A2
:10376000232000BF02B0704700E100E082B00346B2
:103770008DF807309DF90730002B11DB9DF80730DD
:1037800003F01F0208499DF907305B09012000FA88
:1037900002F2203341F82320BFF34F8FBFF36F8F26
:1037A00000BF02B0704700BF00E100E082B00346F6
:1037B00000918DF807309DF90730002B0ADB009B44
:1037C000DAB20C499DF907305201D2B20B4483F8AA
:1037D00000230BE0009BDAB207499DF8073003F0A5
:1037E0000F03043B5201D2B20B441A7600BF02B061
:1037F000704700BF00E100E000ED00E082B0019002
:10380000019B1B0B5BB2184602B0704700B583B03A
:1038100003460A468DF8073013468DF806309DF8AA
:103820000630072B03D908496B20FEF7C2FA9DF832
:1038300006209DF9073011461846FFF7B7FF00BF75
:1038400003B05DF804FB00BF1CA6000000B583B008
:1038500003468DF807309DF907301846FFF76CFFD7
:1038600000BF03B05DF804FB00B583B003468DF8DC
:1038700007309DF907301846FFF778FF00BF03B007
:103880005DF804FB84B001900B46ADF80230BDF842
:103890000230019A134400221A60BDF80230019AE6
:1038A00013441B680393039B00BF04B0704782B0AE
:1038B00001900B46ADF80230BDF80230019A134476
:1038C0001B68002B14BF01230023DBB2184602B093
:1038D000704782B001900091019B009AC3F80423C5
:1038E00000BF02B0704782B001900091019BD3F8F5
:1038F0000423009B1340002B14BF01230023DBB2E1
:10390000184602B0704782B001900091019B009A66
:10391000C3F8082300BF02B0704784B00190019B38
:10392000D3F880340393019B039AC3F88024039B4C
:10393000184604B0704782B00190019B0422C3F87E
:10394000002500BF02B0704782B00190019B0022A9
:10395000C3F8002500BF02B0704784B00390029105
:103960000192039B019AC3F81425039B029AC3F8A2
:103970000C2500BF04B0704700B583B001904FF034
:10398000FF324FF0FF310198FFF7E7FF00BF03B0B0
:103990005DF804FB82B00190019BD3F80C3518460A
:1039A00002B0704782B00190019BD3F814351846DD
:1039B00002B0704782B00190019BD3F808351846D9
:1039C00002B0704782B00190019BD3F810351846C1
:1039D00002B0704784B0039002910192039B029A57
:1039E000C3F80825039B019AC3F8102500BF04B053
:1039F000704700B583B001904FF0FF324FF0FF31B8
:103A00000198FFF7E7FF00BF03B05DF804FB82B049
:103A10000190019BD3F81835DBB2184602B070470D
:103A200082B001900B468DF803309DF80320019B76
:103A3000C3F81C2500BF02B0704782B001900B464E
:103A40008DF803309DF80330019A134401221A6067
:103A500000BF02B0704782B001900B468DF8033072
:103A600013468DF802309DF803209DF80230134371
:103A7000DBB21A46019BC3F86C2500BF02B0704749
:103A800082B001900091019B009AC3F8242500BFE9
:103A900002B0704700B583B00190019B1B681846C7
:103AA00000F097F80346002B04D105494FF4F67057
:103AB000FEF77FF94FF0A043184603B05DF804FB12
:103AC0004CA6000000B585B00190084611461A4684
:103AD00003468DF803300B468DF8023013468DF8FF
:103AE000013001AB1846FFF7D5FF03909DF8032086
:103AF0009DF802305B001A439DF801309B001A4389
:103B00009DF818301B0242EA03019DF81C301B048B
:103B1000019A1943039B02F5E07243F8221000BF9B
:103B200005B05DF804FB00B585B003900023019358
:103B3000002300930023012201210398FFF7C2FF15
:103B400000BF05B05DF804FB00B585B003900B46DF
:103B50008DF80B309DF80B20002301930023009378
:103B60001346002200210398FFF7ACFF00BF05B009
:103B70005DF804FB00B585B003900023019300239A
:103B800000930023012200210398FFF79BFF00BF51
:103B900005B05DF804FB00B585B0019001AB184697
:103BA000FFF778FF0390019B012202FA03F3194605
:103BB000039800F004F800BF05B05DF804FB82B084
:103BC00001900091019B009AC3F8082500BF02B044
:103BD000704784B00190019B5B090293002303931B
:103BE000029B002B03D14FF0FF33039300BF019BD7
:103BF00003F01F030193039A019B22FA03F303F0DE
:103C00000103002B14BF01230023DBB2184604B0CC
:103C1000704700B583B001900091009B1B68B3F121
:103C2000FF3F09D0009B1B681846FFF7B4FF009BBD
:103C30001B681846FFF777FF009B5B68B3F1FF3FF7
:103C400005D0009B5B6800211846FFF77DFF019BB4
:103C50001A68009B9B6919461046FFF711FF019BEC
:103C60001868009B597D009B1B7D1A46FFF7F3FEE9
:103C7000019B1868009B1968009B5B681A46FFF758
:103C80006CFE009B1B7D012B22D1009B9B68B3F136
:103C9000FF3F05D0009B9B6800211846FFF754FFAB
:103CA000009BDB68B3F1FF3F09D0009BDB6818463F
:103CB000FFF771FF009BDB681846FFF734FF019B9D
:103CC0001868009BD968009B9B681A46FFF782FE24
:103CD00000BF03B05DF804FB00B583B001900B4654
:103CE0008DF80330019B1B684FF48E711846FFF767
:103CF000C9FD019B1B684FF4A2711846FFF7C2FD76
:103D0000019B1B680E491846FFF7E3FD019B1B68EA
:103D10001846FFF773FD03461A469DF8033019460F
:103D20001046FFF773FD019B1B681846FFF766FD01
:103D300003461846FFF78AFD00BF03B05DF804FB99
:103D40008000020000B583B00190019B1B68084908
:103D50001846FFF7D8FD019B1B681846FFF74EFD7C
:103D600003461846FFF780FD00BF03B05DF804FB73
:103D70008402020000B587B00190019B1B681846C1
:103D8000FFF708FE0590019B1B681846FFF70AFE27
:103D90000490019B1B681846FFF70CFE0390019BE3
:103DA0001B681846FFF70EFE0290019B1B68184621
:103DB000FFF7E2FD019B1B681846FFF71AFE059B03
:103DC000B3F1FF3F02D00598FFF7D4FE049BB3F197
:103DD000FF3F02D00498FFF7CDFE029BB3F1FF3FF7
:103DE00002D00298FFF7C6FE039BB3F1FF3F02D05B
:103DF0000398FFF7BFFE00BF07B05DF804FB0000AB
:103E000000B587B0039002910192029B002B03D171
:103E10002D49AA20FDF7CDFF039B1B791A462C23C1
:103E200003FB02F3294A1344049300230593049BE4
:103E300093F82A30002B03D008230593059B3EE01E
:103E4000039B1A68039B1B791946214B53F82130B9
:103E500019461046FFF718FC0346002B03D0112328
:103E60000593059B2BE002990398FFF7D2FE049B74
:103E7000019A5A60029B1A69049B1A60049B5B6852
:103E8000002B05D0029B1B7F19460398FFF724FFE8
:103E9000039B1B681846FFF74EFD049B00229A61A6
:103EA000049B0022DA61049B002283F82920049BF2
:103EB00000225A61049B012283F82A20059B1846A0
:103EC00007B05DF804FB00BF84A60000880700204F
:103ED000D0A6000000B585B00190019B1B791A4661
:103EE0002C2303FB02F3114A13440393019B1B6829
:103EF0001846FFF729FD039B5B68002B02D0019851
:103F0000FFF720FF0198FFF735FF019B1B6818465C
:103F1000FFF7F4FB039B002283F82A20039B002277
:103F20005A6000BF05B05DF804FB00BF88070020A1
:103F300000B585B0019000914FF48E710198FFF7A4
:103F4000A1FC009B9A68009B1B6A13441B788DF8A8
:103F50000F30009B1B6A5A1C009B1A629DF80F30A1
:103F600019460198FFF75CFD00BF05B05DF804FB42
:103F700000B585B001900091009B5B69039316E04A
:103F8000009B93F82830DBB2002B01D0002314E013
:103F90004FF48E710198FFF78AFC034683F001030A
:103FA000DBB2002BECD100990198FFF7C1FF009B19
:103FB0001B6A039A9A42EBD80123184605B05DF8B4
:103FC00004FB000000B587B0039002910192039BAF
:103FD0001B791A462C2303FB02F33C4A1344049337
:103FE000049B93F82A30012B04D039494FF48C708C
:103FF000FDF7DFFE029B002B04D1354940F219107A
:10400000FDF7D7FE019B002B04D131494FF48D7091
:10401000FDF7CFFE039800F05DF80346002B03D0B8
:1040200011230593059B4CE0049B019A5A61049B64
:10403000029A9A60049B00221A62049B002283F871
:10404000282000230593039B1B684FF48E711846AC
:10405000FFF718FC039B1B6808211846FFF7EDFCCF
:10406000039B1B6804991846FFF762FF049B5B687B
:10407000002B25D1039B1B6804991846FFF778FF96
:10408000034683F00103DBB2002B02D00F2305931C
:1040900013E000BF039B1B684FF48E711846FFF7B7
:1040A00006FC034683F00103DBB2002BF2D1039B35
:1040B0001B680C211846FFF7C0FC049B00225A61C4
:1040C000059B184607B05DF804FB00BF8807002079
:1040D00084A6000082B00190019B1B791946074A13
:1040E0002C2303FB01F3134414331B68002B14BF70
:1040F00001230023DBB2184602B070478807002076
:1041000000B583B00190019B1B684FF49271184673
:10411000FFF7B8FB019B1B684FF484711846FFF74B
:10412000B1FB019B1B6800211846FFF786FC00BF0E
:1041300003B05DF804FB10B582B001900091009BC4
:104140009B69002B08D14FF484710198FFF79AFB0B
:104150000198FFF75CFC13E04FF484710198FFF7BE
:1041600091FB009BDA68009B5B6AD4180198FFF70B
:104170004EFC03462370009B5B6A5A1C009B5A62EC
:1041800002B010BD00B589B0039002910192039B6B
:104190001B791A462C2303FB02F37F4A1344059331
:1041A000039B1B7919467C4A2C2303FB01F3134420
:1041B0002A331B78012B04D078494FF4B670FDF7F1
:1041C000F8FD029B002B04D1744940F26D10FDF7FD
:1041D000F0FD019B002B04D170494FF4B770FDF73F
:1041E000E8FD00238DF81C30059B5B68002B06D092
:1041F000039B1B684FF401711846FFF784FB059B76
:104200009B69002B15D0059BDB69002B0ED0059B0D
:104210005B68002B06D0039B1B684FF401711846A6
:10422000FFF757FB11230693069BB0E001238DF89F
:104230001C309DF81C3083F00103DBB2002B0CD046
:10424000059B019A9A61059B029ADA60059B002200
:104250005A62059B0022DA6105E0059B029A1A6109
:10426000059B019ADA61059B93F8293083F00103DD
:10427000DBB2002B09D09DF81C3083F00103DBB2C8
:10428000002B02D00398FFF73BFF059B5B68002BD8
:1042900073D1039B1B684FF4A2711846FFF7F2FA23
:1042A000039B1B684FF492711846FFF700FB03460F
:1042B0008DF81F30039B1B684FF484711846FFF77D
:1042C000F6FA03468DF81E30039B1B684FF4A2716B
:1042D0001846FFF7ECFA03468DF81D309DF81E30A6
:1042E00083F00103DBB2002B0DD09DF81D3083F06D
:1042F0000103DBB2002B06D09DF81F3083F00103D1
:10430000DBB2002BCCD19DF81F30002B0FD19DF8D4
:104310001D30002B0BD1039B1B6805991846FFF736
:104320000AFF059B9A69059B5B6A9A42B8D8059B70
:1043300000229A619DF81F30002B03D003230693BF
:10434000069B24E09DF81D30002B03D00F2306931D
:10435000069B1CE0059B93F82930002B06D0039B9D
:104360001B6800211846FFF768FB0DE0039B1B68E4
:1043700004211846FFF761FB06E0039B1B684FF41E
:1043800001711846FFF7A5FA00230693069B18460D
:1043900009B05DF804FB00BF8807002084A6000078
:1043A00000B589B003900291019201238DF810307D
:1043B000029B0693019B0593039B5B68039A11681C
:1043C00004AA1046984700BF09B05DF804FB00B589
:1043D00087B00190009100238DF80830009B049372
:1043E000019B9B680393019B00225A61019B5B68C0
:1043F000019A116802AA1046984700BF07B05DF8FD
:1044000004FB00B58BB0019000914FF4007101984E
:10441000FFF769FA0346002B39D04FF492710198E7
:10442000FFF745FA0346002B31D04FF49271019803
:10443000FFF728FA4FF401710198FFF764FA009B27
:1044400093F8293083F00103DBB2002B03D0042161
:104450000198FFF7F2FA02238DF80C300198FFF76C
:104460005CFA03460693009B9B690593009BDB68FF
:104470000493009B00229A61009B0022DA61009B5A
:104480005B68009A116803AA1046984752E004211D
:104490000198FFF728FA0346002B4BD04FF48471A4
:1044A0000198FFF704FA0346002B43D000990198C6
:1044B000FFF741FE009B9A69009B5B6A9A4239D1E3
:1044C000009BDB69002B19D0009BDB680993009BE4
:1044D0005B6A0893009BDA69009B9A61009B1A69EA
:1044E000009BDA60009B0022DA61009B00225A6286
:1044F000099A08990098FFF753FF1BE0009B93F877
:10450000293083F00103DBB2002B03D00421019892
:10451000FFF793FA4FF401710198FFF7F4F9009B4C
:1045200000229A61009B596A009BDB681A4600983A
:10453000FFF736FF4FF48E710198FFF7B8F9034685
:10454000002B24D0009B5B690793009B1B6A079A92
:104550009A420DD9009B93F82830DBB283F0010317
:10456000DBB2002B04D000990198FFF7E1FC0EE0CC
:104570004FF48E710198FFF785F9009B5B69002B62
:1045800005D0009B5B6919460098FFF720FF4FF4A8
:10459000A2710198FFF78BF90346002B1CD04FF452
:1045A000A2710198FFF76EF9009B93F82930002B58
:1045B00003D000210198FFF740FA009B9B69002B74
:1045C0000AD0009B00229A61009B596A009BDB681D
:1045D0001A460098FFF7E4FE00BF0BB05DF804FB3D
:1045E00008B503490348FFF70CFF00BF08BD00BF33
:1045F000880700200020004082B003468DF8073075
:104600009DF90730002B0CDB9DF8073003F01F02EB
:1046100005499DF907305B09012000FA02F241F8D3
:10462000232000BF02B0704700E100E082B00346E3
:104630008DF807309DF90730002B11DB9DF807300E
:1046400003F01F0208499DF907305B09012000FAB9
:1046500002F2203341F82320BFF34F8FBFF36F8F57
:1046600000BF02B0704700BF00E100E082B0034627
:1046700000918DF807309DF90730002B0ADB009B75
:10468000DAB20C499DF907305201D2B20B4483F8DB
:1046900000230BE0009BDAB207499DF8073003F0D6
:1046A0000F03043B5201D2B20B441A7600BF02B092
:1046B000704700BF00E100E000ED00E082B0019033
:1046C000019B03F06043B3F1005F0CBF01230023A3
:1046D000DBB2184602B0704782B00190019B1B0B01
:1046E0005BB2184602B0704700B583B003460A4675
:1046F0008DF8073013468DF806309DF80630072BED
:1047000003D908496B20FDF754FB9DF806209DF95D
:10471000073011461846FFF7A9FF00BF03B05DF848
:1047200004FB00BFD4A6000000B583B003468DF89B
:1047300007309DF907301846FFF75EFF00BF03B052
:104740005DF804FB00B583B003468DF807309DF992
:1047500007301846FFF76AFF00BF03B05DF804FB9F
:1047600084B001900B46ADF80230BDF80230019ADA
:10477000134400221A60BDF80230019A13441B68EA
:104780000393039B00BF04B0704782B001900B46B7
:10479000ADF80230BDF80230019A13441B68002BBB
:1047A00014BF01230023DBB2184602B0704782B069
:1047B00001900091019BD3F80022009B1A43019BBA
:1047C000C3F8002200BF02B0704782B00190009190
:1047D000019BD3F80022009BDB431A40019BC3F8E6
:1047E000002200BF02B0704782B001900091019B8F
:1047F000009AC3F8042300BF02B0704782B0019052
:104800000091019B009AC3F8082300BF02B07047D3
:1048100084B00190019BD3F880340393019B039AE9
:10482000C3F88024039B184604B0704782B00190FF
:10483000019B0822C3F8002500BF02B0704782B078
:104840000190019B0022C3F8002500BF02B0704711
:1048500084B0039002910192039B029AC3F80C2545
:10486000039B019AC3F8142500BF04B0704700B53C
:1048700083B001904FF0FF324FF0FF310198FFF706
:10488000E7FF00BF03B05DF804FB82B00190019B1D
:10489000D3F80C35184602B0704782B00190019BE6
:1048A000D3F81435184602B0704782B00190019BCE
:1048B000D3F80835184602B0704782B00190019BCA
:1048C000D3F81035184602B0704784B003900291B7
:1048D0000192039B029AC3F80825039B019AC3F82F
:1048E000102500BF04B0704700B583B001904FF0B1
:1048F000FF324FF0FF310198FFF7E7FF00BF03B031
:104900005DF804FB82B001900B468DF803309DF8F2
:104910000330019A134401221A6000BF02B07047AD
:1049200082B001900B468DF8033013468DF80230AB
:104930009DF803209DF802301343DBB21A46019B19
:10494000C3F86C2500BF02B0704782B0019000919F
:10495000019B009AC3F8242500BF02B0704784B0C1
:10496000039002910192029A039BC3F84425039B92
:10497000019AC3F8482500BF04B0704782B0019087
:10498000019BD3F84C35184602B0704784B00390B1
:1049900002910192029A039BC3F83425039B019A6A
:1049A000C3F8382500BF04B0704782B00190019B66
:1049B000D3F83C35184602B07047000000B583B00C
:1049C0000190019B1B68184600F097F80346002BE6
:1049D00004D105494FF4F670FDF7EBF94FF0A04311
:1049E000184603B05DF804FB04A7000000B585B0CD
:1049F0000190084611461A4603468DF803300B46CF
:104A00008DF8023013468DF8013001AB1846FFF7E0
:104A1000D5FF03909DF803209DF802305B001A43F8
:104A20009DF801309B001A439DF818301B0242EAA2
:104A300003019DF81C301B04019A1943039B02F5E6
:104A4000E07243F8221000BF05B05DF804FB00B52A
:104A500085B00390002301930023009300230122DB
:104A600001210398FFF7C2FF00BF05B05DF804FB0A
:104A700000B585B003900B468DF80B309DF80B20E8
:104A80000023019300230093134600220021039882
:104A9000FFF7ACFF00BF05B05DF804FB00B585B0C3
:104AA000039000230193002300930023012200219F
:104AB0000398FFF79BFF00BF05B05DF804FB00B54E
:104AC00085B0019001AB1846FFF778FF0390019B7A
:104AD000012202FA03F31946039800F004F800BF1C
:104AE00005B05DF804FB82B001900091019B009A33
:104AF000C3F8082500BF02B0704784B00190019B45
:104B00005B09029300230393029B002B03D14FF018
:104B1000FF33039300BF019B03F01F030193039A2C
:104B2000019B22FA03F303F00103002B14BF0123BE
:104B30000023DBB2184604B0704700B583B0019083
:104B40000091009B1B68B3F1FF3F09D0009B1B68DD
:104B50001846FFF7B4FF009B1B681846FFF777FF66
:104B6000009B5B68B3F1FF3F05D0009B5B680021B1
:104B70001846FFF77DFF019B1A68009B9B69194649
:104B80001046FFF7E2FE019B1868009B597D009BD1
:104B90001B7D1A46FFF7C4FE019B1868009B19682D
:104BA000009B5B681A46FFF753FE009B1B7D012BA1
:104BB00022D1009B9B68B3F1FF3F05D0009B9B680F
:104BC00000211846FFF754FF009BDB68B3F1FF3F5D
:104BD00009D0009BDB681846FFF771FF009BDB687C
:104BE0001846FFF734FF019B1868009BD968009BAB
:104BF0009B681A46FFF769FE00BF03B05DF804FB2F
:104C000000B583B001900B468DF80330019B1B6803
:104C10004FF488711846FFF7A3FD019B1B684FF402
:104C200090711846FFF79CFD019B1B684FF4927131
:104C30001846FFF795FD019B1B684FF4A2711846BB
:104C4000FFF78EFD019B1B684FF4AC711846FFF710
:104C500087FD019B1B680F491846FFF7C5FD019BA7
:104C60001B681846FFF738FD03461A469DF80330C7
:104C700019461046FFF738FD019B1B681846FFF7E1
:104C80002BFD03461846FFF74FFD00BF03B05DF84C
:104C900004FB00BF1003420000B583B00190019BEC
:104CA0001B6808491846FFF7A9FD019B1B681846B9
:104CB000FFF712FD03461846FFF744FD00BF03B09F
:104CC0005DF804FB1003420000B587B00190019B22
:104CD0001B681846FFF7D9FD0590019B1B68184615
:104CE000FFF7DBFD0490019B1B681846FFF7DDFD15
:104CF0000390019B1B681846FFF7DFFD0290019BA4
:104D00001B681846FFF7B3FD019B1B681846FFF7A9
:104D1000EBFD059BB3F1FF3F02D00598FFF7BEFE08
:104D2000049BB3F1FF3F02D00498FFF7B7FE029B4C
:104D3000B3F1FF3F02D00298FFF7B0FE039BB3F13F
:104D4000FF3F02D00398FFF7A9FE00BF07B05DF850
:104D500004FB000000B587B0039002910192029B12
:104D6000002B03D12B49CF20FDF723F8039B1B79A0
:104D70001A461346DB0013449B00274A134404934E
:104D800000230593049B93F82030002B03D00823C5
:104D90000593059B3AE0039B1A68039B1B79194610
:104DA0001E4B53F8213019461046FEF76DFC0346A2
:104DB000002B03D011230593059B27E0029903984C
:104DC000FFF7BBFE049B019A5A60029B1A69049B81
:104DD0001A60049B5B68002B05D0029B1B7F194661
:104DE0000398FFF70DFF039B1B681846FFF71EFD96
:104DF000049B00229A61049B0022DA61049B00223A
:104E00005A61049B012283F82020059B184607B0B5
:104E10005DF804FB3CA70000B407002088A7000051
:104E200000B585B00190019B1B791A461346DB0043
:104E300013449B002A4A13440393019B1B6802936B
:104E4000039B5B68002B02D00198FFF725FF202110
:104E50000298FFF7BAFC039B9B69002B08D04FF424
:104E6000A2710298FFF77CFC04210298FFF74AFD2B
:104E70004FF4AC710298FFF773FC0C210298FFF716
:104E800041FD00BF4FF4AC710298FFF77EFC034672
:104E900083F00103DBB2002BF4D1039B9B69002B51
:104EA0000AD04FF4A2710298FFF76FFC034683F01B
:104EB0000103DBB2002BE5D10298FFF7C0FC01989B
:104EC000FFF702FF0298FEF719FC039B002283F80C
:104ED0002020039B00225A6000BF05B05DF804FB50
:104EE000B407002000B589B0039002910192039BA2
:104EF0001B791A461346DB0013449B00564A1344A1
:104F00000593059B93F82030012B04D0534940F2C0
:104F10005310FCF74EFF029B002B04D14F494FF476
:104F2000AA70FCF746FF019B002B04D14B4940F2CD
:104F30005510FCF73EFF039B1B79002B02D1019B10
:104F4000FF2B04D945494FF4AB70FCF732FF0298B0
:104F5000FFF7B4FB034683F00103DBB2002B03D061
:104F600010230693069B73E0039800F079F803463C
:104F7000002B03D011230693069B69E0059B019A41
:104F80005A61059B029A9A6000230693039B1B6853
:104F90004FF490711846FFF7E3FB039B1B684FF437
:104FA000AC711846FFF7DCFB039B1868059B9968FA
:104FB000059B5B691A46FFF7D2FC039B1B6808211F
:104FC0001846FFF79FFC059B5B68002B3FD1039BB6
:104FD0001B684FF490711846FFF7D7FB03468DF816
:104FE0001F30039B1B684FF4AC711846FFF7CDFBD5
:104FF00003468DF81E309DF81F3083F00103DBB2AD
:10500000002B06D09DF81E3083F00103DBB2002B8D
:10501000DDD19DF81E30002B02D00F23069313E044
:10502000039B1B680C211846FFF76CFC00BF039B19
:105030001B684FF4AC711846FFF7A7FB034683F0DB
:105040000103DBB2002BF2D1059B00225A61069BC3
:10505000184609B05DF804FBB40700203CA7000027
:1050600082B00190019B1B791946084A0B46DB0070
:105070000B449B00134414331B68002B14BF012303
:105080000023DBB2184602B0704700BFB40700200F
:1050900000B589B0039002910192039B1B791A46D7
:1050A0001346DB0013449B00864A13440593039B7D
:1050B0001B791946834A0B46DB000B449B001344C3
:1050C00020331B78012B04D07F494FF4D370FCF7B9
:1050D00070FE029B002B04D17B4940F2A710FCF725
:1050E00068FE019B002B04D177494FF4D470FCF784
:1050F00060FE039B1B79002B02D1019BFF2B04D97F
:10510000714940F2A910FCF754FE0298FFF7D6FA55
:10511000034683F00103DBB2002B03D01023079377
:10512000079BCAE000238DF81B30059B5B68002BB2
:1051300006D0039B1B684FF404711846FFF75EFB13
:10514000059B9B69002B15D0059BDB69002B0ED0BE
:10515000059B5B68002B06D0039B1B684FF4047112
:105160001846FFF741FB11230793079BA5E0012396
:105170008DF81B309DF81B3083F00103DBB2002B50
:1051800009D0059B019A9A61059B029ADA60059BFA
:105190000022DA6105E0059B029A1A61059B019ADB
:1051A000DA6100230793039B1B684FF4887118464C
:1051B000FFF7D6FA039B1B684FF4A2711846FFF75E
:1051C000CFFA039B1B68019A02991846FFF7DEFB92
:1051D0009DF81B3083F00103DBB2002B06D0039B4C
:1051E0001B6800211846FFF78DFB05E0039B1B6839
:1051F00020211846FFF7DBFA039B1B791946314A39
:105200000B46DB000B449B00134404331B68002B4C
:105210004BD1039B1B684FF488711846FFF7B5FA12
:1052200003468DF81330039B1B684FF4A271184698
:10523000FFF7ABFA03468DF81230039B1B684FF45F
:1052400092711846FFF7A1FA03468DF811309DF8C8
:10525000133083F00103DBB2002B0DD09DF8123028
:1052600083F00103DBB2002B06D09DF8113083F0F0
:105270000103DBB2002BCCD1039B1B791946114AE9
:105280000B46DB000B449B001344183300221A60CA
:105290009DF81130002B01D0032307939DF81230A5
:1052A000002B09D00F23079306E0039B1B684FF4E4
:1052B00004711846FFF798FA079B184609B05DF885
:1052C00004FB00BFB40700203CA7000000B589B074
:1052D00003900291019201238DF81030029B0693F6
:1052E000019B0593039B5B68039A116804AA10460F
:1052F000984700BF09B05DF804FB00B587B0019086
:10530000009100238DF80830009B0493019B9B685B
:105310000393019B00225A61019B5B68019A11680B
:1053200002AA1046984700BF07B05DF804FB00B51D
:1053300089B0019000914FF492710198FFF725FA1E
:105340000346002B22D04FF492710198FFF708FA20
:1053500002238DF808300198FFF75AFA03460593A7
:105360000198FFF722FB03460493009BDB6803933D
:10537000009B00229A61009B0022DA61009B5B681F
:10538000009A116802AA104698473BE04FF48871D2
:105390000198FFF7FAF90346002B33D04FF48871D8
:1053A0000198FFF7DDF90198FFF7FFFA0790009BDE
:1053B0009B69079A9A4225D1009BDB69002B17D085
:1053C000009BDB68069320210198FFF7FEF9009B04
:1053D000DA69009B9A61009B1A69009BDA60009B66
:1053E0000022DA61069A07990098FFF76FFF09E03B
:1053F000009B00229A61009BDB681A46079900987F
:10540000FFF764FF4FF4A2710198FFF7BEF903465E
:10541000002B18D04FF4A2710198FFF7A1F9009B5F
:105420009B69002B0FD0009B00229A61009B0022F9
:10543000DA610198FFF7B9FA0146009BDB681A466A
:105440000098FFF743FF4FF490710198FFF79DF923
:105450000346002B14D04FF490710198FFF780F9A8
:105460000C210198FFF74EFA009B5B69002B07D0D7
:105470000198FFF783FA034619460098FFF73DFFAE
:105480004FF4AC710198FFF780F90346002B10D060
:105490004FF4AC710198FFF763F9009B5B69002B37
:1054A00007D00198FFF76AFA034619460098FFF7FC
:1054B00024FF00BF09B05DF804FB000008B50349F4
:1054C0000348FFF734FF00BF08BD00BFB40700204A
:1054D0000020004082B003468DF807309DF9073068
:1054E000002B0CDB9DF8073003F01F0205499DF9E6
:1054F00007305B09012000FA02F241F8232000BFC7
:1055000002B0704700E100E082B0034600918DF8E0
:1055100007309DF90730002B0ADB009BDAB20C49FB
:105520009DF907305201D2B20B4483F800230BE0FF
:10553000009BDAB207499DF8073003F00F03043BE4
:105540005201D2B20B441A7600BF02B0704700BFBE
:1055500000E100E000ED00E082B00190019B1B0B38
:105560005BB2184602B0704700B583B003460A46E6
:105570008DF8073013468DF806309DF80630072B5E
:1055800003D908496B20FCF714FC9DF806209DF90F
:10559000073011461846FFF7B7FF00BF03B05DF8AC
:1055A00004FB00BF8CA7000000B583B003468DF854
:1055B00007309DF907301846FFF78CFF00BF03B096
:1055C0005DF804FB00B583B00346ADF80630BDF8C6
:1055D0000630184600F026F803461B68012B0CBF66
:1055E00001230023DBB2184603B05DF804FB00B5CD
:1055F00085B00346ADF80630BDF80630184600F019
:1056000011F803461A4600231360BDF80630184609
:1056100000F008F803461B680393039B00BF05B026
:105620005DF804FB82B00346ADF80630BDF80630E5
:1056300003F1804303F5C043184602B070470000F1
:1056400082B00190034A019BC2F8043300BF02B04C
:10565000704700BF0060004082B00190034BD3F858
:105660000423019B1340184602B0704700600040BD
:1056700082B00190054A019B03F5A27352F82330D2
:105680001B0A03F01F03184602B070470060004079
:1056900082B00190064A019B03F5A27352F82330B1
:1056A0001B0C03F00303DBB2184602B0704700BFC7
:1056B0000060004084B00390029111461A460B46E8
:1056C0008DF8073013468DF80630184A039B03F512
:1056D000A27352F82330154923F4981323F4F85396
:1056E000039A02F5A27241F82230104A039B03F597
:1056F000A27352F82320029B1B0203F4F8519DF879
:1057000007301B0403F4403319439DF806301B0592
:1057100003F480130B4305491A43039B03F5A2735B
:1057200041F8232000BF04B0704700BF0060004074
:1057300000B583B00190019B1B68184600F013F977
:105740000346002B04D105494FF4F670FCF731FBFA
:105750004FF0A043184603B05DF804FBBCA700005F
:1057600000B585B00190084611461A4603468DF8EB
:1057700003300B468DF8023013468DF8013001AB33
:105780001846FFF7D5FF03909DF803209DF80230DF
:105790005B001A439DF801309B001A439DF81830B6
:1057A0001B0242EA03019DF81C301B04019A1943B5
:1057B000039B02F5E07243F8221000BF05B05DF8CC
:1057C00004FB00B585B003900023019300230093F0
:1057D0000023012201210398FFF7C2FF00BF05B09B
:1057E0005DF804FB00B585B001900B468DF80330E1
:1057F00001AB1846FFF79CFF0390019A039B02F54B
:10580000E07253F82230019A23F44031039B02F5F1
:10581000E07243F82210019A039B02F5E07253F8FC
:1058200022309DF8032012041146019A1943039B6C
:1058300002F5E07243F8221000BF05B05DF804FBEA
:1058400000B585B0019001AB1846FFF771FF0390DA
:10585000019B012202FA03F31946039800F02EF887
:1058600000BF05B05DF804FB00B585B0019001AB49
:105870001846FFF75DFF0390019B012202FA03F334
:105880001946039800F024F800BF05B05DF804FB4A
:1058900000B585B0019001AB1846FFF749FF0390B2
:1058A000019A039B02F5E07253F822301B0C03F0BF
:1058B0000303DBB2184605B05DF804FB82B001902B
:1058C0000091019B009AC3F8082500BF02B0704701
:1058D00082B001900091019B009AC3F80C2500BF93
:1058E00002B0704786B00390029101924FF0A0433E
:1058F0000493039B059319E0059B9B0006AA1344A0
:1059000053F8083CD3F82025019B1A60059B9B00A7
:1059100006AA134453F8083C019A1268C3F82025DC
:10592000019B04330193059B01330593039A029B6A
:105930001344059A9A42DFD300BF06B0704700B502
:1059400085B0019001AB1846FFF7F2FE0390019B72
:10595000012202FA03F31A46039BC3F8202500BF75
:1059600005B05DF804FB84B00190019B5B090293D4
:1059700000230393029B002B03D14FF0FF330393CB
:1059800000BF019B03F01F030193039A019B22FABE
:1059900003F303F00103002B14BF01230023DBB248
:1059A000184604B0704784B001900091009B0393A7
:1059B000019BDB080293019B03F007030193012283
:1059C000019B02FA03F30399029A0A4412781340E6
:1059D000184604B0704784B001900091009B039377
:1059E000019BDB080293019B03F007030193039AD9
:1059F000029B13441B785AB20121019B01FA03F365
:105A00005BB2134359B2039A029B1344CAB21A7091
:105A100000BF04B07047000082B00190074A019BAC
:105A20001344303393F90030B3F1FF3F14BF012327
:105A30000023DBB2184602B0704700BFD807002031
:105A400082B001900C4A019B1344303393F900302B
:105A5000002B09DB084A019B1344303393F90030D3
:105A6000072B01DC012300E0002303F00103DBB27C
:105A7000184602B0704700BFD807002084B00390DA
:105A8000029101928DF80330029B59B20E4A039B9A
:105A9000134430330A461A700B49029B019A41F8AD
:105AA00023209DF8033083F00103DBB2002B08D0E4
:105AB000029B083B039A51B2034A13440A4683F8F7
:105AC000502000BF04B07047D807002082B001907A
:105AD000044A019B13443033FE221A7000BF02B007
